Component: ARM Compiler 5.06 update 6 (build 750) Tool: armlink [4d35ed]

==============================================================================

Section Cross References

    main.o(i.assert_nrf_callback) refers to app_error_handler_keil.o(.emb_text) for app_error_handler
    main.o(i.bsp_event_handler) refers to boards.o(i.bsp_board_led_invert) for bsp_board_led_invert
    main.o(i.bsp_event_handler) refers to communication.o(i.TestingFnc) for TestingFnc
    main.o(i.main) refers to app_timer.o(i.app_timer_init) for app_timer_init
    main.o(i.main) refers to app_error.o(i.app_error_handler_bare) for app_error_handler_bare
    main.o(i.main) refers to nrf_log_frontend.o(i.nrf_log_init) for nrf_log_init
    main.o(i.main) refers to nrf_log_default_backends.o(i.nrf_log_default_backends_init) for nrf_log_default_backends_init
    main.o(i.main) refers to communication.o(i.UART_Initialization) for UART_Initialization
    main.o(i.main) refers to bsp.o(i.bsp_init) for bsp_init
    main.o(i.main) refers to bsp_btn_ble.o(i.bsp_btn_ble_init) for bsp_btn_ble_init
    main.o(i.main) refers to nrf_pwr_mgmt.o(i.nrf_pwr_mgmt_init) for nrf_pwr_mgmt_init
    main.o(i.main) refers to communication.o(i.BLE_ProtocolStack_Initialization) for BLE_ProtocolStack_Initialization
    main.o(i.main) refers to nrf_ble_gatt.o(i.nrf_ble_gatt_init) for nrf_ble_gatt_init
    main.o(i.main) refers to communication.o(i.BLE_Discovery_Initialization) for BLE_Discovery_Initialization
    main.o(i.main) refers to communication.o(i.NUSc_Initialization) for NUSc_Initialization
    main.o(i.main) refers to ble_conn_state.o(i.ble_conn_state_init) for ble_conn_state_init
    main.o(i.main) refers to peer_manager.o(i.pm_init) for pm_init
    main.o(i.main) refers to communication.o(i.BLE_Scan_Initialization) for BLE_Scan_Initialization
==============================================================================

Removing Unused input sections from the image.

    Removing main.o(.rev16_text), (4 bytes).
    Removing main.o(.revsh_text), (4 bytes).
    Removing main.o(.rrx_text), (6 bytes).
    Removing main.o(i.assert_nrf_callback), (16 bytes).
    Removing communication.o(.rev16_text), (4 bytes).
    Removing communication.o(.revsh_text), (4 bytes).
    Removing communication.o(.rrx_text), (6 bytes).
    Removing boards.o(.rev16_text), (4 bytes).
    Removing boards.o(.revsh_text), (4 bytes).
    Removing boards.o(.rrx_text), (6 bytes).
    Removing boards.o(i.bsp_board_button_idx_to_pin), (12 bytes).
    Removing boards.o(i.bsp_board_led_idx_to_pin), (12 bytes).
    Removing boards.o(i.bsp_board_pin_to_led_idx), (36 bytes).
    Removing bsp.o(.rev16_text), (4 bytes).
    Removing bsp.o(.revsh_text), (4 bytes).
    Removing bsp.o(.rrx_text), (6 bytes).
    Removing bsp.o(i.bsp_buttons_disable), (4 bytes).
    Removing bsp.o(i.bsp_buttons_enable), (4 bytes).
==============================================================================

Image Symbol Table

    Local Symbols

    Symbol Name                              Value     Ov Type        Size  Object(Section)

    ../clib/../cmprslib/zerorunl2.c          0x00000000   Number         0  __dczerorl2.o ABSOLUTE
    ../clib/microlib/ctype/ctype.c           0x00000000   Number         0  isalpha_o.o ABSOLUTE
    ../clib/microlib/ctype/ctype.c           0x00000000   Number         0  iscntrl_o.o ABSOLUTE
    ../clib/microlib/ctype/ctype.c           0x00000000   Number         0  isdigit_o.o ABSOLUTE
    ../clib/microlib/ctype/ctype.c           0x00000000   Number         0  isgraph_o.o ABSOLUTE
    ../clib/microlib/ctype/ctype.c           0x00000000   Number         0  ctype_o.o ABSOLUTE
    ../clib/microlib/ctype/ctype.c           0x00000000   Number         0  islower_o.o ABSOLUTE
    ../clib/microlib/ctype/ctype.c           0x00000000   Number         0  isprint_o.o ABSOLUTE
    ../clib/microlib/ctype/ctype.c           0x00000000   Number         0  ispunct_o.o ABSOLUTE
    ../clib/microlib/ctype/ctype.c           0x00000000   Number         0  isspace_o.o ABSOLUTE
    ../clib/microlib/ctype/ctype.c           0x00000000   Number         0  isupper_o.o ABSOLUTE
    ../clib/microlib/ctype/ctype.c           0x00000000   Number         0  isalnum_o.o ABSOLUTE
    ../clib/microlib/ctype/ctype.c           0x00000000   Number         0  isxdigit_o.o ABSOLUTE
    ../clib/microlib/ctype/ctype.c           0x00000000   Number         0  isblank_o.o ABSOLUTE
    ../clib/microlib/division.c              0x00000000   Number         0  uldiv.o ABSOLUTE
    ../clib/microlib/init/entry.s            0x00000000   Number         0  entry2.o ABSOLUTE
    ../clib/microlib/init/entry.s            0x00000000   Number         0  entry8a.o ABSOLUTE
    ../clib/microlib/init/entry.s            0x00000000   Number         0  entry7b.o ABSOLUTE
    ../clib/microlib/init/entry.s            0x00000000   Number         0  entry7a.o ABSOLUTE
    ../clib/microlib/init/entry.s            0x00000000   Number         0  entry5.o ABSOLUTE
    ../clib/microlib/init/entry.s            0x00000000   Number         0  entry8b.o ABSOLUTE
    ../clib/microlib/init/entry.s            0x00000000   Number         0  entry11b.o ABSOLUTE
    ../clib/microlib/init/entry.s            0x00000000   Number         0  entry.o ABSOLUTE
    ../clib/microlib/init/entry.s            0x00000000   Number         0  entry9b.o ABSOLUTE
    ../clib/microlib/init/entry.s            0x00000000   Number         0  entry10b.o ABSOLUTE
    ../clib/microlib/init/entry.s            0x00000000   Number         0  entry11a.o ABSOLUTE
    ../clib/microlib/init/entry.s            0x00000000   Number         0  entry9a.o ABSOLUTE
    ../clib/microlib/init/entry.s            0x00000000   Number         0  entry10a.o ABSOLUTE
    ../clib/microlib/longlong.c              0x00000000   Number         0  llshl.o ABSOLUTE
    ../clib/microlib/longlong.c              0x00000000   Number         0  llushr.o ABSOLUTE
    ../clib/microlib/string/memcmp.c         0x00000000   Number         0  memcmp.o ABSOLUTE
    ../clib/microlib/string/memcpy.c         0x00000000   Number         0  memcpyb.o ABSOLUTE
    ../clib/microlib/string/memcpy.c         0x00000000   Number         0  memcpya.o ABSOLUTE
    ../clib/microlib/string/memset.c         0x00000000   Number         0  memseta.o ABSOLUTE
    ../clib/microlib/string/strcpy.c         0x00000000   Number         0  strcpy.o ABSOLUTE
    ../clib/microlib/string/strlen.c         0x00000000   Number         0  strlen.o ABSOLUTE
    ..\Driver\Boards\boards.c                0x00000000   Number         0  boards.o ABSOLUTE
    ..\Driver\Libraries\Bluetooth\BLE_Service\ble_nus_c.c 0x00000000   Number         0  ble_nus_c.o ABSOLUTE
    ..\Driver\Libraries\Bluetooth\ble_advdata.c 0x00000000   Number         0  ble_advdata.o ABSOLUTE
    ..\Driver\Libraries\Bluetooth\ble_advertising.c 0x00000000   Number         0  ble_advertising.o ABSOLUTE
    ..\Driver\Libraries\Bluetooth\ble_conn_state.c 0x00000000   Number         0  ble_conn_state.o ABSOLUTE
    ..\Driver\Libraries\Bluetooth\ble_db_discovery.c 0x00000000   Number         0  ble_db_discovery.o ABSOLUTE
    ..\Driver\Libraries\Bluetooth\ble_srv_common.c 0x00000000   Number         0  ble_srv_common.o ABSOLUTE
    ..\Driver\Libraries\Bluetooth\gatt_cache_manager.c 0x00000000   Number         0  gatt_cache_manager.o ABSOLUTE
    ..\Driver\Libraries\Bluetooth\gatts_cache_manager.c 0x00000000   Number         0  gatts_cache_manager.o ABSOLUTE
    ..\Driver\Libraries\Bluetooth\id_manager.c 0x00000000   Number         0  id_manager.o ABSOLUTE
    ..\Driver\Libraries\Bluetooth\nrf_ble_gatt.c 0x00000000   Number         0  nrf_ble_gatt.o ABSOLUTE
    ..\Driver\Libraries\Bluetooth\nrf_ble_scan.c 0x00000000   Number         0  nrf_ble_scan.o ABSOLUTE
    ..\Driver\Libraries\Bluetooth\peer_data_storage.c 0x00000000   Number         0  peer_data_storage.o ABSOLUTE
    ..\Driver\Libraries\Bluetooth\peer_database.c 0x00000000   Number         0  peer_database.o ABSOLUTE
    ..\Driver\Libraries\Bluetooth\peer_id.c  0x00000000   Number         0  peer_id.o ABSOLUTE
    ..\Driver\Libraries\Bluetooth\peer_manager.c 0x00000000   Number         0  peer_manager.o ABSOLUTE
    ..\Driver\Libraries\Bluetooth\pm_buffer.c 0x00000000   Number         0  pm_buffer.o ABSOLUTE
    ..\Driver\Libraries\Bluetooth\security_dispatcher.c 0x00000000   Number         0  security_dispatcher.o ABSOLUTE
    ..\Driver\Libraries\Bluetooth\security_manager.c 0x00000000   Number         0  security_manager.o ABSOLUTE
    ..\Driver\Libraries\Components\Atomic\nrf_atomic.c 0x00000000   Number         0  nrf_atomic.o ABSOLUTE
    ..\Driver\Libraries\Components\Atomic_FIFO\nrf_atfifo.c 0x00000000   Number         0  nrf_atfifo.o ABSOLUTE
    ..\Driver\Libraries\Components\Atomic_Flags\nrf_atflags.c 0x00000000   Number         0  nrf_atflags.o ABSOLUTE
    ..\Driver\Libraries\Components\BSP\bsp.c 0x00000000   Number         0  bsp.o ABSOLUTE
    ..\Driver\Libraries\Components\BSP\bsp_btn_ble.c 0x00000000   Number         0  bsp_btn_ble.o ABSOLUTE
    ..\Driver\Libraries\Components\Balloc\nrf_balloc.c 0x00000000   Number         0  nrf_balloc.o ABSOLUTE
    ..\Driver\Libraries\Components\Button\app_button.c 0x00000000   Number         0  app_button.o ABSOLUTE
    ..\Driver\Libraries\Components\Experimental_section_vars\nrf_section_iter.c 0x00000000   Number         0  nrf_section_iter.o ABSOLUTE
    ..\Driver\Libraries\Components\FIFO\app_fifo.c 0x00000000   Number         0  app_fifo.o ABSOLUTE
    ..\Driver\Libraries\Components\Hardfault\hardfault_implementation.c 0x00000000   Number         0  hardfault_implementation.o ABSOLUTE
    ..\Driver\Libraries\Components\Log\nrf_log_backend_rtt.c 0x00000000   Number         0  nrf_log_backend_rtt.o ABSOLUTE
    ..\Driver\Libraries\Components\Log\nrf_log_backend_serial.c 0x00000000   Number         0  nrf_log_backend_serial.o ABSOLUTE
    ..\Driver\Libraries\Components\Log\nrf_log_backend_uart.c 0x00000000   Number         0  nrf_log_backend_uart.o ABSOLUTE
    ..\Driver\Libraries\Components\Log\nrf_log_default_backends.c 0x00000000   Number         0  nrf_log_default_backends.o ABSOLUTE
    ..\Driver\Libraries\Components\Log\nrf_log_frontend.c 0x00000000   Number         0  nrf_log_frontend.o ABSOLUTE
    ..\Driver\Libraries\Components\Log\nrf_log_str_formatter.c 0x00000000   Number         0  nrf_log_str_formatter.o ABSOLUTE
    ..\Driver\Libraries\Components\Memobj\nrf_memobj.c 0x00000000   Number         0  nrf_memobj.o ABSOLUTE
    ..\Driver\Libraries\Components\Pwr_mgmt\nrf_pwr_mgmt.c 0x00000000   Number         0  nrf_pwr_mgmt.o ABSOLUTE
    ..\Driver\Libraries\Components\Ringbuf\nrf_ringbuf.c 0x00000000   Number         0  nrf_ringbuf.o ABSOLUTE
    ..\Driver\Libraries\Components\Scheduler\app_scheduler.c 0x00000000   Number         0  app_scheduler.o ABSOLUTE
    ..\Driver\Libraries\Components\Strerror\nrf_strerror.c 0x00000000   Number         0  nrf_strerror.o ABSOLUTE
    ..\Driver\Libraries\Components\Timer\app_timer.c 0x00000000   Number         0  app_timer.o ABSOLUTE
    ..\Driver\Libraries\Components\UART\app_uart_fifo.c 0x00000000   Number         0  app_uart_fifo.o ABSOLUTE
    ..\Driver\Libraries\Components\Util\app_error.c 0x00000000   Number         0  app_error.o ABSOLUTE
    ..\Driver\Libraries\Components\Util\app_error_handler_keil.c 0x00000000   Number         0  app_error_handler_keil.o ABSOLUTE
    ..\Driver\Libraries\Components\Util\app_error_weak.c 0x00000000   Number         0  app_error_weak.o ABSOLUTE
    ..\Driver\Libraries\Components\Util\app_util_platform.c 0x00000000   Number         0  app_util_platform.o ABSOLUTE
    ..\Driver\Libraries\Components\Util\nrf_assert.c 0x00000000   Number         0  nrf_assert.o ABSOLUTE
    ..\Driver\Libraries\Components\fds\fds.c 0x00000000   Number         0  fds.o ABSOLUTE
    ..\Driver\Libraries\Components\fstorage\nrf_fstorage.c 0x00000000   Number         0  nrf_fstorage.o ABSOLUTE
    ..\Driver\Libraries\Components\fstorage\nrf_fstorage_sd.c 0x00000000   Number         0  nrf_fstorage_sd.o ABSOLUTE
    ..\Driver\Libraries\Peripheral Driver\legacy\nrf_drv_clock.c 0x00000000   Number         0  nrf_drv_clock.o ABSOLUTE
    ..\Driver\Libraries\Peripheral Driver\legacy\nrf_drv_uart.c 0x00000000   Number         0  nrf_drv_uart.o ABSOLUTE
    ..\Driver\Libraries\Peripheral Driver\nRFx\nrfx_atomic.c 0x00000000   Number         0  nrfx_atomic.o ABSOLUTE
    ..\Driver\Libraries\Peripheral Driver\nRFx\nrfx_clock.c 0x00000000   Number         0  nrfx_clock.o ABSOLUTE
    ..\Driver\Libraries\Peripheral Driver\nRFx\nrfx_gpiote.c 0x00000000   Number         0  nrfx_gpiote.o ABSOLUTE
    ..\Driver\Libraries\Peripheral Driver\nRFx\nrfx_prs.c 0x00000000   Number         0  nrfx_prs.o ABSOLUTE
    ..\Driver\Libraries\Peripheral Driver\nRFx\nrfx_uart.c 0x00000000   Number         0  nrfx_uart.o ABSOLUTE
    ..\Driver\Libraries\Peripheral Driver\nRFx\nrfx_uarte.c 0x00000000   Number         0  nrfx_uarte.o ABSOLUTE
    ..\Driver\Libraries\SoftDevice\common\nrf_sdh.c 0x00000000   Number         0  nrf_sdh.o ABSOLUTE
    ..\Driver\Libraries\SoftDevice\common\nrf_sdh_ble.c 0x00000000   Number         0  nrf_sdh_ble.o ABSOLUTE
    ..\Driver\Libraries\SoftDevice\common\nrf_sdh_soc.c 0x00000000   Number         0  nrf_sdh_soc.o ABSOLUTE
    ..\Driver\ThirdParty\Segger_RTT\SEGGER_RTT.c 0x00000000   Number         0  segger_rtt.o ABSOLUTE
    ..\Driver\ThirdParty\Segger_RTT\SEGGER_RTT_Syscalls_KEIL.c 0x00000000   Number         0  segger_rtt_syscalls_keil.o ABSOLUTE
    ..\Driver\ThirdParty\Segger_RTT\SEGGER_RTT_printf.c 0x00000000   Number         0  segger_rtt_printf.o ABSOLUTE
    ..\Driver\ThirdParty\fprintf\nrf_fprintf.c 0x00000000   Number         0  nrf_fprintf.o ABSOLUTE
    ..\Driver\ThirdParty\fprintf\nrf_fprintf_format.c 0x00000000   Number         0  nrf_fprintf_format.o ABSOLUTE
    ..\Source\BluetoothNetwork.c             0x00000000   Number         0  bluetoothnetwork.o ABSOLUTE
    ..\Source\Communication.c                0x00000000   Number         0  communication.o ABSOLUTE
    ..\Source\main.c                         0x00000000   Number         0  main.o ABSOLUTE
    ..\\Driver\\Boards\\boards.c             0x00000000   Number         0  boards.o ABSOLUTE
    ..\\Driver\\Libraries\\Bluetooth\\BLE_Service\\ble_nus_c.c 0x00000000   Number         0  ble_nus_c.o ABSOLUTE
    ..\\Driver\\Libraries\\Bluetooth\\ble_advdata.c 0x00000000   Number         0  ble_advdata.o ABSOLUTE
    ..\\Driver\\Libraries\\Bluetooth\\ble_advertising.c 0x00000000   Number         0  ble_advertising.o ABSOLUTE
    ..\\Driver\\Libraries\\Bluetooth\\ble_conn_state.c 0x00000000   Number         0  ble_conn_state.o ABSOLUTE
    ..\\Driver\\Libraries\\Bluetooth\\ble_db_discovery.c 0x00000000   Number         0  ble_db_discovery.o ABSOLUTE
    ..\\Driver\\Libraries\\Bluetooth\\ble_srv_common.c 0x00000000   Number         0  ble_srv_common.o ABSOLUTE
    ..\\Driver\\Libraries\\Bluetooth\\gatt_cache_manager.c 0x00000000   Number         0  gatt_cache_manager.o ABSOLUTE
    ..\\Driver\\Libraries\\Bluetooth\\gatts_cache_manager.c 0x00000000   Number         0  gatts_cache_manager.o ABSOLUTE
    ..\\Driver\\Libraries\\Bluetooth\\id_manager.c 0x00000000   Number         0  id_manager.o ABSOLUTE
    ..\\Driver\\Libraries\\Bluetooth\\nrf_ble_gatt.c 0x00000000   Number         0  nrf_ble_gatt.o ABSOLUTE
    ..\\Driver\\Libraries\\Bluetooth\\nrf_ble_scan.c 0x00000000   Number         0  nrf_ble_scan.o ABSOLUTE
    ..\\Driver\\Libraries\\Bluetooth\\peer_data_storage.c 0x00000000   Number         0  peer_data_storage.o ABSOLUTE
    ..\\Driver\\Libraries\\Bluetooth\\peer_database.c 0x00000000   Number         0  peer_database.o ABSOLUTE
    ..\\Driver\\Libraries\\Bluetooth\\peer_id.c 0x00000000   Number         0  peer_id.o ABSOLUTE
    ..\\Driver\\Libraries\\Bluetooth\\peer_manager.c 0x00000000   Number         0  peer_manager.o ABSOLUTE
    ..\\Driver\\Libraries\\Bluetooth\\pm_buffer.c 0x00000000   Number         0  pm_buffer.o ABSOLUTE
    ..\\Driver\\Libraries\\Bluetooth\\security_dispatcher.c 0x00000000   Number         0  security_dispatcher.o ABSOLUTE
    ..\\Driver\\Libraries\\Bluetooth\\security_manager.c 0x00000000   Number         0  security_manager.o ABSOLUTE
    ..\\Driver\\Libraries\\Components\\Atomic\\nrf_atomic.c 0x00000000   Number         0  nrf_atomic.o ABSOLUTE
    ..\\Driver\\Libraries\\Components\\Atomic_FIFO\\nrf_atfifo.c 0x00000000   Number         0  nrf_atfifo.o ABSOLUTE
    ..\\Driver\\Libraries\\Components\\Atomic_Flags\\nrf_atflags.c 0x00000000   Number         0  nrf_atflags.o ABSOLUTE
    ..\\Driver\\Libraries\\Components\\BSP\\bsp.c 0x00000000   Number         0  bsp.o ABSOLUTE
    ..\\Driver\\Libraries\\Components\\BSP\\bsp_btn_ble.c 0x00000000   Number         0  bsp_btn_ble.o ABSOLUTE
    ..\\Driver\\Libraries\\Components\\Balloc\\nrf_balloc.c 0x00000000   Number         0  nrf_balloc.o ABSOLUTE
    ..\\Driver\\Libraries\\Components\\Button\\app_button.c 0x00000000   Number         0  app_button.o ABSOLUTE
    ..\\Driver\\Libraries\\Components\\Experimental_section_vars\\nrf_section_iter.c 0x00000000   Number         0  nrf_section_iter.o ABSOLUTE
    ..\\Driver\\Libraries\\Components\\FIFO\\app_fifo.c 0x00000000   Number         0  app_fifo.o ABSOLUTE
    ..\\Driver\\Libraries\\Components\\Hardfault\\hardfault_implementation.c 0x00000000   Number         0  hardfault_implementation.o ABSOLUTE
    ..\\Driver\\Libraries\\Components\\Log\\nrf_log_backend_rtt.c 0x00000000   Number         0  nrf_log_backend_rtt.o ABSOLUTE
    ..\\Driver\\Libraries\\Components\\Log\\nrf_log_backend_serial.c 0x00000000   Number         0  nrf_log_backend_serial.o ABSOLUTE
    ..\\Driver\\Libraries\\Components\\Log\\nrf_log_backend_uart.c 0x00000000   Number         0  nrf_log_backend_uart.o ABSOLUTE
    ..\\Driver\\Libraries\\Components\\Log\\nrf_log_default_backends.c 0x00000000   Number         0  nrf_log_default_backends.o ABSOLUTE
    ..\\Driver\\Libraries\\Components\\Log\\nrf_log_frontend.c 0x00000000   Number         0  nrf_log_frontend.o ABSOLUTE
    ..\\Driver\\Libraries\\Components\\Log\\nrf_log_str_formatter.c 0x00000000   Number         0  nrf_log_str_formatter.o ABSOLUTE
    ..\\Driver\\Libraries\\Components\\Memobj\\nrf_memobj.c 0x00000000   Number         0  nrf_memobj.o ABSOLUTE
    ..\\Driver\\Libraries\\Components\\Pwr_mgmt\\nrf_pwr_mgmt.c 0x00000000   Number         0  nrf_pwr_mgmt.o ABSOLUTE
    ..\\Driver\\Libraries\\Components\\Ringbuf\\nrf_ringbuf.c 0x00000000   Number         0  nrf_ringbuf.o ABSOLUTE
    ..\\Driver\\Libraries\\Components\\Scheduler\\app_scheduler.c 0x00000000   Number         0  app_scheduler.o ABSOLUTE
    ..\\Driver\\Libraries\\Components\\Strerror\\nrf_strerror.c 0x00000000   Number         0  nrf_strerror.o ABSOLUTE
    ..\\Driver\\Libraries\\Components\\Timer\\app_timer.c 0x00000000   Number         0  app_timer.o ABSOLUTE
    ..\\Driver\\Libraries\\Components\\UART\\app_uart_fifo.c 0x00000000   Number         0  app_uart_fifo.o ABSOLUTE
    ..\\Driver\\Libraries\\Components\\Util\\app_error.c 0x00000000   Number         0  app_error.o ABSOLUTE
    ..\\Driver\\Libraries\\Components\\Util\\app_error_handler_keil.c 0x00000000   Number         0  app_error_handler_keil.o ABSOLUTE
    ..\\Driver\\Libraries\\Components\\Util\\app_error_weak.c 0x00000000   Number         0  app_error_weak.o ABSOLUTE
    ..\\Driver\\Libraries\\Components\\Util\\app_util_platform.c 0x00000000   Number         0  app_util_platform.o ABSOLUTE
    ..\\Driver\\Libraries\\Components\\Util\\nrf_assert.c 0x00000000   Number         0  nrf_assert.o ABSOLUTE
    ..\\Driver\\Libraries\\Components\\fds\\fds.c 0x00000000   Number         0  fds.o ABSOLUTE
    ..\\Driver\\Libraries\\Components\\fstorage\\nrf_fstorage.c 0x00000000   Number         0  nrf_fstorage.o ABSOLUTE
    ..\\Driver\\Libraries\\Components\\fstorage\\nrf_fstorage_sd.c 0x00000000   Number         0  nrf_fstorage_sd.o ABSOLUTE
    ..\\Driver\\Libraries\\Peripheral Driver\\legacy\\nrf_drv_clock.c 0x00000000   Number         0  nrf_drv_clock.o ABSOLUTE
    ..\\Driver\\Libraries\\Peripheral Driver\\legacy\\nrf_drv_uart.c 0x00000000   Number         0  nrf_drv_uart.o ABSOLUTE
    ..\\Driver\\Libraries\\Peripheral Driver\\nRFx\\nrfx_atomic.c 0x00000000   Number         0  nrfx_atomic.o ABSOLUTE
    ..\\Driver\\Libraries\\Peripheral Driver\\nRFx\\nrfx_clock.c 0x00000000   Number         0  nrfx_clock.o ABSOLUTE
    ..\\Driver\\Libraries\\Peripheral Driver\\nRFx\\nrfx_gpiote.c 0x00000000   Number         0  nrfx_gpiote.o ABSOLUTE
    ..\\Driver\\Libraries\\Peripheral Driver\\nRFx\\nrfx_prs.c 0x00000000   Number         0  nrfx_prs.o ABSOLUTE
    ..\\Driver\\Libraries\\Peripheral Driver\\nRFx\\nrfx_uart.c 0x00000000   Number         0  nrfx_uart.o ABSOLUTE
    ..\\Driver\\Libraries\\Peripheral Driver\\nRFx\\nrfx_uarte.c 0x00000000   Number         0  nrfx_uarte.o ABSOLUTE
    ..\\Driver\\Libraries\\SoftDevice\\common\\nrf_sdh.c 0x00000000   Number         0  nrf_sdh.o ABSOLUTE
    ..\\Driver\\Libraries\\SoftDevice\\common\\nrf_sdh_ble.c 0x00000000   Number         0  nrf_sdh_ble.o ABSOLUTE
    ..\\Driver\\Libraries\\SoftDevice\\common\\nrf_sdh_soc.c 0x00000000   Number         0  nrf_sdh_soc.o ABSOLUTE
    ..\\Driver\\ThirdParty\\Segger_RTT\\SEGGER_RTT.c 0x00000000   Number         0  segger_rtt.o ABSOLUTE
    ..\\Driver\\ThirdParty\\Segger_RTT\\SEGGER_RTT_printf.c 0x00000000   Number         0  segger_rtt_printf.o ABSOLUTE
    ..\\Driver\\ThirdParty\\fprintf\\nrf_fprintf.c 0x00000000   Number         0  nrf_fprintf.o ABSOLUTE
    ..\\Driver\\ThirdParty\\fprintf\\nrf_fprintf_format.c 0x00000000   Number         0  nrf_fprintf_format.o ABSOLUTE
    ..\\Source\\Communication.c              0x00000000   Number         0  communication.o ABSOLUTE
    ..\\Source\\main.c                       0x00000000   Number         0  main.o ABSOLUTE
    RTE\Device\nRF52832_xxAA\arm_startup_nrf52.s 0x00000000   Number         0  arm_startup_nrf52.o ABSOLUTE
    RTE\Device\nRF52832_xxAA\system_nrf52.c  0x00000000   Number         0  system_nrf52.o ABSOLUTE
    RTE\\Device\\nRF52832_xxAA\\system_nrf52.c 0x00000000   Number         0  system_nrf52.o ABSOLUTE
    dc.s                                     0x00000000   Number         0  dc.o ABSOLUTE
    handlers.s                               0x00000000   Number         0  handlers.o ABSOLUTE
    init.s                                   0x00000000   Number         0  init.o ABSOLUTE
    RESET                                    0x00026000   Section      512  arm_startup_nrf52.o(RESET)
    .ARM.Collect$$$$00000000                 0x00026200   Section        0  entry.o(.ARM.Collect$$$$00000000)
    .ARM.Collect$$$$00000001                 0x00026200   Section        4  entry2.o(.ARM.Collect$$$$00000001)
    .ARM.Collect$$$$00000004                 0x00026204   Section        4  entry5.o(.ARM.Collect$$$$00000004)
    .ARM.Collect$$$$00000008                 0x00026208   Section        0  entry7b.o(.ARM.Collect$$$$00000008)
    .ARM.Collect$$$$0000000A                 0x00026208   Section        0  entry8b.o(.ARM.Collect$$$$0000000A)
    .ARM.Collect$$$$0000000B                 0x00026208   Section        8  entry9a.o(.ARM.Collect$$$$0000000B)
    .ARM.Collect$$$$0000000D                 0x00026210   Section        0  entry10a.o(.ARM.Collect$$$$0000000D)
    .ARM.Collect$$$$0000000F                 0x00026210   Section        0  entry11a.o(.ARM.Collect$$$$0000000F)
    .ARM.Collect$$$$00002712                 0x00026210   Section        4  entry2.o(.ARM.Collect$$$$00002712)
    __lit__00000000                          0x00026210   Data           4  entry2.o(.ARM.Collect$$$$00002712)
    .emb_text                                0x00026214   Section      226  nrf_atomic.o(.emb_text)
    $v0                                      0x00026214   Number         0  nrf_atomic.o(.emb_text)
    .emb_text                                0x000262f8   Section      200  nrf_atfifo.o(.emb_text)
    $v0                                      0x000262f8   Number         0  nrf_atfifo.o(.emb_text)
    .text                                    0x000263c0   Section       36  arm_startup_nrf52.o(.text)
    $v0                                      0x000263c0   Number         0  arm_startup_nrf52.o(.text)
    .text                                    0x000263e4   Section        0  uldiv.o(.text)
    .text                                    0x00026446   Section        0  llshl.o(.text)
    .text                                    0x00026464   Section        0  ctype_o.o(.text)
    .text                                    0x0002646c   Section        0  memcpya.o(.text)
    .text                                    0x00026490   Section        0  memseta.o(.text)
    .text                                    0x000264b4   Section        0  strlen.o(.text)
    .text                                    0x000264c2   Section        0  memcmp.o(.text)
    .text                                    0x000264dc   Section        0  strcpy.o(.text)
    .text                                    0x000264ee   Section        0  llushr.o(.text)
    .text                                    0x00026510   Section       36  init.o(.text)
    .text                                    0x00026534   Section        0  __dczerorl2.o(.text)
    i.BLEEvent_handler                       0x0002658c   Section        0  communication.o(i.BLEEvent_handler)
    BLEEvent_handler                         0x0002658d   Thumb Code   342  communication.o(i.BLEEvent_handler)
    i.BLE_Discovery_Initialization           0x000267e8   Section        0  communication.o(i.BLE_Discovery_Initialization)
    i.BLE_NUS_UARTRxPrint                    0x00026804   Section        0  communication.o(i.BLE_NUS_UARTRxPrint)
    BLE_NUS_UARTRxPrint                      0x00026805   Thumb Code   148  communication.o(i.BLE_NUS_UARTRxPrint)
    i.BLE_NUScEvent_handler                  0x00026908   Section        0  communication.o(i.BLE_NUScEvent_handler)
    BLE_NUScEvent_handler                    0x00026909   Thumb Code   112  communication.o(i.BLE_NUScEvent_handler)
    i.BLE_ProtocolStack_Initialization       0x000269d4   Section        0  communication.o(i.BLE_ProtocolStack_Initialization)
    i.BLE_Scan_Initialization                0x00026a04   Section        0  communication.o(i.BLE_Scan_Initialization)
    i.BLE_Scan_Start                         0x00026a5c   Section        0  communication.o(i.BLE_Scan_Start)
    i.DiscoveryEvent_handler                 0x00026a84   Section        0  communication.o(i.DiscoveryEvent_handler)
    DiscoveryEvent_handler                   0x00026a85   Thumb Code    46  communication.o(i.DiscoveryEvent_handler)
    i.GPIOTE_IRQHandler                      0x00026b00   Section        0  nrfx_gpiote.o(i.GPIOTE_IRQHandler)
    i.NUSc_Initialization                    0x00026c64   Section        0  communication.o(i.NUSc_Initialization)
    i.NVIC_ClearPendingIRQ                   0x00026c90   Section        0  app_timer.o(i.NVIC_ClearPendingIRQ)
    NVIC_ClearPendingIRQ                     0x00026c91   Thumb Code    22  app_timer.o(i.NVIC_ClearPendingIRQ)
    i.NVIC_EnableIRQ                         0x00026ca6   Section        0  app_timer.o(i.NVIC_EnableIRQ)
    NVIC_EnableIRQ                           0x00026ca7   Thumb Code    22  app_timer.o(i.NVIC_EnableIRQ)
    i.NVIC_SetPendingIRQ                     0x00026cbc   Section        0  app_timer.o(i.NVIC_SetPendingIRQ)
    NVIC_SetPendingIRQ                       0x00026cbd   Thumb Code    22  app_timer.o(i.NVIC_SetPendingIRQ)
    i.NVIC_SetPriority                       0x00026cd2   Section        0  app_timer.o(i.NVIC_SetPriority)
    NVIC_SetPriority                         0x00026cd3   Thumb Code    32  app_timer.o(i.NVIC_SetPriority)
    i.POWER_CLOCK_IRQHandler                 0x00026cf4   Section        0  nrfx_clock.o(i.POWER_CLOCK_IRQHandler)
    i.RTC1_IRQHandler                        0x00026d4c   Section        0  app_timer.o(i.RTC1_IRQHandler)
    i.SEGGER_RTT_Init                        0x00026d70   Section        0  segger_rtt.o(i.SEGGER_RTT_Init)
    i.SEGGER_RTT_WriteNoLock                 0x00026d74   Section        0  segger_rtt.o(i.SEGGER_RTT_WriteNoLock)
    i.SWI0_EGU0_IRQHandler                   0x00026dd0   Section        0  app_timer.o(i.SWI0_EGU0_IRQHandler)
    i.SWI2_EGU2_IRQHandler                   0x00026dd4   Section        0  nrf_sdh.o(i.SWI2_EGU2_IRQHandler)
    i.ScanEvent_handler                      0x00026dd8   Section        0  communication.o(i.ScanEvent_handler)
    ScanEvent_handler                        0x00026dd9   Thumb Code    88  communication.o(i.ScanEvent_handler)
    i.SystemInit                             0x00026e78   Section        0  system_nrf52.o(i.SystemInit)
    i.TestingFnc                             0x00027194   Section        0  communication.o(i.TestingFnc)
    i.UARTE0_UART0_IRQHandler                0x000271fc   Section        0  nrfx_prs.o(i.UARTE0_UART0_IRQHandler)
    i.UARTEvent_handler                      0x00027208   Section        0  communication.o(i.UARTEvent_handler)
    UARTEvent_handler                        0x00027209   Thumb Code   148  communication.o(i.UARTEvent_handler)
    i.UART_Initialization                    0x0002732c   Section        0  communication.o(i.UART_Initialization)
    i._DoInit                                0x00027374   Section        0  segger_rtt.o(i._DoInit)
    _DoInit                                  0x00027375   Thumb Code    76  segger_rtt.o(i._DoInit)
    i._GetAvailWriteSpace                    0x000273dc   Section        0  segger_rtt.o(i._GetAvailWriteSpace)
    _GetAvailWriteSpace                      0x000273dd   Thumb Code    22  segger_rtt.o(i._GetAvailWriteSpace)
    i._WriteBlocking                         0x000273f2   Section        0  segger_rtt.o(i._WriteBlocking)
    _WriteBlocking                           0x000273f3   Thumb Code    90  segger_rtt.o(i._WriteBlocking)
    i._WriteNoCheck                          0x0002744c   Section        0  segger_rtt.o(i._WriteNoCheck)
    _WriteNoCheck                            0x0002744d   Thumb Code    66  segger_rtt.o(i._WriteNoCheck)
    i.__scatterload_copy                     0x0002748e   Section       14  handlers.o(i.__scatterload_copy)
    i.__scatterload_null                     0x0002749c   Section        2  handlers.o(i.__scatterload_null)
    i.__scatterload_zeroinit                 0x0002749e   Section       14  handlers.o(i.__scatterload_zeroinit)
    i.__sd_nvic_app_accessible_irq           0x000274ac   Section        0  nrf_sdh.o(i.__sd_nvic_app_accessible_irq)
    __sd_nvic_app_accessible_irq             0x000274ad   Thumb Code    32  nrf_sdh.o(i.__sd_nvic_app_accessible_irq)
    i.active_flag_count                      0x000274d0   Section        0  ble_conn_state.o(i.active_flag_count)
    i.addr_compare                           0x000274ec   Section        0  id_manager.o(i.addr_compare)
    i.addr_is_aligned32                      0x00027512   Section        0  nrf_fstorage.o(i.addr_is_aligned32)
    addr_is_aligned32                        0x00027513   Thumb Code    12  nrf_fstorage.o(i.addr_is_aligned32)
    i.addr_is_within_bounds                  0x0002751e   Section        0  nrf_fstorage.o(i.addr_is_within_bounds)
    addr_is_within_bounds                    0x0002751f   Thumb Code    24  nrf_fstorage.o(i.addr_is_within_bounds)
    i.advertising_buttons_configure          0x00027536   Section        0  bsp_btn_ble.o(i.advertising_buttons_configure)
    advertising_buttons_configure            0x00027537   Thumb Code    54  bsp_btn_ble.o(i.advertising_buttons_configure)
    i.ah                                     0x0002756c   Section        0  id_manager.o(i.ah)
    i.alert_timer_handler                    0x000275be   Section        0  bsp.o(i.alert_timer_handler)
    alert_timer_handler                      0x000275bf   Thumb Code     6  bsp.o(i.alert_timer_handler)
    i.allow_repairing                        0x000275c4   Section        0  security_dispatcher.o(i.allow_repairing)
    allow_repairing                          0x000275c5   Thumb Code     8  security_dispatcher.o(i.allow_repairing)
    i.app_button_disable                     0x000275d0   Section        0  app_button.o(i.app_button_disable)
    i.app_button_enable                      0x00027600   Section        0  app_button.o(i.app_button_enable)
    i.app_button_init                        0x00027624   Section        0  app_button.o(i.app_button_init)
    i.app_error_fault_handler                0x0002769c   Section        0  app_error_weak.o(i.app_error_fault_handler)
    i.app_error_handler_bare                 0x00027720   Section        0  app_error.o(i.app_error_handler_bare)
    i.app_fifo_get                           0x00027736   Section        0  app_fifo.o(i.app_fifo_get)
    i.app_fifo_init                          0x0002774c   Section        0  app_fifo.o(i.app_fifo_init)
    i.app_fifo_put                           0x0002776c   Section        0  app_fifo.o(i.app_fifo_put)
    i.app_timer_create                       0x00027788   Section        0  app_timer.o(i.app_timer_create)
    i.app_timer_init                         0x000277b0   Section        0  app_timer.o(i.app_timer_init)
    i.app_timer_start                        0x00027804   Section        0  app_timer.o(i.app_timer_start)
    i.app_timer_stop                         0x0002788c   Section        0  app_timer.o(i.app_timer_stop)
    i.app_uart_get                           0x000278ac   Section        0  app_uart_fifo.o(i.app_uart_get)
    i.app_uart_init                          0x000278e0   Section        0  app_uart_fifo.o(i.app_uart_init)
    i.app_uart_put                           0x00027984   Section        0  app_uart_fifo.o(i.app_uart_put)
    i.app_util_critical_region_enter         0x000279d8   Section        0  app_util_platform.o(i.app_util_critical_region_enter)
    i.app_util_critical_region_exit          0x00027a20   Section        0  app_util_platform.o(i.app_util_critical_region_exit)
    i.apply_config                           0x00027a54   Section        0  nrfx_uart.o(i.apply_config)
    apply_config                             0x00027a55   Thumb Code   136  nrfx_uart.o(i.apply_config)
    i.apply_config                           0x00027adc   Section        0  nrfx_uarte.o(i.apply_config)
    apply_config                             0x00027add   Thumb Code   136  nrfx_uarte.o(i.apply_config)
    i.apply_pending_handle                   0x00027b64   Section        0  gatt_cache_manager.o(i.apply_pending_handle)
    apply_pending_handle                     0x00027b65   Thumb Code     4  gatt_cache_manager.o(i.apply_pending_handle)
    i.auth_status_success_process            0x00027b68   Section        0  security_dispatcher.o(i.auth_status_success_process)
    auth_status_success_process              0x00027b69   Thumb Code   306  security_dispatcher.o(i.auth_status_success_process)
    i.bcs_internal_state_reset               0x00027ce8   Section        0  ble_conn_state.o(i.bcs_internal_state_reset)
    i.ble_advdata_search                     0x00027cf4   Section        0  ble_advdata.o(i.ble_advdata_search)
    i.ble_advdata_uuid_find                  0x00027d2c   Section        0  ble_advdata.o(i.ble_advdata_uuid_find)
    i.ble_conn_state_central_conn_count      0x00027de4   Section        0  ble_conn_state.o(i.ble_conn_state_central_conn_count)
    i.ble_conn_state_encrypted               0x00027e00   Section        0  ble_conn_state.o(i.ble_conn_state_encrypted)
    i.ble_conn_state_for_each_set_user_flag  0x00027e20   Section        0  ble_conn_state.o(i.ble_conn_state_for_each_set_user_flag)
    i.ble_conn_state_init                    0x00027e4c   Section        0  ble_conn_state.o(i.ble_conn_state_init)
    i.ble_conn_state_role                    0x00027e50   Section        0  ble_conn_state.o(i.ble_conn_state_role)
    i.ble_conn_state_user_flag_acquire       0x00027e74   Section        0  ble_conn_state.o(i.ble_conn_state_user_flag_acquire)
    i.ble_conn_state_user_flag_get           0x00027e8c   Section        0  ble_conn_state.o(i.ble_conn_state_user_flag_get)
    i.ble_conn_state_user_flag_set           0x00027ebc   Section        0  ble_conn_state.o(i.ble_conn_state_user_flag_set)
    i.ble_conn_state_valid                   0x00027efc   Section        0  ble_conn_state.o(i.ble_conn_state_valid)
    i.ble_db_discovery_evt_register          0x00027f10   Section        0  ble_db_discovery.o(i.ble_db_discovery_evt_register)
    i.ble_db_discovery_init                  0x00027f50   Section        0  ble_db_discovery.o(i.ble_db_discovery_init)
    i.ble_db_discovery_on_ble_evt            0x00027f6c   Section        0  ble_db_discovery.o(i.ble_db_discovery_on_ble_evt)
    i.ble_db_discovery_start                 0x00027ffc   Section        0  ble_db_discovery.o(i.ble_db_discovery_start)
    i.ble_evt_handler                        0x00028024   Section        0  bsp_btn_ble.o(i.ble_evt_handler)
    ble_evt_handler                          0x00028025   Thumb Code   106  bsp_btn_ble.o(i.ble_evt_handler)
    i.ble_evt_handler                        0x00028094   Section        0  ble_conn_state.o(i.ble_evt_handler)
    ble_evt_handler                          0x00028095   Thumb Code   254  ble_conn_state.o(i.ble_evt_handler)
    i.ble_evt_handler                        0x00028198   Section        0  peer_manager.o(i.ble_evt_handler)
    ble_evt_handler                          0x00028199   Thumb Code    36  peer_manager.o(i.ble_evt_handler)
    i.ble_nus_c_handles_assign               0x000281c0   Section        0  ble_nus_c.o(i.ble_nus_c_handles_assign)
    i.ble_nus_c_init                         0x000281dc   Section        0  ble_nus_c.o(i.ble_nus_c_init)
    i.ble_nus_c_on_ble_evt                   0x00028228   Section        0  ble_nus_c.o(i.ble_nus_c_on_ble_evt)
    i.ble_nus_c_on_db_disc_evt               0x000282d0   Section        0  ble_nus_c.o(i.ble_nus_c_on_db_disc_evt)
    i.ble_nus_c_string_send                  0x00028350   Section        0  ble_nus_c.o(i.ble_nus_c_string_send)
    i.ble_nus_c_tx_notif_enable              0x000283e4   Section        0  ble_nus_c.o(i.ble_nus_c_tx_notif_enable)
    i.bsp_board_button_state_get             0x0002842c   Section        0  boards.o(i.bsp_board_button_state_get)
    i.bsp_board_init                         0x0002844c   Section        0  boards.o(i.bsp_board_init)
    i.bsp_board_led_invert                   0x000284a0   Section        0  boards.o(i.bsp_board_led_invert)
    i.bsp_board_led_off                      0x000284c4   Section        0  boards.o(i.bsp_board_led_off)
    i.bsp_board_led_on                       0x000284d4   Section        0  boards.o(i.bsp_board_led_on)
    i.bsp_board_led_state_get                0x000284e4   Section        0  boards.o(i.bsp_board_led_state_get)
    i.bsp_board_leds_off                     0x00028504   Section        0  boards.o(i.bsp_board_leds_off)
    i.bsp_board_leds_on                      0x00028516   Section        0  boards.o(i.bsp_board_leds_on)
    i.bsp_board_pin_to_button_idx            0x00028528   Section        0  boards.o(i.bsp_board_pin_to_button_idx)
    i.bsp_btn_ble_init                       0x0002854c   Section        0  bsp_btn_ble.o(i.bsp_btn_ble_init)
    i.bsp_button_event_handler               0x00028584   Section        0  bsp.o(i.bsp_button_event_handler)
    bsp_button_event_handler                 0x00028585   Thumb Code   132  bsp.o(i.bsp_button_event_handler)
    i.bsp_button_is_pressed                  0x00028614   Section        0  bsp.o(i.bsp_button_is_pressed)
    i.bsp_event_handler                      0x00028620   Section        0  main.o(i.bsp_event_handler)
    i.bsp_event_to_button_action_assign      0x00028644   Section        0  bsp.o(i.bsp_event_to_button_action_assign)
    i.bsp_indication_set                     0x00028688   Section        0  bsp.o(i.bsp_indication_set)
    i.bsp_init                               0x000286a0   Section        0  bsp.o(i.bsp_init)
    i.bsp_led_indication                     0x00028734   Section        0  bsp.o(i.bsp_led_indication)
    bsp_led_indication                       0x00028735   Thumb Code   446  bsp.o(i.bsp_led_indication)
    i.buf_prealloc                           0x000288fc   Section        0  nrf_log_frontend.o(i.buf_prealloc)
    buf_prealloc                             0x000288fd   Thumb Code   138  nrf_log_frontend.o(i.buf_prealloc)
    i.buffer_add                             0x0002898c   Section        0  nrf_fprintf_format.o(i.buffer_add)
    buffer_add                               0x0002898d   Thumb Code    46  nrf_fprintf_format.o(i.buffer_add)
    i.buffer_is_empty                        0x000289bc   Section        0  nrf_log_frontend.o(i.buffer_is_empty)
    i.button_timer_handler                   0x000289d0   Section        0  bsp.o(i.button_timer_handler)
    button_timer_handler                     0x000289d1   Thumb Code     8  bsp.o(i.button_timer_handler)
    i.car_update_needed                      0x000289d8   Section        0  gatt_cache_manager.o(i.car_update_needed)
    car_update_needed                        0x000289d9   Thumb Code    36  gatt_cache_manager.o(i.car_update_needed)
    i.car_update_pending_handle              0x00028a00   Section        0  gatt_cache_manager.o(i.car_update_pending_handle)
    car_update_pending_handle                0x00028a01   Thumb Code    54  gatt_cache_manager.o(i.car_update_pending_handle)
    i.channel_free                           0x00028a40   Section        0  nrfx_gpiote.o(i.channel_free)
    channel_free                             0x00028a41   Thumb Code    22  nrfx_gpiote.o(i.channel_free)
    i.channel_port_alloc                     0x00028a5c   Section        0  nrfx_gpiote.o(i.channel_port_alloc)
    channel_port_alloc                       0x00028a5d   Thumb Code    66  nrfx_gpiote.o(i.channel_port_alloc)
    i.channel_port_get                       0x00028aa4   Section        0  nrfx_gpiote.o(i.channel_port_get)
    channel_port_get                         0x00028aa5   Thumb Code    10  nrfx_gpiote.o(i.channel_port_get)
    i.characteristics_discover               0x00028ab4   Section        0  ble_db_discovery.o(i.characteristics_discover)
    characteristics_discover                 0x00028ab5   Thumb Code    66  ble_db_discovery.o(i.characteristics_discover)
    i.claim                                  0x00028af6   Section        0  peer_id.o(i.claim)
    claim                                    0x00028af7   Thumb Code    62  peer_id.o(i.claim)
    i.clock_clk_started_notify               0x00028b34   Section        0  nrf_drv_clock.o(i.clock_clk_started_notify)
    clock_clk_started_notify                 0x00028b35   Thumb Code    34  nrf_drv_clock.o(i.clock_clk_started_notify)
    i.clock_irq_handler                      0x00028b5c   Section        0  nrf_drv_clock.o(i.clock_irq_handler)
    clock_irq_handler                        0x00028b5d   Thumb Code    24  nrf_drv_clock.o(i.clock_irq_handler)
    i.compare_reg_update                     0x00028b78   Section        0  app_timer.o(i.compare_reg_update)
    compare_reg_update                       0x00028b79   Thumb Code   160  app_timer.o(i.compare_reg_update)
    i.conn_handle_list_get                   0x00028c24   Section        0  ble_conn_state.o(i.conn_handle_list_get)
    i.conn_sec_failure                       0x00028c64   Section        0  security_dispatcher.o(i.conn_sec_failure)
    conn_sec_failure                         0x00028c65   Thumb Code    60  security_dispatcher.o(i.conn_sec_failure)
    i.data_length_update                     0x00028ca8   Section        0  nrf_ble_gatt.o(i.data_length_update)
    data_length_update                       0x00028ca9   Thumb Code   128  nrf_ble_gatt.o(i.data_length_update)
    i.db_update_pending_handle               0x00028da8   Section        0  gatt_cache_manager.o(i.db_update_pending_handle)
    db_update_pending_handle                 0x00028da9   Thumb Code    42  gatt_cache_manager.o(i.db_update_pending_handle)
    i.delete_execute                         0x00028dd8   Section        0  fds.o(i.delete_execute)
    delete_execute                           0x00028dd9   Thumb Code   124  fds.o(i.delete_execute)
    i.descriptors_discover                   0x00028e58   Section        0  ble_db_discovery.o(i.descriptors_discover)
    descriptors_discover                     0x00028e59   Thumb Code   140  ble_db_discovery.o(i.descriptors_discover)
    i.detection_delay_timeout_handler        0x00028ee4   Section        0  app_button.o(i.detection_delay_timeout_handler)
    detection_delay_timeout_handler          0x00028ee5   Thumb Code   150  app_button.o(i.detection_delay_timeout_handler)
    i.discovery_complete_evt_trigger         0x00028f80   Section        0  ble_db_discovery.o(i.discovery_complete_evt_trigger)
    discovery_complete_evt_trigger           0x00028f81   Thumb Code   134  ble_db_discovery.o(i.discovery_complete_evt_trigger)
    i.discovery_error_evt_trigger            0x00029010   Section        0  ble_db_discovery.o(i.discovery_error_evt_trigger)
    discovery_error_evt_trigger              0x00029011   Thumb Code    56  ble_db_discovery.o(i.discovery_error_evt_trigger)
    i.discovery_start                        0x0002904c   Section        0  ble_db_discovery.o(i.discovery_start)
    discovery_start                          0x0002904d   Thumb Code   106  ble_db_discovery.o(i.discovery_start)
    i.dropped_sat16_get                      0x000290cc   Section        0  nrf_log_frontend.o(i.dropped_sat16_get)
    dropped_sat16_get                        0x000290cd   Thumb Code    16  nrf_log_frontend.o(i.dropped_sat16_get)
    i.elapsed_ticks_acquire                  0x000290e0   Section        0  app_timer.o(i.elapsed_ticks_acquire)
    elapsed_ticks_acquire                    0x000290e1   Thumb Code    58  app_timer.o(i.elapsed_ticks_acquire)
    i.encryption_failure                     0x00029120   Section        0  security_dispatcher.o(i.encryption_failure)
    encryption_failure                       0x00029121   Thumb Code    10  security_dispatcher.o(i.encryption_failure)
    i.erase                                  0x0002912c   Section        0  nrf_fstorage_sd.o(i.erase)
    erase                                    0x0002912d   Thumb Code    72  nrf_fstorage_sd.o(i.erase)
    i.event_prepare                          0x00029178   Section        0  fds.o(i.event_prepare)
    event_prepare                            0x00029179   Thumb Code   116  fds.o(i.event_prepare)
    i.event_send                             0x000291ec   Section        0  fds.o(i.event_send)
    event_send                               0x000291ed   Thumb Code    26  fds.o(i.event_send)
    i.event_send                             0x0002920c   Section        0  nrf_fstorage_sd.o(i.event_send)
    event_send                               0x0002920d   Thumb Code    84  nrf_fstorage_sd.o(i.event_send)
    i.events_send_from_err_code              0x00029260   Section        0  security_manager.o(i.events_send_from_err_code)
    events_send_from_err_code                0x00029261   Thumb Code   156  security_manager.o(i.events_send_from_err_code)
    i.evt_send                               0x0002930c   Section        0  peer_manager.o(i.evt_send)
    evt_send                                 0x0002930d   Thumb Code    36  peer_manager.o(i.evt_send)
    i.evt_send                               0x00029338   Section        0  gatt_cache_manager.o(i.evt_send)
    evt_send                                 0x00029339   Thumb Code    24  gatt_cache_manager.o(i.evt_send)
    i.evt_send                               0x00029354   Section        0  gatts_cache_manager.o(i.evt_send)
    evt_send                                 0x00029355   Thumb Code    24  gatts_cache_manager.o(i.evt_send)
    i.evt_send                               0x00029370   Section        0  security_dispatcher.o(i.evt_send)
    evt_send                                 0x00029371   Thumb Code    24  security_dispatcher.o(i.evt_send)
    i.evt_send                               0x0002938c   Section        0  security_manager.o(i.evt_send)
    evt_send                                 0x0002938d   Thumb Code     6  security_manager.o(i.evt_send)
    i.fds_evt_handler                        0x00029398   Section        0  peer_data_storage.o(i.fds_evt_handler)
    fds_evt_handler                          0x00029399   Thumb Code   230  peer_data_storage.o(i.fds_evt_handler)
    i.fds_file_delete                        0x00029484   Section        0  fds.o(i.fds_file_delete)
    i.fds_init                               0x000294c8   Section        0  fds.o(i.fds_init)
    i.fds_record_close                       0x000295a8   Section        0  fds.o(i.fds_record_close)
    i.fds_record_find                        0x000295e8   Section        0  fds.o(i.fds_record_find)
    i.fds_record_find_by_key                 0x000295f6   Section        0  fds.o(i.fds_record_find_by_key)
    i.fds_record_find_in_file                0x00029606   Section        0  fds.o(i.fds_record_find_in_file)
    i.fds_record_id_from_desc                0x00029616   Section        0  fds.o(i.fds_record_id_from_desc)
    i.fds_record_open                        0x00029628   Section        0  fds.o(i.fds_record_open)
    i.fds_record_update                      0x00029670   Section        0  fds.o(i.fds_record_update)
    i.fds_record_write                       0x0002967e   Section        0  fds.o(i.fds_record_write)
    i.fds_register                           0x00029688   Section        0  fds.o(i.fds_register)
    i.fifo_get                               0x000296b4   Section        0  app_fifo.o(i.fifo_get)
    fifo_get                                 0x000296b5   Thumb Code    20  app_fifo.o(i.fifo_get)
    i.fifo_put                               0x000296c8   Section        0  app_fifo.o(i.fifo_put)
    fifo_put                                 0x000296c9   Thumb Code    18  app_fifo.o(i.fifo_put)
    i.file_id_within_pm_range                0x000296da   Section        0  peer_data_storage.o(i.file_id_within_pm_range)
    file_id_within_pm_range                  0x000296db   Thumb Code    20  peer_data_storage.o(i.file_id_within_pm_range)
    i.flag_id_init                           0x000296ee   Section        0  security_dispatcher.o(i.flag_id_init)
    flag_id_init                             0x000296ef   Thumb Code    18  security_dispatcher.o(i.flag_id_init)
    i.flag_id_init                           0x00029700   Section        0  security_manager.o(i.flag_id_init)
    flag_id_init                             0x00029701   Thumb Code    18  security_manager.o(i.flag_id_init)
    i.flags_set_from_err_code                0x00029714   Section        0  security_manager.o(i.flags_set_from_err_code)
    flags_set_from_err_code                  0x00029715   Thumb Code    42  security_manager.o(i.flags_set_from_err_code)
    i.for_each_set_flag                      0x00029744   Section        0  ble_conn_state.o(i.for_each_set_flag)
    for_each_set_flag                        0x00029745   Thumb Code    48  ble_conn_state.o(i.for_each_set_flag)
    i.fs_event_handler                       0x00029774   Section        0  fds.o(i.fs_event_handler)
    fs_event_handler                         0x00029775   Thumb Code     6  fds.o(i.fs_event_handler)
    i.gc_execute                             0x0002977c   Section        0  fds.o(i.gc_execute)
    gc_execute                               0x0002977d   Thumb Code   120  fds.o(i.gc_execute)
    i.gc_next_page                           0x000297f8   Section        0  fds.o(i.gc_next_page)
    gc_next_page                             0x000297f9   Thumb Code    70  fds.o(i.gc_next_page)
    i.gc_page_erase                          0x00029844   Section        0  fds.o(i.gc_page_erase)
    gc_page_erase                            0x00029845   Thumb Code    50  fds.o(i.gc_page_erase)
    i.gc_record_copy                         0x00029884   Section        0  fds.o(i.gc_record_copy)
    gc_record_copy                           0x00029885   Thumb Code    40  fds.o(i.gc_record_copy)
    i.gc_record_find_next                    0x000298b8   Section        0  fds.o(i.gc_record_find_next)
    gc_record_find_next                      0x000298b9   Thumb Code    30  fds.o(i.gc_record_find_next)
    i.gc_state_advance                       0x000298dc   Section        0  fds.o(i.gc_state_advance)
    gc_state_advance                         0x000298dd   Thumb Code   126  fds.o(i.gc_state_advance)
    i.gcm_ble_evt_handler                    0x00029964   Section        0  gatt_cache_manager.o(i.gcm_ble_evt_handler)
    i.gcm_im_evt_handler                     0x00029b94   Section        0  gatt_cache_manager.o(i.gcm_im_evt_handler)
    i.gcm_init                               0x00029bd0   Section        0  gatt_cache_manager.o(i.gcm_init)
    i.gcm_pdb_evt_handler                    0x00029c64   Section        0  gatt_cache_manager.o(i.gcm_pdb_evt_handler)
    i.gpiote_event_handler                   0x00029cec   Section        0  app_button.o(i.gpiote_event_handler)
    gpiote_event_handler                     0x00029ced   Thumb Code   122  app_button.o(i.gpiote_event_handler)
    i.gscm_db_change_notification_done       0x00029d70   Section        0  gatts_cache_manager.o(i.gscm_db_change_notification_done)
    i.gscm_init                              0x00029d8c   Section        0  gatts_cache_manager.o(i.gscm_init)
    i.gscm_local_db_cache_apply              0x00029da0   Section        0  gatts_cache_manager.o(i.gscm_local_db_cache_apply)
    i.gscm_local_db_cache_update             0x00029e30   Section        0  gatts_cache_manager.o(i.gscm_local_db_cache_update)
    i.gscm_pdb_evt_handler                   0x00029edc   Section        0  gatts_cache_manager.o(i.gscm_pdb_evt_handler)
    i.gscm_service_changed_ind_needed        0x00029ef4   Section        0  gatts_cache_manager.o(i.gscm_service_changed_ind_needed)
    i.gscm_service_changed_ind_send          0x00029f14   Section        0  gatts_cache_manager.o(i.gscm_service_changed_ind_send)
    i.header_check                           0x00029f70   Section        0  fds.o(i.header_check)
    header_check                             0x00029f71   Thumb Code    38  fds.o(i.header_check)
    i.header_has_next                        0x00029f96   Section        0  fds.o(i.header_has_next)
    header_has_next                          0x00029f97   Thumb Code    18  fds.o(i.header_has_next)
    i.im_address_resolve                     0x00029fa8   Section        0  id_manager.o(i.im_address_resolve)
    i.im_ble_addr_get                        0x00029ff0   Section        0  id_manager.o(i.im_ble_addr_get)
    i.im_ble_evt_handler                     0x0002a028   Section        0  id_manager.o(i.im_ble_evt_handler)
    i.im_conn_handle_get                     0x0002a104   Section        0  id_manager.o(i.im_conn_handle_get)
    i.im_find_duplicate_bonding_data         0x0002a144   Section        0  id_manager.o(i.im_find_duplicate_bonding_data)
    i.im_is_duplicate_bonding_data           0x0002a17c   Section        0  id_manager.o(i.im_is_duplicate_bonding_data)
    i.im_master_id_is_valid                  0x0002a1ee   Section        0  id_manager.o(i.im_master_id_is_valid)
    i.im_master_ids_compare                  0x0002a206   Section        0  id_manager.o(i.im_master_ids_compare)
    i.im_new_peer_id                         0x0002a230   Section        0  id_manager.o(i.im_new_peer_id)
    i.im_peer_free                           0x0002a244   Section        0  id_manager.o(i.im_peer_free)
    i.im_peer_id_get_by_conn_handle          0x0002a270   Section        0  id_manager.o(i.im_peer_id_get_by_conn_handle)
    i.im_peer_id_get_by_master_id            0x0002a294   Section        0  id_manager.o(i.im_peer_id_get_by_master_id)
    i.init                                   0x0002a2d0   Section        0  nrf_fstorage_sd.o(i.init)
    init                                     0x0002a2d1   Thumb Code    42  nrf_fstorage_sd.o(i.init)
    i.init_execute                           0x0002a304   Section        0  fds.o(i.init_execute)
    init_execute                             0x0002a305   Thumb Code   186  fds.o(i.init_execute)
    i.int_print                              0x0002a3cc   Section        0  nrf_fprintf_format.o(i.int_print)
    int_print                                0x0002a3cd   Thumb Code   166  nrf_fprintf_format.o(i.int_print)
    i.interrupts_enable                      0x0002a474   Section        0  nrfx_uarte.o(i.interrupts_enable)
    interrupts_enable                        0x0002a475   Thumb Code   118  nrfx_uarte.o(i.interrupts_enable)
    i.invalid_packets_omit                   0x0002a4f0   Section        0  nrf_log_frontend.o(i.invalid_packets_omit)
    invalid_packets_omit                     0x0002a4f1   Thumb Code    52  nrf_log_frontend.o(i.invalid_packets_omit)
    i.is_busy                                0x0002a524   Section        0  nrf_fstorage_sd.o(i.is_busy)
    is_busy                                  0x0002a525   Thumb Code    12  nrf_fstorage_sd.o(i.is_busy)
    i.is_desc_discovery_reqd                 0x0002a534   Section        0  ble_db_discovery.o(i.is_desc_discovery_reqd)
    is_desc_discovery_reqd                   0x0002a535   Thumb Code    76  ble_db_discovery.o(i.is_desc_discovery_reqd)
    i.is_valid_irk                           0x0002a580   Section        0  id_manager.o(i.is_valid_irk)
    i.is_whitelist_used                      0x0002a594   Section        0  nrf_ble_scan.o(i.is_whitelist_used)
    i.is_word_aligned                        0x0002a5aa   Section        0  fds.o(i.is_word_aligned)
    is_word_aligned                          0x0002a5ab   Thumb Code    12  fds.o(i.is_word_aligned)
    i.leds_off                               0x0002a5b8   Section        0  bsp.o(i.leds_off)
    leds_off                                 0x0002a5b9   Thumb Code    42  bsp.o(i.leds_off)
    i.leds_timer_handler                     0x0002a5e8   Section        0  bsp.o(i.leds_timer_handler)
    leds_timer_handler                       0x0002a5e9   Thumb Code    16  bsp.o(i.leds_timer_handler)
    i.link_init                              0x0002a5fc   Section        0  nrf_ble_gatt.o(i.link_init)
    link_init                                0x0002a5fd   Thumb Code    20  nrf_ble_gatt.o(i.link_init)
    i.link_secure                            0x0002a610   Section        0  security_manager.o(i.link_secure)
    link_secure                              0x0002a611   Thumb Code   190  security_manager.o(i.link_secure)
    i.link_secure_authenticate               0x0002a6e0   Section        0  security_dispatcher.o(i.link_secure_authenticate)
    link_secure_authenticate                 0x0002a6e1   Thumb Code    10  security_dispatcher.o(i.link_secure_authenticate)
    i.link_secure_central                    0x0002a6ec   Section        0  security_dispatcher.o(i.link_secure_central)
    link_secure_central                      0x0002a6ed   Thumb Code    98  security_dispatcher.o(i.link_secure_central)
    i.link_secure_central_encryption         0x0002a754   Section        0  security_dispatcher.o(i.link_secure_central_encryption)
    link_secure_central_encryption           0x0002a755   Thumb Code   134  security_dispatcher.o(i.link_secure_central_encryption)
    i.link_secure_failure                    0x0002a7e8   Section        0  security_dispatcher.o(i.link_secure_failure)
    link_secure_failure                      0x0002a7e9   Thumb Code    50  security_dispatcher.o(i.link_secure_failure)
    i.link_secure_pending_handle             0x0002a81c   Section        0  security_manager.o(i.link_secure_pending_handle)
    link_secure_pending_handle               0x0002a81d   Thumb Code    38  security_manager.o(i.link_secure_pending_handle)
    i.list_insertions_handler                0x0002a848   Section        0  app_timer.o(i.list_insertions_handler)
    list_insertions_handler                  0x0002a849   Thumb Code   234  app_timer.o(i.list_insertions_handler)
    i.local_db_apply_in_evt                  0x0002a940   Section        0  gatt_cache_manager.o(i.local_db_apply_in_evt)
    local_db_apply_in_evt                    0x0002a941   Thumb Code   148  gatt_cache_manager.o(i.local_db_apply_in_evt)
    i.local_db_update                        0x0002a9e8   Section        0  gatt_cache_manager.o(i.local_db_update)
    local_db_update                          0x0002a9e9   Thumb Code    10  gatt_cache_manager.o(i.local_db_update)
    i.local_db_update_in_evt                 0x0002a9f8   Section        0  gatt_cache_manager.o(i.local_db_update_in_evt)
    local_db_update_in_evt                   0x0002a9f9   Thumb Code   134  gatt_cache_manager.o(i.local_db_update_in_evt)
    i.log_skip                               0x0002ab04   Section        0  nrf_log_frontend.o(i.log_skip)
    log_skip                                 0x0002ab05   Thumb Code   148  nrf_log_frontend.o(i.log_skip)
    i.main                                   0x0002aba0   Section        0  main.o(i.main)
    i.memobj_op                              0x0002aca4   Section        0  nrf_memobj.o(i.memobj_op)
    memobj_op                                0x0002aca5   Thumb Code   126  nrf_memobj.o(i.memobj_op)
    i.module_idx_get                         0x0002ad24   Section        0  nrf_log_frontend.o(i.module_idx_get)
    module_idx_get                           0x0002ad25   Thumb Code    42  nrf_log_frontend.o(i.module_idx_get)
    i.mutex_lock_status_get                  0x0002ad54   Section        0  pm_buffer.o(i.mutex_lock_status_get)
    mutex_lock_status_get                    0x0002ad55   Thumb Code     8  pm_buffer.o(i.mutex_lock_status_get)
    i.new_context_get                        0x0002ad5c   Section        0  security_manager.o(i.new_context_get)
    new_context_get                          0x0002ad5d   Thumb Code    14  security_manager.o(i.new_context_get)
    i.next_id_get                            0x0002ad70   Section        0  peer_id.o(i.next_id_get)
    i.nrf_atfifo_clear                       0x0002ada0   Section        0  nrf_atfifo.o(i.nrf_atfifo_clear)
    i.nrf_atfifo_init                        0x0002adb0   Section        0  nrf_atfifo.o(i.nrf_atfifo_init)
    i.nrf_atfifo_item_alloc                  0x0002add6   Section        0  nrf_atfifo.o(i.nrf_atfifo_item_alloc)
    i.nrf_atfifo_item_free                   0x0002adec   Section        0  nrf_atfifo.o(i.nrf_atfifo_item_free)
    i.nrf_atfifo_item_get                    0x0002ae02   Section        0  nrf_atfifo.o(i.nrf_atfifo_item_get)
    i.nrf_atfifo_item_put                    0x0002ae18   Section        0  nrf_atfifo.o(i.nrf_atfifo_item_put)
    i.nrf_atflags_clear                      0x0002ae2e   Section        0  nrf_atflags.o(i.nrf_atflags_clear)
    i.nrf_atflags_fetch_set                  0x0002ae44   Section        0  nrf_atflags.o(i.nrf_atflags_fetch_set)
    i.nrf_atflags_find_and_set_flag          0x0002ae64   Section        0  nrf_atflags.o(i.nrf_atflags_find_and_set_flag)
    i.nrf_atflags_get                        0x0002aeae   Section        0  nrf_atflags.o(i.nrf_atflags_get)
    i.nrf_atflags_set                        0x0002aec4   Section        0  nrf_atflags.o(i.nrf_atflags_set)
    i.nrf_atomic_flag_clear_fetch            0x0002aed8   Section        0  nrf_atomic.o(i.nrf_atomic_flag_clear_fetch)
    i.nrf_atomic_flag_set                    0x0002aede   Section        0  nrf_atomic.o(i.nrf_atomic_flag_set)
    i.nrf_atomic_flag_set_fetch              0x0002aee4   Section        0  nrf_atomic.o(i.nrf_atomic_flag_set_fetch)
    i.nrf_atomic_u32_add                     0x0002aeea   Section        0  nrf_atomic.o(i.nrf_atomic_u32_add)
    i.nrf_atomic_u32_and                     0x0002aef6   Section        0  nrf_atomic.o(i.nrf_atomic_u32_and)
    i.nrf_atomic_u32_fetch_add               0x0002af02   Section        0  nrf_atomic.o(i.nrf_atomic_u32_fetch_add)
    i.nrf_atomic_u32_fetch_and               0x0002af0c   Section        0  nrf_atomic.o(i.nrf_atomic_u32_fetch_and)
    i.nrf_atomic_u32_fetch_or                0x0002af16   Section        0  nrf_atomic.o(i.nrf_atomic_u32_fetch_or)
    i.nrf_atomic_u32_fetch_store             0x0002af20   Section        0  nrf_atomic.o(i.nrf_atomic_u32_fetch_store)
    i.nrf_atomic_u32_or                      0x0002af2a   Section        0  nrf_atomic.o(i.nrf_atomic_u32_or)
    i.nrf_atomic_u32_sub                     0x0002af36   Section        0  nrf_atomic.o(i.nrf_atomic_u32_sub)
    i.nrf_balloc_alloc                       0x0002af42   Section        0  nrf_balloc.o(i.nrf_balloc_alloc)
    i.nrf_balloc_free                        0x0002af86   Section        0  nrf_balloc.o(i.nrf_balloc_free)
    i.nrf_balloc_init                        0x0002afb6   Section        0  nrf_balloc.o(i.nrf_balloc_init)
    i.nrf_bitmask_bit_is_set                 0x0002afe6   Section        0  nrfx_gpiote.o(i.nrf_bitmask_bit_is_set)
    nrf_bitmask_bit_is_set                   0x0002afe7   Thumb Code    16  nrfx_gpiote.o(i.nrf_bitmask_bit_is_set)
    i.nrf_bitmask_bit_set                    0x0002aff6   Section        0  nrfx_gpiote.o(i.nrf_bitmask_bit_set)
    nrf_bitmask_bit_set                      0x0002aff7   Thumb Code    20  nrfx_gpiote.o(i.nrf_bitmask_bit_set)
    i.nrf_ble_gatt_init                      0x0002b00a   Section        0  nrf_ble_gatt.o(i.nrf_ble_gatt_init)
    i.nrf_ble_gatt_on_ble_evt                0x0002b038   Section        0  nrf_ble_gatt.o(i.nrf_ble_gatt_on_ble_evt)
    i.nrf_ble_scan_connect_with_target       0x0002b134   Section        0  nrf_ble_scan.o(i.nrf_ble_scan_connect_with_target)
    nrf_ble_scan_connect_with_target         0x0002b135   Thumb Code   110  nrf_ble_scan.o(i.nrf_ble_scan_connect_with_target)
    i.nrf_ble_scan_default_conn_param_set    0x0002b1d0   Section        0  nrf_ble_scan.o(i.nrf_ble_scan_default_conn_param_set)
    nrf_ble_scan_default_conn_param_set      0x0002b1d1   Thumb Code    20  nrf_ble_scan.o(i.nrf_ble_scan_default_conn_param_set)
    i.nrf_ble_scan_default_param_set         0x0002b1e4   Section        0  nrf_ble_scan.o(i.nrf_ble_scan_default_param_set)
    nrf_ble_scan_default_param_set           0x0002b1e5   Thumb Code    30  nrf_ble_scan.o(i.nrf_ble_scan_default_param_set)
    i.nrf_ble_scan_filter_set                0x0002b204   Section        0  nrf_ble_scan.o(i.nrf_ble_scan_filter_set)
    i.nrf_ble_scan_filters_disable           0x0002b288   Section        0  nrf_ble_scan.o(i.nrf_ble_scan_filters_disable)
    i.nrf_ble_scan_filters_enable            0x0002b296   Section        0  nrf_ble_scan.o(i.nrf_ble_scan_filters_enable)
    i.nrf_ble_scan_init                      0x0002b2cc   Section        0  nrf_ble_scan.o(i.nrf_ble_scan_init)
    i.nrf_ble_scan_on_adv_report             0x0002b336   Section        0  nrf_ble_scan.o(i.nrf_ble_scan_on_adv_report)
    nrf_ble_scan_on_adv_report               0x0002b337   Thumb Code   252  nrf_ble_scan.o(i.nrf_ble_scan_on_adv_report)
    i.nrf_ble_scan_on_ble_evt                0x0002b434   Section        0  nrf_ble_scan.o(i.nrf_ble_scan_on_ble_evt)
    i.nrf_ble_scan_start                     0x0002b514   Section        0  nrf_ble_scan.o(i.nrf_ble_scan_start)
    i.nrf_clock_event_check                  0x0002b5b4   Section        0  nrfx_clock.o(i.nrf_clock_event_check)
    nrf_clock_event_check                    0x0002b5b5   Thumb Code    14  nrfx_clock.o(i.nrf_clock_event_check)
    i.nrf_clock_event_clear                  0x0002b5c2   Section        0  nrfx_clock.o(i.nrf_clock_event_clear)
    nrf_clock_event_clear                    0x0002b5c3   Thumb Code    16  nrfx_clock.o(i.nrf_clock_event_clear)
    i.nrf_drv_clock_init                     0x0002b5d4   Section        0  nrf_drv_clock.o(i.nrf_drv_clock_init)
    i.nrf_drv_clock_lfclk_release            0x0002b60c   Section        0  nrf_drv_clock.o(i.nrf_drv_clock_lfclk_release)
    i.nrf_drv_uart_init                      0x0002b63c   Section        0  nrf_drv_uart.o(i.nrf_drv_uart_init)
    i.nrf_drv_uart_rx                        0x0002b6a4   Section        0  app_uart_fifo.o(i.nrf_drv_uart_rx)
    nrf_drv_uart_rx                          0x0002b6a5   Thumb Code    26  app_uart_fifo.o(i.nrf_drv_uart_rx)
    i.nrf_drv_uart_tx                        0x0002b6c4   Section        0  app_uart_fifo.o(i.nrf_drv_uart_tx)
    nrf_drv_uart_tx                          0x0002b6c5   Thumb Code    26  app_uart_fifo.o(i.nrf_drv_uart_tx)
    i.nrf_fprintf                            0x0002b6e4   Section        0  nrf_fprintf.o(i.nrf_fprintf)
    i.nrf_fprintf_buffer_flush               0x0002b6fe   Section        0  nrf_fprintf.o(i.nrf_fprintf_buffer_flush)
    i.nrf_fprintf_fmt                        0x0002b716   Section        0  nrf_fprintf_format.o(i.nrf_fprintf_fmt)
    i.nrf_fstorage_erase                     0x0002b8f0   Section        0  nrf_fstorage.o(i.nrf_fstorage_erase)
    i.nrf_fstorage_init                      0x0002ba28   Section        0  nrf_fstorage.o(i.nrf_fstorage_init)
    i.nrf_fstorage_sdh_req_handler           0x0002babc   Section        0  nrf_fstorage_sd.o(i.nrf_fstorage_sdh_req_handler)
    i.nrf_fstorage_sdh_state_handler         0x0002bad4   Section        0  nrf_fstorage_sd.o(i.nrf_fstorage_sdh_state_handler)
    i.nrf_fstorage_sys_evt_handler           0x0002baf4   Section        0  nrf_fstorage_sd.o(i.nrf_fstorage_sys_evt_handler)
    i.nrf_fstorage_write                     0x0002bb98   Section        0  nrf_fstorage.o(i.nrf_fstorage_write)
    i.nrf_gpio_cfg                           0x0002bd74   Section        0  boards.o(i.nrf_gpio_cfg)
    nrf_gpio_cfg                             0x0002bd75   Thumb Code    36  boards.o(i.nrf_gpio_cfg)
    i.nrf_gpio_cfg                           0x0002bd98   Section        0  nrfx_gpiote.o(i.nrf_gpio_cfg)
    nrf_gpio_cfg                             0x0002bd99   Thumb Code    36  nrfx_gpiote.o(i.nrf_gpio_cfg)
    i.nrf_gpio_cfg                           0x0002bdbc   Section        0  nrfx_uart.o(i.nrf_gpio_cfg)
    nrf_gpio_cfg                             0x0002bdbd   Thumb Code    36  nrfx_uart.o(i.nrf_gpio_cfg)
    i.nrf_gpio_cfg                           0x0002bde0   Section        0  nrfx_uarte.o(i.nrf_gpio_cfg)
    nrf_gpio_cfg                             0x0002bde1   Thumb Code    36  nrfx_uarte.o(i.nrf_gpio_cfg)
    i.nrf_gpio_cfg_input                     0x0002be04   Section        0  nrfx_uart.o(i.nrf_gpio_cfg_input)
    nrf_gpio_cfg_input                       0x0002be05   Thumb Code    18  nrfx_uart.o(i.nrf_gpio_cfg_input)
    i.nrf_gpio_cfg_input                     0x0002be16   Section        0  nrfx_uarte.o(i.nrf_gpio_cfg_input)
    nrf_gpio_cfg_input                       0x0002be17   Thumb Code    18  nrfx_uarte.o(i.nrf_gpio_cfg_input)
    i.nrf_gpio_cfg_output                    0x0002be28   Section        0  nrfx_uart.o(i.nrf_gpio_cfg_output)
    nrf_gpio_cfg_output                      0x0002be29   Thumb Code    20  nrfx_uart.o(i.nrf_gpio_cfg_output)
    i.nrf_gpio_cfg_output                    0x0002be3c   Section        0  nrfx_uarte.o(i.nrf_gpio_cfg_output)
    nrf_gpio_cfg_output                      0x0002be3d   Thumb Code    20  nrfx_uarte.o(i.nrf_gpio_cfg_output)
    i.nrf_gpio_cfg_sense_set                 0x0002be50   Section        0  nrfx_gpiote.o(i.nrf_gpio_cfg_sense_set)
    nrf_gpio_cfg_sense_set                   0x0002be51   Thumb Code    34  nrfx_gpiote.o(i.nrf_gpio_cfg_sense_set)
    i.nrf_gpio_pin_write                     0x0002be72   Section        0  boards.o(i.nrf_gpio_pin_write)
    nrf_gpio_pin_write                       0x0002be73   Thumb Code    22  boards.o(i.nrf_gpio_pin_write)
    i.nrf_gpio_ports_read                    0x0002be88   Section        0  nrfx_gpiote.o(i.nrf_gpio_ports_read)
    nrf_gpio_ports_read                      0x0002be89   Thumb Code    34  nrfx_gpiote.o(i.nrf_gpio_ports_read)
    i.nrf_gpiote_event_clear                 0x0002beb0   Section        0  nrfx_gpiote.o(i.nrf_gpiote_event_clear)
    nrf_gpiote_event_clear                   0x0002beb1   Thumb Code    16  nrfx_gpiote.o(i.nrf_gpiote_event_clear)
    i.nrf_gpiote_event_is_set                0x0002bec4   Section        0  nrfx_gpiote.o(i.nrf_gpiote_event_is_set)
    nrf_gpiote_event_is_set                  0x0002bec5   Thumb Code    12  nrfx_gpiote.o(i.nrf_gpiote_event_is_set)
    i.nrf_log_backend_add                    0x0002bed4   Section        0  nrf_log_frontend.o(i.nrf_log_backend_add)
    i.nrf_log_backend_rtt_flush              0x0002bf30   Section        0  nrf_log_backend_rtt.o(i.nrf_log_backend_rtt_flush)
    nrf_log_backend_rtt_flush                0x0002bf31   Thumb Code     2  nrf_log_backend_rtt.o(i.nrf_log_backend_rtt_flush)
    i.nrf_log_backend_rtt_init               0x0002bf32   Section        0  nrf_log_backend_rtt.o(i.nrf_log_backend_rtt_init)
    i.nrf_log_backend_rtt_panic_set          0x0002bf36   Section        0  nrf_log_backend_rtt.o(i.nrf_log_backend_rtt_panic_set)
    nrf_log_backend_rtt_panic_set            0x0002bf37   Thumb Code     2  nrf_log_backend_rtt.o(i.nrf_log_backend_rtt_panic_set)
    i.nrf_log_backend_rtt_put                0x0002bf38   Section        0  nrf_log_backend_rtt.o(i.nrf_log_backend_rtt_put)
    nrf_log_backend_rtt_put                  0x0002bf39   Thumb Code    16  nrf_log_backend_rtt.o(i.nrf_log_backend_rtt_put)
    i.nrf_log_backend_serial_put             0x0002bf50   Section        0  nrf_log_backend_serial.o(i.nrf_log_backend_serial_put)
    i.nrf_log_color_id_get                   0x0002c018   Section        0  nrf_log_frontend.o(i.nrf_log_color_id_get)
    i.nrf_log_default_backends_init          0x0002c048   Section        0  nrf_log_default_backends.o(i.nrf_log_default_backends_init)
    i.nrf_log_frontend_dequeue               0x0002c064   Section        0  nrf_log_frontend.o(i.nrf_log_frontend_dequeue)
    i.nrf_log_frontend_hexdump               0x0002c298   Section        0  nrf_log_frontend.o(i.nrf_log_frontend_hexdump)
    i.nrf_log_frontend_std_0                 0x0002c340   Section        0  nrf_log_frontend.o(i.nrf_log_frontend_std_0)
    i.nrf_log_frontend_std_1                 0x0002c348   Section        0  nrf_log_frontend.o(i.nrf_log_frontend_std_1)
    i.nrf_log_frontend_std_2                 0x0002c356   Section        0  nrf_log_frontend.o(i.nrf_log_frontend_std_2)
    i.nrf_log_frontend_std_3                 0x0002c366   Section        0  nrf_log_frontend.o(i.nrf_log_frontend_std_3)
    i.nrf_log_frontend_std_6                 0x0002c378   Section        0  nrf_log_frontend.o(i.nrf_log_frontend_std_6)
    i.nrf_log_hexdump_entry_process          0x0002c394   Section        0  nrf_log_str_formatter.o(i.nrf_log_hexdump_entry_process)
    i.nrf_log_init                           0x0002c444   Section        0  nrf_log_frontend.o(i.nrf_log_init)
    i.nrf_log_module_cnt_get                 0x0002c480   Section        0  nrf_log_frontend.o(i.nrf_log_module_cnt_get)
    i.nrf_log_module_name_get                0x0002c494   Section        0  nrf_log_frontend.o(i.nrf_log_module_name_get)
    i.nrf_log_panic                          0x0002c4b0   Section        0  nrf_log_frontend.o(i.nrf_log_panic)
    i.nrf_log_std_entry_process              0x0002c4dc   Section        0  nrf_log_str_formatter.o(i.nrf_log_std_entry_process)
    i.nrf_memobj_alloc                       0x0002c592   Section        0  nrf_memobj.o(i.nrf_memobj_alloc)
    i.nrf_memobj_free                        0x0002c5f2   Section        0  nrf_memobj.o(i.nrf_memobj_free)
    i.nrf_memobj_get                         0x0002c624   Section        0  nrf_memobj.o(i.nrf_memobj_get)
    i.nrf_memobj_pool_init                   0x0002c62c   Section        0  nrf_memobj.o(i.nrf_memobj_pool_init)
    i.nrf_memobj_put                         0x0002c630   Section        0  nrf_memobj.o(i.nrf_memobj_put)
    i.nrf_memobj_read                        0x0002c64e   Section        0  nrf_memobj.o(i.nrf_memobj_read)
    i.nrf_memobj_write                       0x0002c65e   Section        0  nrf_memobj.o(i.nrf_memobj_write)
    i.nrf_pwr_mgmt_init                      0x0002c670   Section        0  nrf_pwr_mgmt.o(i.nrf_pwr_mgmt_init)
    i.nrf_pwr_mgmt_run                       0x0002c698   Section        0  nrf_pwr_mgmt.o(i.nrf_pwr_mgmt_run)
    i.nrf_ringbuf_init                       0x0002c6dc   Section        0  nrf_ringbuf.o(i.nrf_ringbuf_init)
    i.nrf_sdh_ble_app_ram_start_get          0x0002c6f8   Section        0  nrf_sdh_ble.o(i.nrf_sdh_ble_app_ram_start_get)
    i.nrf_sdh_ble_default_cfg_set            0x0002c70c   Section        0  nrf_sdh_ble.o(i.nrf_sdh_ble_default_cfg_set)
    i.nrf_sdh_ble_enable                     0x0002c810   Section        0  nrf_sdh_ble.o(i.nrf_sdh_ble_enable)
    i.nrf_sdh_ble_evts_poll                  0x0002c940   Section        0  nrf_sdh_ble.o(i.nrf_sdh_ble_evts_poll)
    nrf_sdh_ble_evts_poll                    0x0002c941   Thumb Code    82  nrf_sdh_ble.o(i.nrf_sdh_ble_evts_poll)
    i.nrf_sdh_disable_request                0x0002c99c   Section        0  nrf_sdh.o(i.nrf_sdh_disable_request)
    i.nrf_sdh_enable_request                 0x0002c9f0   Section        0  nrf_sdh.o(i.nrf_sdh_enable_request)
    i.nrf_sdh_evts_poll                      0x0002ca64   Section        0  nrf_sdh.o(i.nrf_sdh_evts_poll)
    i.nrf_sdh_is_enabled                     0x0002ca88   Section        0  nrf_sdh.o(i.nrf_sdh_is_enabled)
    i.nrf_sdh_request_continue               0x0002ca94   Section        0  nrf_sdh.o(i.nrf_sdh_request_continue)
    i.nrf_sdh_soc_evts_poll                  0x0002cab0   Section        0  nrf_sdh_soc.o(i.nrf_sdh_soc_evts_poll)
    nrf_sdh_soc_evts_poll                    0x0002cab1   Thumb Code    56  nrf_sdh_soc.o(i.nrf_sdh_soc_evts_poll)
    i.nrf_section_iter_init                  0x0002caec   Section        0  nrf_section_iter.o(i.nrf_section_iter_init)
    i.nrf_section_iter_item_set              0x0002caf6   Section        0  nrf_section_iter.o(i.nrf_section_iter_item_set)
    nrf_section_iter_item_set                0x0002caf7   Thumb Code    36  nrf_section_iter.o(i.nrf_section_iter_item_set)
    i.nrf_section_iter_next                  0x0002cb1a   Section        0  nrf_section_iter.o(i.nrf_section_iter_next)
    i.nrf_strerror_find                      0x0002cb3c   Section        0  nrf_strerror.o(i.nrf_strerror_find)
    i.nrf_strerror_get                       0x0002cb74   Section        0  nrf_strerror.o(i.nrf_strerror_get)
    i.nrf_uart_event_check                   0x0002cb88   Section        0  nrfx_uart.o(i.nrf_uart_event_check)
    nrf_uart_event_check                     0x0002cb89   Thumb Code    10  nrfx_uart.o(i.nrf_uart_event_check)
    i.nrf_uart_event_clear                   0x0002cb92   Section        0  nrfx_uart.o(i.nrf_uart_event_clear)
    nrf_uart_event_clear                     0x0002cb93   Thumb Code    12  nrfx_uart.o(i.nrf_uart_event_clear)
    i.nrf_uart_int_enable_check              0x0002cb9e   Section        0  nrfx_uart.o(i.nrf_uart_int_enable_check)
    nrf_uart_int_enable_check                0x0002cb9f   Thumb Code    12  nrfx_uart.o(i.nrf_uart_int_enable_check)
    i.nrf_uarte_event_check                  0x0002cbaa   Section        0  nrfx_uarte.o(i.nrf_uarte_event_check)
    nrf_uarte_event_check                    0x0002cbab   Thumb Code    10  nrfx_uarte.o(i.nrf_uarte_event_check)
    i.nrf_uarte_event_clear                  0x0002cbb4   Section        0  nrfx_uarte.o(i.nrf_uarte_event_clear)
    nrf_uarte_event_clear                    0x0002cbb5   Thumb Code    12  nrfx_uarte.o(i.nrf_uarte_event_clear)
    i.nrfx_clock_enable                      0x0002cbc0   Section        0  nrfx_clock.o(i.nrfx_clock_enable)
    i.nrfx_clock_init                        0x0002cbec   Section        0  nrfx_clock.o(i.nrfx_clock_init)
    i.nrfx_clock_lfclk_stop                  0x0002cc0c   Section        0  nrfx_clock.o(i.nrfx_clock_lfclk_stop)
    i.nrfx_coredep_delay_us                  0x0002cc28   Section        0  app_timer.o(i.nrfx_coredep_delay_us)
    nrfx_coredep_delay_us                    0x0002cc29   Thumb Code    12  app_timer.o(i.nrfx_coredep_delay_us)
    i.nrfx_gpiote_in_event_disable           0x0002cc38   Section        0  nrfx_gpiote.o(i.nrfx_gpiote_in_event_disable)
    i.nrfx_gpiote_in_event_enable            0x0002cc80   Section        0  nrfx_gpiote.o(i.nrfx_gpiote_in_event_enable)
    i.nrfx_gpiote_in_init                    0x0002cd24   Section        0  nrfx_gpiote.o(i.nrfx_gpiote_in_init)
    i.nrfx_gpiote_in_is_set                  0x0002cdf4   Section        0  nrfx_gpiote.o(i.nrfx_gpiote_in_is_set)
    i.nrfx_gpiote_init                       0x0002ce08   Section        0  nrfx_gpiote.o(i.nrfx_gpiote_init)
    i.nrfx_gpiote_is_init                    0x0002ce74   Section        0  nrfx_gpiote.o(i.nrfx_gpiote_is_init)
    i.nrfx_is_in_ram                         0x0002ce88   Section        0  nrfx_uarte.o(i.nrfx_is_in_ram)
    nrfx_is_in_ram                           0x0002ce89   Thumb Code    16  nrfx_uarte.o(i.nrfx_is_in_ram)
    i.nrfx_prs_acquire                       0x0002ce98   Section        0  nrfx_prs.o(i.nrfx_prs_acquire)
    i.nrfx_uart_0_irq_handler                0x0002ced4   Section        0  nrfx_uart.o(i.nrfx_uart_0_irq_handler)
    i.nrfx_uart_init                         0x0002cee4   Section        0  nrfx_uart.o(i.nrfx_uart_init)
    i.nrfx_uart_rx                           0x0002cfb4   Section        0  nrfx_uart.o(i.nrfx_uart_rx)
    i.nrfx_uart_tx                           0x0002d0a0   Section        0  nrfx_uart.o(i.nrfx_uart_tx)
    i.nrfx_uart_tx_in_progress               0x0002d144   Section        0  nrfx_uart.o(i.nrfx_uart_tx_in_progress)
    i.nrfx_uarte_0_irq_handler               0x0002d164   Section        0  nrfx_uarte.o(i.nrfx_uarte_0_irq_handler)
    i.nrfx_uarte_init                        0x0002d174   Section        0  nrfx_uarte.o(i.nrfx_uarte_init)
    i.nrfx_uarte_rx                          0x0002d1e0   Section        0  nrfx_uarte.o(i.nrfx_uarte_rx)
    i.nrfx_uarte_tx                          0x0002d2e4   Section        0  nrfx_uarte.o(i.nrfx_uarte_tx)
    i.nrfx_uarte_tx_in_progress              0x0002d374   Section        0  nrfx_uarte.o(i.nrfx_uarte_tx_in_progress)
    i.on_characteristic_discovery_rsp        0x0002d390   Section        0  ble_db_discovery.o(i.on_characteristic_discovery_rsp)
    on_characteristic_discovery_rsp          0x0002d391   Thumb Code   330  ble_db_discovery.o(i.on_characteristic_discovery_rsp)
    i.on_connected_evt                       0x0002d4f4   Section        0  nrf_ble_gatt.o(i.on_connected_evt)
    on_connected_evt                         0x0002d4f5   Thumb Code   136  nrf_ble_gatt.o(i.on_connected_evt)
    i.on_data_length_update_evt              0x0002d5fc   Section        0  nrf_ble_gatt.o(i.on_data_length_update_evt)
    on_data_length_update_evt                0x0002d5fd   Thumb Code   142  nrf_ble_gatt.o(i.on_data_length_update_evt)
    i.on_data_length_update_request_evt      0x0002d710   Section        0  nrf_ble_gatt.o(i.on_data_length_update_request_evt)
    on_data_length_update_request_evt        0x0002d711   Thumb Code    52  nrf_ble_gatt.o(i.on_data_length_update_request_evt)
    i.on_descriptor_discovery_rsp            0x0002d78c   Section        0  ble_db_discovery.o(i.on_descriptor_discovery_rsp)
    on_descriptor_discovery_rsp              0x0002d78d   Thumb Code   258  ble_db_discovery.o(i.on_descriptor_discovery_rsp)
    i.on_exchange_mtu_request_evt            0x0002d8a0   Section        0  nrf_ble_gatt.o(i.on_exchange_mtu_request_evt)
    on_exchange_mtu_request_evt              0x0002d8a1   Thumb Code   148  nrf_ble_gatt.o(i.on_exchange_mtu_request_evt)
    i.on_exchange_mtu_rsp_evt                0x0002d9ec   Section        0  nrf_ble_gatt.o(i.on_exchange_mtu_rsp_evt)
    on_exchange_mtu_rsp_evt                  0x0002d9ed   Thumb Code    98  nrf_ble_gatt.o(i.on_exchange_mtu_rsp_evt)
    i.on_primary_srv_discovery_rsp           0x0002da98   Section        0  ble_db_discovery.o(i.on_primary_srv_discovery_rsp)
    on_primary_srv_discovery_rsp             0x0002da99   Thumb Code   130  ble_db_discovery.o(i.on_primary_srv_discovery_rsp)
    i.on_srv_disc_completion                 0x0002db64   Section        0  ble_db_discovery.o(i.on_srv_disc_completion)
    on_srv_disc_completion                   0x0002db65   Thumb Code   146  ble_db_discovery.o(i.on_srv_disc_completion)
    i.page_identify                          0x0002dc0c   Section        0  fds.o(i.page_identify)
    page_identify                            0x0002dc0d   Thumb Code    26  fds.o(i.page_identify)
    i.page_offsets_update                    0x0002dc30   Section        0  fds.o(i.page_offsets_update)
    page_offsets_update                      0x0002dc31   Thumb Code    28  fds.o(i.page_offsets_update)
    i.page_scan                              0x0002dc4c   Section        0  fds.o(i.page_scan)
    page_scan                                0x0002dc4d   Thumb Code   104  fds.o(i.page_scan)
    i.page_tag_write_data                    0x0002dcb8   Section        0  fds.o(i.page_tag_write_data)
    page_tag_write_data                      0x0002dcb9   Thumb Code    20  fds.o(i.page_tag_write_data)
    i.page_tag_write_swap                    0x0002dcd4   Section        0  fds.o(i.page_tag_write_swap)
    page_tag_write_swap                      0x0002dcd5   Thumb Code    22  fds.o(i.page_tag_write_swap)
    i.pages_init                             0x0002dcf8   Section        0  fds.o(i.pages_init)
    pages_init                               0x0002dcf9   Thumb Code   272  fds.o(i.pages_init)
    i.pairing                                0x0002de14   Section        0  security_dispatcher.o(i.pairing)
    pairing                                  0x0002de15   Thumb Code     8  security_dispatcher.o(i.pairing)
    i.pairing_failure                        0x0002de20   Section        0  security_dispatcher.o(i.pairing_failure)
    pairing_failure                          0x0002de21   Thumb Code    98  security_dispatcher.o(i.pairing_failure)
    i.pairing_success_evt_send               0x0002de94   Section        0  security_dispatcher.o(i.pairing_success_evt_send)
    pairing_success_evt_send                 0x0002de95   Thumb Code    46  security_dispatcher.o(i.pairing_success_evt_send)
    i.params_reply_pending_handle            0x0002dec2   Section        0  security_manager.o(i.params_reply_pending_handle)
    params_reply_pending_handle              0x0002dec3   Thumb Code     6  security_manager.o(i.params_reply_pending_handle)
    i.params_req_send                        0x0002dec8   Section        0  security_manager.o(i.params_req_send)
    params_req_send                          0x0002dec9   Thumb Code    40  security_manager.o(i.params_req_send)
    i.pdb_evt_send                           0x0002def0   Section        0  peer_database.o(i.pdb_evt_send)
    pdb_evt_send                             0x0002def1   Thumb Code    24  peer_database.o(i.pdb_evt_send)
    i.pdb_init                               0x0002df0c   Section        0  peer_database.o(i.pdb_init)
    i.pdb_pds_evt_handler                    0x0002df9c   Section        0  peer_database.o(i.pdb_pds_evt_handler)
    i.pdb_peer_data_ptr_get                  0x0002e018   Section        0  peer_database.o(i.pdb_peer_data_ptr_get)
    i.pdb_peer_free                          0x0002e020   Section        0  peer_database.o(i.pdb_peer_free)
    i.pdb_write_buf_get                      0x0002e0ac   Section        0  peer_database.o(i.pdb_write_buf_get)
    i.pdb_write_buf_release                  0x0002e188   Section        0  peer_database.o(i.pdb_write_buf_release)
    i.pdb_write_buf_store                    0x0002e19c   Section        0  peer_database.o(i.pdb_write_buf_store)
    i.pds_evt_send                           0x0002e1d4   Section        0  peer_data_storage.o(i.pds_evt_send)
    pds_evt_send                             0x0002e1d5   Thumb Code    12  peer_data_storage.o(i.pds_evt_send)
    i.pds_init                               0x0002e1e4   Section        0  peer_data_storage.o(i.pds_init)
    i.pds_next_deleted_peer_id_get           0x0002e2c0   Section        0  peer_data_storage.o(i.pds_next_deleted_peer_id_get)
    i.pds_next_peer_id_get                   0x0002e2c4   Section        0  peer_data_storage.o(i.pds_next_peer_id_get)
    i.pds_peer_data_iterate                  0x0002e2c8   Section        0  peer_data_storage.o(i.pds_peer_data_iterate)
    i.pds_peer_data_iterate_prepare          0x0002e320   Section        0  peer_data_storage.o(i.pds_peer_data_iterate_prepare)
    i.pds_peer_data_read                     0x0002e330   Section        0  peer_data_storage.o(i.pds_peer_data_read)
    i.pds_peer_data_store                    0x0002e3a4   Section        0  peer_data_storage.o(i.pds_peer_data_store)
    i.pds_peer_id_allocate                   0x0002e444   Section        0  peer_data_storage.o(i.pds_peer_id_allocate)
    i.pds_peer_id_free                       0x0002e44c   Section        0  peer_data_storage.o(i.pds_peer_id_free)
    i.pds_peer_id_is_allocated               0x0002e462   Section        0  peer_data_storage.o(i.pds_peer_id_is_allocated)
    i.peer_data_delete_process               0x0002e468   Section        0  peer_data_storage.o(i.peer_data_delete_process)
    peer_data_delete_process                 0x0002e469   Thumb Code   136  peer_data_storage.o(i.peer_data_delete_process)
    i.peer_data_find                         0x0002e504   Section        0  peer_data_storage.o(i.peer_data_find)
    peer_data_find                           0x0002e505   Thumb Code    48  peer_data_storage.o(i.peer_data_find)
    i.peer_data_id_is_valid                  0x0002e534   Section        0  peer_data_storage.o(i.peer_data_id_is_valid)
    peer_data_id_is_valid                    0x0002e535   Thumb Code    36  peer_data_storage.o(i.peer_data_id_is_valid)
    i.peer_data_point_to_buffer              0x0002e558   Section        0  peer_database.o(i.peer_data_point_to_buffer)
    peer_data_point_to_buffer                0x0002e559   Thumb Code    26  peer_database.o(i.peer_data_point_to_buffer)
    i.peer_id_allocate                       0x0002e574   Section        0  peer_id.o(i.peer_id_allocate)
    i.peer_id_delete                         0x0002e580   Section        0  peer_id.o(i.peer_id_delete)
    i.peer_id_free                           0x0002e5a4   Section        0  peer_id.o(i.peer_id_free)
    i.peer_id_get_next_deleted               0x0002e5c0   Section        0  peer_id.o(i.peer_id_get_next_deleted)
    i.peer_id_get_next_used                  0x0002e5cc   Section        0  peer_id.o(i.peer_id_get_next_used)
    i.peer_id_init                           0x0002e5fc   Section        0  peer_id.o(i.peer_id_init)
    i.peer_id_is_allocated                   0x0002e608   Section        0  peer_id.o(i.peer_id_is_allocated)
    i.peer_id_is_deleted                     0x0002e61c   Section        0  peer_id.o(i.peer_id_is_deleted)
    i.pin_in_use_by_port                     0x0002e630   Section        0  nrfx_gpiote.o(i.pin_in_use_by_port)
    pin_in_use_by_port                       0x0002e631   Thumb Code    20  nrfx_gpiote.o(i.pin_in_use_by_port)
    i.pin_in_use_by_te                       0x0002e648   Section        0  nrfx_gpiote.o(i.pin_in_use_by_te)
    pin_in_use_by_te                         0x0002e649   Thumb Code    20  nrfx_gpiote.o(i.pin_in_use_by_te)
    i.pm_buffer_block_acquire                0x0002e660   Section        0  pm_buffer.o(i.pm_buffer_block_acquire)
    i.pm_buffer_init                         0x0002e6c4   Section        0  pm_buffer.o(i.pm_buffer_init)
    i.pm_buffer_ptr_get                      0x0002e6e8   Section        0  pm_buffer.o(i.pm_buffer_ptr_get)
    i.pm_buffer_release                      0x0002e710   Section        0  pm_buffer.o(i.pm_buffer_release)
    i.pm_gcm_evt_handler                     0x0002e742   Section        0  peer_manager.o(i.pm_gcm_evt_handler)
    i.pm_gscm_evt_handler                    0x0002e746   Section        0  peer_manager.o(i.pm_gscm_evt_handler)
    i.pm_im_evt_handler                      0x0002e74a   Section        0  peer_manager.o(i.pm_im_evt_handler)
    i.pm_init                                0x0002e750   Section        0  peer_manager.o(i.pm_init)
    i.pm_pdb_evt_handler                     0x0002e90c   Section        0  peer_manager.o(i.pm_pdb_evt_handler)
    i.pm_peer_ranks_get                      0x0002ea2c   Section        0  peer_manager.o(i.pm_peer_ranks_get)
    i.pm_sm_evt_handler                      0x0002eb18   Section        0  peer_manager.o(i.pm_sm_evt_handler)
    i.postfix_process                        0x0002eb24   Section        0  nrf_log_str_formatter.o(i.postfix_process)
    postfix_process                          0x0002eb25   Thumb Code    48  nrf_log_str_formatter.o(i.postfix_process)
    i.prefix_process                         0x0002eb60   Section        0  nrf_log_str_formatter.o(i.prefix_process)
    prefix_process                           0x0002eb61   Thumb Code    90  nrf_log_str_formatter.o(i.prefix_process)
    i.prs_box_get                            0x0002ebf8   Section        0  nrfx_prs.o(i.prs_box_get)
    prs_box_get                              0x0002ebf9   Thumb Code    14  nrfx_prs.o(i.prs_box_get)
    i.queue_buf_get                          0x0002ec10   Section        0  fds.o(i.queue_buf_get)
    queue_buf_get                            0x0002ec11   Thumb Code    24  fds.o(i.queue_buf_get)
    i.queue_buf_store                        0x0002ec2c   Section        0  fds.o(i.queue_buf_store)
    queue_buf_store                          0x0002ec2d   Thumb Code    10  fds.o(i.queue_buf_store)
    i.queue_free                             0x0002ec3c   Section        0  nrf_fstorage_sd.o(i.queue_free)
    queue_free                               0x0002ec3d   Thumb Code    10  nrf_fstorage_sd.o(i.queue_free)
    i.queue_process                          0x0002ec50   Section        0  fds.o(i.queue_process)
    queue_process                            0x0002ec51   Thumb Code   152  fds.o(i.queue_process)
    i.queue_process                          0x0002ecf0   Section        0  nrf_fstorage_sd.o(i.queue_process)
    queue_process                            0x0002ecf1   Thumb Code   148  nrf_fstorage_sd.o(i.queue_process)
    i.queue_start                            0x0002ed90   Section        0  fds.o(i.queue_start)
    queue_start                              0x0002ed91   Thumb Code    24  fds.o(i.queue_start)
    i.queue_start                            0x0002edac   Section        0  nrf_fstorage_sd.o(i.queue_start)
    queue_start                              0x0002edad   Thumb Code    30  nrf_fstorage_sd.o(i.queue_start)
    i.rank_vars_update                       0x0002edd0   Section        0  peer_manager.o(i.rank_vars_update)
    rank_vars_update                         0x0002edd1   Thumb Code    36  peer_manager.o(i.rank_vars_update)
    i.read                                   0x0002edf8   Section        0  nrf_fstorage_sd.o(i.read)
    read                                     0x0002edf9   Thumb Code    14  nrf_fstorage_sd.o(i.read)
    i.reattempt_previous_operations          0x0002ee08   Section        0  peer_database.o(i.reattempt_previous_operations)
    reattempt_previous_operations            0x0002ee09   Thumb Code   156  peer_database.o(i.reattempt_previous_operations)
    i.record_find                            0x0002eeb8   Section        0  fds.o(i.record_find)
    record_find                              0x0002eeb9   Thumb Code   128  fds.o(i.record_find)
    i.record_find_by_desc                    0x0002ef40   Section        0  fds.o(i.record_find_by_desc)
    record_find_by_desc                      0x0002ef41   Thumb Code   152  fds.o(i.record_find_by_desc)
    i.record_find_next                       0x0002efe0   Section        0  fds.o(i.record_find_next)
    record_find_next                         0x0002efe1   Thumb Code    88  fds.o(i.record_find_next)
    i.record_header_flag_dirty               0x0002f03c   Section        0  fds.o(i.record_header_flag_dirty)
    record_header_flag_dirty                 0x0002f03d   Thumb Code    44  fds.o(i.record_header_flag_dirty)
    i.registered_handler_get                 0x0002f074   Section        0  ble_db_discovery.o(i.registered_handler_get)
    registered_handler_get                   0x0002f075   Thumb Code    48  ble_db_discovery.o(i.registered_handler_get)
    i.release                                0x0002f0ac   Section        0  peer_id.o(i.release)
    release                                  0x0002f0ad   Thumb Code    16  peer_id.o(i.release)
    i.rmap                                   0x0002f0bc   Section        0  nrf_fstorage_sd.o(i.rmap)
    rmap                                     0x0002f0bd   Thumb Code     4  nrf_fstorage_sd.o(i.rmap)
    i.rtc1_stop                              0x0002f0c0   Section        0  app_timer.o(i.rtc1_stop)
    rtc1_stop                                0x0002f0c1   Thumb Code    52  app_timer.o(i.rtc1_stop)
    i.rx_byte                                0x0002f0fc   Section        0  nrfx_uart.o(i.rx_byte)
    rx_byte                                  0x0002f0fd   Thumb Code    50  nrfx_uart.o(i.rx_byte)
    i.rx_done_event                          0x0002f12e   Section        0  nrfx_uart.o(i.rx_done_event)
    rx_done_event                            0x0002f12f   Thumb Code    22  nrfx_uart.o(i.rx_done_event)
    i.rx_done_event                          0x0002f144   Section        0  nrfx_uarte.o(i.rx_done_event)
    rx_done_event                            0x0002f145   Thumb Code    22  nrfx_uarte.o(i.rx_done_event)
    i.rx_enable                              0x0002f15a   Section        0  nrfx_uart.o(i.rx_enable)
    rx_enable                                0x0002f15b   Thumb Code    32  nrfx_uart.o(i.rx_enable)
    i.sc_send_pending_handle                 0x0002f17c   Section        0  gatt_cache_manager.o(i.sc_send_pending_handle)
    sc_send_pending_handle                   0x0002f17d   Thumb Code    30  gatt_cache_manager.o(i.sc_send_pending_handle)
    i.sd_state_evt_handler                   0x0002f1a0   Section        0  nrf_drv_clock.o(i.sd_state_evt_handler)
    sd_state_evt_handler                     0x0002f1a1   Thumb Code    76  nrf_drv_clock.o(i.sd_state_evt_handler)
    i.sdh_request_observer_notify            0x0002f1f0   Section        0  nrf_sdh.o(i.sdh_request_observer_notify)
    sdh_request_observer_notify              0x0002f1f1   Thumb Code    44  nrf_sdh.o(i.sdh_request_observer_notify)
    i.sdh_state_observer_notify              0x0002f220   Section        0  nrf_sdh.o(i.sdh_state_observer_notify)
    sdh_state_observer_notify                0x0002f221   Thumb Code    38  nrf_sdh.o(i.sdh_state_observer_notify)
    i.sec_info_request_process               0x0002f24c   Section        0  security_dispatcher.o(i.sec_info_request_process)
    sec_info_request_process                 0x0002f24d   Thumb Code   198  security_dispatcher.o(i.sec_info_request_process)
    i.sec_keyset_fill                        0x0002f324   Section        0  security_dispatcher.o(i.sec_keyset_fill)
    sec_keyset_fill                          0x0002f325   Thumb Code   168  security_dispatcher.o(i.sec_keyset_fill)
    i.sec_proc_start                         0x0002f418   Section        0  security_dispatcher.o(i.sec_proc_start)
    sec_proc_start                           0x0002f419   Thumb Code    86  security_dispatcher.o(i.sec_proc_start)
    i.sec_procedure                          0x0002f478   Section        0  security_dispatcher.o(i.sec_procedure)
    sec_procedure                            0x0002f479   Thumb Code     8  security_dispatcher.o(i.sec_procedure)
    i.send_config_req                        0x0002f484   Section        0  security_dispatcher.o(i.send_config_req)
    send_config_req                          0x0002f485   Thumb Code    34  security_dispatcher.o(i.send_config_req)
    i.send_unexpected_error                  0x0002f4a8   Section        0  gatt_cache_manager.o(i.send_unexpected_error)
    send_unexpected_error                    0x0002f4a9   Thumb Code    34  gatt_cache_manager.o(i.send_unexpected_error)
    i.send_unexpected_error                  0x0002f4d0   Section        0  security_dispatcher.o(i.send_unexpected_error)
    send_unexpected_error                    0x0002f4d1   Thumb Code    34  security_dispatcher.o(i.send_unexpected_error)
    i.serial_tx                              0x0002f4f8   Section        0  nrf_log_backend_rtt.o(i.serial_tx)
    serial_tx                                0x0002f4f9   Thumb Code    70  nrf_log_backend_rtt.o(i.serial_tx)
    i.service_changed_cccd                   0x0002f548   Section        0  gatt_cache_manager.o(i.service_changed_cccd)
    service_changed_cccd                     0x0002f549   Thumb Code   106  gatt_cache_manager.o(i.service_changed_cccd)
    i.service_changed_pending_flags_check    0x0002f5b8   Section        0  gatt_cache_manager.o(i.service_changed_pending_flags_check)
    service_changed_pending_flags_check      0x0002f5b9   Thumb Code    12  gatt_cache_manager.o(i.service_changed_pending_flags_check)
    i.service_changed_pending_set            0x0002f5cc   Section        0  gatts_cache_manager.o(i.service_changed_pending_set)
    service_changed_pending_set              0x0002f5cd   Thumb Code   128  gatts_cache_manager.o(i.service_changed_pending_set)
    i.service_changed_send_in_evt            0x0002f660   Section        0  gatt_cache_manager.o(i.service_changed_send_in_evt)
    service_changed_send_in_evt              0x0002f661   Thumb Code   180  gatt_cache_manager.o(i.service_changed_send_in_evt)
    i.sm_ble_evt_handler                     0x0002f764   Section        0  security_manager.o(i.sm_ble_evt_handler)
    i.sm_init                                0x0002f790   Section        0  security_manager.o(i.sm_init)
    i.sm_pdb_evt_handler                     0x0002f7e8   Section        0  security_manager.o(i.sm_pdb_evt_handler)
    i.sm_smd_evt_handler                     0x0002f82c   Section        0  security_manager.o(i.sm_smd_evt_handler)
    i.smd_ble_evt_handler                    0x0002f88c   Section        0  security_dispatcher.o(i.smd_ble_evt_handler)
    i.smd_init                               0x0002f9b0   Section        0  security_dispatcher.o(i.smd_init)
    i.smd_link_secure                        0x0002fa18   Section        0  security_dispatcher.o(i.smd_link_secure)
    i.smd_params_reply                       0x0002fa54   Section        0  security_dispatcher.o(i.smd_params_reply)
    i.smd_params_reply_perform               0x0002fb04   Section        0  security_manager.o(i.smd_params_reply_perform)
    smd_params_reply_perform                 0x0002fb05   Thumb Code    58  security_manager.o(i.smd_params_reply_perform)
    i.soc_evt_handler                        0x0002fb44   Section        0  nrf_drv_clock.o(i.soc_evt_handler)
    soc_evt_handler                          0x0002fb45   Thumb Code    18  nrf_drv_clock.o(i.soc_evt_handler)
    i.softdevice_evt_irq_disable             0x0002fb5c   Section        0  nrf_sdh.o(i.softdevice_evt_irq_disable)
    softdevice_evt_irq_disable               0x0002fb5d   Thumb Code    52  nrf_sdh.o(i.softdevice_evt_irq_disable)
    i.softdevices_evt_irq_enable             0x0002fb94   Section        0  nrf_sdh.o(i.softdevices_evt_irq_enable)
    softdevices_evt_irq_enable               0x0002fb95   Thumb Code    80  nrf_sdh.o(i.softdevices_evt_irq_enable)
    i.std_n                                  0x0002fbec   Section        0  nrf_log_frontend.o(i.std_n)
    std_n                                    0x0002fbed   Thumb Code   136  nrf_log_frontend.o(i.std_n)
    i.store_car_value                        0x0002fc78   Section        0  gatt_cache_manager.o(i.store_car_value)
    i.timer_list_handler                     0x0002fce4   Section        0  app_timer.o(i.timer_list_handler)
    timer_list_handler                       0x0002fce5   Thumb Code   122  app_timer.o(i.timer_list_handler)
    i.timer_list_insert                      0x0002fd64   Section        0  app_timer.o(i.timer_list_insert)
    timer_list_insert                        0x0002fd65   Thumb Code    56  app_timer.o(i.timer_list_insert)
    i.timer_list_remove                      0x0002fda0   Section        0  app_timer.o(i.timer_list_remove)
    timer_list_remove                        0x0002fda1   Thumb Code    88  app_timer.o(i.timer_list_remove)
    i.timer_stop_op_schedule                 0x0002fe00   Section        0  app_timer.o(i.timer_stop_op_schedule)
    timer_stop_op_schedule                   0x0002fe01   Thumb Code    68  app_timer.o(i.timer_stop_op_schedule)
    i.timer_timeouts_check                   0x0002fe48   Section        0  app_timer.o(i.timer_timeouts_check)
    timer_timeouts_check                     0x0002fe49   Thumb Code   106  app_timer.o(i.timer_timeouts_check)
    i.tx_byte                                0x0002febc   Section        0  nrfx_uart.o(i.tx_byte)
    tx_byte                                  0x0002febd   Thumb Code    32  nrfx_uart.o(i.tx_byte)
    i.tx_done_event                          0x0002fedc   Section        0  nrfx_uart.o(i.tx_done_event)
    tx_done_event                            0x0002fedd   Thumb Code    26  nrfx_uart.o(i.tx_done_event)
    i.uart_event_handler                     0x0002fef8   Section        0  app_uart_fifo.o(i.uart_event_handler)
    uart_event_handler                       0x0002fef9   Thumb Code   152  app_uart_fifo.o(i.uart_event_handler)
    i.uart_evt_handler                       0x0002ff98   Section        0  nrf_drv_uart.o(i.uart_evt_handler)
    uart_evt_handler                         0x0002ff99   Thumb Code    42  nrf_drv_uart.o(i.uart_evt_handler)
    i.uart_irq_handler                       0x0002ffc8   Section        0  nrfx_uart.o(i.uart_irq_handler)
    uart_irq_handler                         0x0002ffc9   Thumb Code   296  nrfx_uart.o(i.uart_irq_handler)
    i.uarte_evt_handler                      0x000300f0   Section        0  nrf_drv_uart.o(i.uarte_evt_handler)
    uarte_evt_handler                        0x000300f1   Thumb Code    42  nrf_drv_uart.o(i.uarte_evt_handler)
    i.uarte_irq_handler                      0x00030120   Section        0  nrfx_uarte.o(i.uarte_irq_handler)
    uarte_irq_handler                        0x00030121   Thumb Code   242  nrfx_uarte.o(i.uarte_irq_handler)
    i.uninit                                 0x00030214   Section        0  nrf_fstorage_sd.o(i.uninit)
    uninit                                   0x00030215   Thumb Code    22  nrf_fstorage_sd.o(i.uninit)
    i.unsigned_print                         0x00030234   Section        0  nrf_fprintf_format.o(i.unsigned_print)
    unsigned_print                           0x00030235   Thumb Code   176  nrf_fprintf_format.o(i.unsigned_print)
    i.update_pending_flags_check             0x000302e8   Section        0  gatt_cache_manager.o(i.update_pending_flags_check)
    update_pending_flags_check               0x000302e9   Thumb Code    34  gatt_cache_manager.o(i.update_pending_flags_check)
    i.user_flag_is_acquired                  0x00030318   Section        0  ble_conn_state.o(i.user_flag_is_acquired)
    user_flag_is_acquired                    0x00030319   Thumb Code     8  ble_conn_state.o(i.user_flag_is_acquired)
    i.user_op_alloc                          0x00030324   Section        0  app_timer.o(i.user_op_alloc)
    user_op_alloc                            0x00030325   Thumb Code    42  app_timer.o(i.user_op_alloc)
    i.wmap                                   0x00030354   Section        0  nrf_fstorage_sd.o(i.wmap)
    wmap                                     0x00030355   Thumb Code     4  nrf_fstorage_sd.o(i.wmap)
    i.write                                  0x00030358   Section        0  nrf_fstorage_sd.o(i.write)
    write                                    0x00030359   Thumb Code    74  nrf_fstorage_sd.o(i.write)
    i.write_buf_store                        0x000303a8   Section        0  peer_database.o(i.write_buf_store)
    i.write_buffer_record_find               0x000304f4   Section        0  peer_database.o(i.write_buffer_record_find)
    write_buffer_record_find                 0x000304f5   Thumb Code    52  peer_database.o(i.write_buffer_record_find)
    i.write_buffer_record_find_next          0x00030528   Section        0  peer_database.o(i.write_buffer_record_find_next)
    write_buffer_record_find_next            0x00030529   Thumb Code    42  peer_database.o(i.write_buffer_record_find_next)
    i.write_buffer_record_invalidate         0x00030558   Section        0  peer_database.o(i.write_buffer_record_invalidate)
    write_buffer_record_invalidate           0x00030559   Thumb Code    28  peer_database.o(i.write_buffer_record_invalidate)
    i.write_buffer_record_release            0x00030574   Section        0  peer_database.o(i.write_buffer_record_release)
    write_buffer_record_release              0x00030575   Thumb Code    38  peer_database.o(i.write_buffer_record_release)
    i.write_enqueue                          0x000305a0   Section        0  fds.o(i.write_enqueue)
    write_enqueue                            0x000305a1   Thumb Code   222  fds.o(i.write_enqueue)
    i.write_execute                          0x00030688   Section        0  fds.o(i.write_execute)
    write_execute                            0x00030689   Thumb Code   230  fds.o(i.write_execute)
    i.write_space_free                       0x0003077c   Section        0  fds.o(i.write_space_free)
    write_space_free                         0x0003077d   Thumb Code    20  fds.o(i.write_space_free)
    i.write_space_reserve                    0x00030794   Section        0  fds.o(i.write_space_reserve)
    write_space_reserve                      0x00030795   Thumb Code    88  fds.o(i.write_space_reserve)
    .constdata                               0x000307f0   Section       28  communication.o(.constdata)
    m_nus_uuid                               0x000307f0   Data           4  communication.o(.constdata)
    .constdata                               0x0003080c   Section        8  boards.o(.constdata)
    m_board_led_list                         0x0003080c   Data           4  boards.o(.constdata)
    m_board_btn_list                         0x00030810   Data           4  boards.o(.constdata)
    .constdata                               0x00030814   Section       44  bsp.o(.constdata)
    m_bsp_leds_tmr                           0x00030814   Data           4  bsp.o(.constdata)
    m_bsp_alert_tmr                          0x00030818   Data           4  bsp.o(.constdata)
    m_bsp_button_tmr                         0x0003081c   Data           4  bsp.o(.constdata)
    app_buttons                              0x00030820   Data          32  bsp.o(.constdata)
    .constdata                               0x00030840   Section      124  ble_db_discovery.o(.constdata)
    .constdata                               0x000308bc   Section       22  nrf_ble_gatt.o(.constdata)
    .constdata                               0x000308d4   Section       40  ble_nus_c.o(.constdata)
    .constdata                               0x000308fc   Section        4  nrfx_gpiote.o(.constdata)
    .constdata                               0x00030900   Section        4  nrfx_uart.o(.constdata)
    irq_handlers                             0x00030900   Data           4  nrfx_uart.o(.constdata)
    .constdata                               0x00030904   Section        4  nrfx_uarte.o(.constdata)
    irq_handlers                             0x00030904   Data           4  nrfx_uarte.o(.constdata)
    .constdata                               0x00030908   Section       24  fds.o(.constdata)
    m_queue                                  0x00030908   Data           4  fds.o(.constdata)
    dirty_header                             0x0003090c   Data           4  fds.o(.constdata)
    page_tag_swap                            0x00030910   Data           8  fds.o(.constdata)
    page_tag_data                            0x00030918   Data           8  fds.o(.constdata)
    .constdata                               0x00030920   Section       94  nrf_fstorage.o(.constdata)
    __func__                                 0x00030920   Data          18  nrf_fstorage.o(.constdata)
    __func__                                 0x00030932   Data          20  nrf_fstorage.o(.constdata)
    __func__                                 0x00030946   Data          18  nrf_fstorage.o(.constdata)
    __func__                                 0x00030958   Data          19  nrf_fstorage.o(.constdata)
    __func__                                 0x0003096b   Data          19  nrf_fstorage.o(.constdata)
    .constdata                               0x00030980   Section       16  nrf_fstorage_sd.o(.constdata)
    m_fifo                                   0x00030980   Data           4  nrf_fstorage_sd.o(.constdata)
    m_flash_info                             0x00030984   Data          12  nrf_fstorage_sd.o(.constdata)
    .constdata                               0x00030990   Section       32  nrf_fstorage_sd.o(.constdata)
    .constdata                               0x000309b0   Section        8  app_button.o(.constdata)
    m_detection_delay_timer_id               0x000309b4   Data           4  app_button.o(.constdata)
    .constdata                               0x000309c0   Section        6  app_timer.o(.constdata)
    delay_machine_code                       0x000309c0   Data           6  app_timer.o(.constdata)
    .constdata                               0x000309c6   Section       16  nrf_fprintf_format.o(.constdata)
    _aV2C                                    0x000309c6   Data          16  nrf_fprintf_format.o(.constdata)
    .constdata                               0x000309d8   Section       24  nrf_pwr_mgmt.o(.constdata)
    pwr_mgmt_data_array                      0x000309d8   Data          24  nrf_pwr_mgmt.o(.constdata)
    .constdata                               0x000309f0   Section       12  nrf_pwr_mgmt.o(.constdata)
    pwr_mgmt_data                            0x000309f0   Data          12  nrf_pwr_mgmt.o(.constdata)
    .constdata                               0x000309fc   Section      316  nrf_strerror.o(.constdata)
    m_unknown_str                            0x000309fc   Data          19  nrf_strerror.o(.constdata)
    nrf_strerror_array                       0x00030a10   Data         296  nrf_strerror.o(.constdata)
    .constdata                               0x00030b38   Section       32  app_uart_fifo.o(.constdata)
    .constdata                               0x00030b58   Section       44  peer_manager.o(.constdata)
    __func__                                 0x00030b58   Data           8  peer_manager.o(.constdata)
    __func__                                 0x00030b68   Data          12  peer_manager.o(.constdata)
    __func__                                 0x00030b74   Data          16  peer_manager.o(.constdata)
    .constdata                               0x00030b84   Section       16  peer_database.o(.constdata)
    m_evt_handlers                           0x00030b84   Data          16  peer_database.o(.constdata)
    .constdata                               0x00030b94   Section      124  gatt_cache_manager.o(.constdata)
    car_value_true                           0x00030b98   Data           4  gatt_cache_manager.o(.constdata)
    car_value_false                          0x00030b9c   Data           4  gatt_cache_manager.o(.constdata)
    .constdata                               0x00030c10   Section        4  gatts_cache_manager.o(.constdata)
    service_changed_pending                  0x00030c10   Data           4  gatts_cache_manager.o(.constdata)
    .constdata                               0x00030c14   Section       16  gatts_cache_manager.o(.constdata)
    .constdata                               0x00030c24   Section        4  gatts_cache_manager.o(.constdata)
    service_changed_pending                  0x00030c24   Data           4  gatts_cache_manager.o(.constdata)
    .constdata                               0x00030c28   Section        8  id_manager.o(.constdata)
    m_evt_handlers                           0x00030c28   Data           8  id_manager.o(.constdata)
    .constdata                               0x00030c30   Section       28  peer_data_storage.o(.constdata)
    m_evt_handlers                           0x00030c30   Data           4  peer_data_storage.o(.constdata)
    .constdata                               0x00030c4c   Section      164  security_dispatcher.o(.constdata)
    m_evt_handlers                           0x00030c4c   Data           4  security_dispatcher.o(.constdata)
    __func__                                 0x00030cc8   Data          16  security_dispatcher.o(.constdata)
    .constdata                               0x00030cf0   Section        4  security_manager.o(.constdata)
    m_evt_handlers                           0x00030cf0   Data           4  security_manager.o(.constdata)
    .constdata                               0x00030cf4   Section       12  nrf_log_backend_rtt.o(.constdata)
    .constdata                               0x00030d00   Section        6  nrf_log_backend_rtt.o(.constdata)
    delay_machine_code                       0x00030d00   Data           6  nrf_log_backend_rtt.o(.constdata)
    .constdata                               0x00030d08   Section       12  nrf_log_frontend.o(.constdata)
    m_log_push_ringbuf                       0x00030d08   Data          12  nrf_log_frontend.o(.constdata)
    .constdata                               0x00030d14   Section       16  nrf_sdh.o(.constdata)
    sdh_req_observers_array                  0x00030d14   Data          16  nrf_sdh.o(.constdata)
    .constdata                               0x00030d24   Section       40  nrf_sdh.o(.constdata)
    sdh_req_observers                        0x00030d28   Data          12  nrf_sdh.o(.constdata)
    sdh_state_observers                      0x00030d34   Data          12  nrf_sdh.o(.constdata)
    sdh_stack_observers                      0x00030d40   Data          12  nrf_sdh.o(.constdata)
    .constdata                               0x00030d4c   Section       16  nrf_sdh.o(.constdata)
    sdh_state_observers_array                0x00030d4c   Data          16  nrf_sdh.o(.constdata)
    .constdata                               0x00030d5c   Section       16  nrf_sdh.o(.constdata)
    sdh_stack_observers_array                0x00030d5c   Data          16  nrf_sdh.o(.constdata)
    .constdata                               0x00030d6c   Section       32  nrf_sdh_ble.o(.constdata)
    sdh_ble_observers_array                  0x00030d6c   Data          32  nrf_sdh_ble.o(.constdata)
    .constdata                               0x00030d8c   Section       16  nrf_sdh_ble.o(.constdata)
    sdh_ble_observers                        0x00030d90   Data          12  nrf_sdh_ble.o(.constdata)
    .constdata                               0x00030d9c   Section       16  nrf_sdh_soc.o(.constdata)
    sdh_soc_observers_array                  0x00030d9c   Data          16  nrf_sdh_soc.o(.constdata)
    .constdata                               0x00030dac   Section       12  nrf_sdh_soc.o(.constdata)
    sdh_soc_observers                        0x00030dac   Data          12  nrf_sdh_soc.o(.constdata)
    .constdata                               0x00030db8   Section      129  ctype_o.o(.constdata)
    .constdata                               0x00030e3c   Section        4  ctype_o.o(.constdata)
    table                                    0x00030e3c   Data           4  ctype_o.o(.constdata)
    .conststring                             0x00030e40   Section      324  ble_db_discovery.o(.conststring)
    .conststring                             0x00030f84   Section      318  nrf_ble_gatt.o(.conststring)
    .conststring                             0x000310c4   Section       79  nrf_fstorage.o(.conststring)
    .conststring                             0x00031114   Section     1003  nrf_strerror.o(.conststring)
    .conststring                             0x00031500   Section       72  peer_manager.o(.conststring)
    .conststring                             0x00031548   Section      384  peer_database.o(.conststring)
    .conststring                             0x000316c8   Section      420  gatt_cache_manager.o(.conststring)
    .conststring                             0x0003186c   Section      412  gatts_cache_manager.o(.conststring)
    .conststring                             0x00031a08   Section      232  peer_data_storage.o(.conststring)
    .conststring                             0x00031af0   Section      774  security_dispatcher.o(.conststring)
    .conststring                             0x00031df8   Section      379  security_manager.o(.conststring)
    .conststring                             0x00031f74   Section      102  nrf_log_str_formatter.o(.conststring)
    .conststring                             0x00031fdc   Section      392  nrf_sdh_ble.o(.conststring)
    .conststrlit                             0x00032164   Section       12  ble_db_discovery.o(.conststrlit)
    .conststrlit                             0x00032170   Section       13  nrf_ble_gatt.o(.conststrlit)
    .conststrlit                             0x00032180   Section        9  nrf_ble_scan.o(.conststrlit)
    .conststrlit                             0x0003218c   Section       10  ble_nus_c.o(.conststrlit)
    .conststrlit                             0x00032198   Section        6  nrf_drv_clock.o(.conststrlit)
    .conststrlit                             0x000321a0   Section        6  nrfx_clock.o(.conststrlit)
    .conststrlit                             0x000321a8   Section        7  nrfx_gpiote.o(.conststrlit)
    .conststrlit                             0x000321b0   Section        4  nrfx_prs.o(.conststrlit)
    .conststrlit                             0x000321b4   Section        5  nrfx_uart.o(.conststrlit)
    .conststrlit                             0x000321bc   Section        6  nrfx_uarte.o(.conststrlit)
    .conststrlit                             0x000321c4   Section       13  nrf_fstorage.o(.conststrlit)
    .conststrlit                             0x000321d4   Section        9  nrf_pwr_mgmt.o(.conststrlit)
    .conststrlit                             0x000321e0   Section       13  peer_manager.o(.conststrlit)
    .conststrlit                             0x000321f0   Section       17  peer_database.o(.conststrlit)
    .conststrlit                             0x00032204   Section       17  gatt_cache_manager.o(.conststrlit)
    .conststrlit                             0x00032218   Section       18  gatts_cache_manager.o(.conststrlit)
    .conststrlit                             0x0003222c   Section       16  id_manager.o(.conststrlit)
    .conststrlit                             0x0003223c   Section       17  peer_data_storage.o(.conststrlit)
    .conststrlit                             0x00032250   Section       17  security_dispatcher.o(.conststrlit)
    .conststrlit                             0x00032264   Section       16  security_manager.o(.conststrlit)
    .conststrlit                             0x00032274   Section       16  nrf_log_default_backends.o(.conststrlit)
    .conststrlit                             0x00032284   Section        4  nrf_log_frontend.o(.conststrlit)
    .conststrlit                             0x00032288   Section        8  nrf_sdh.o(.conststrlit)
    .conststrlit                             0x00032290   Section       12  nrf_sdh_ble.o(.conststrlit)
    .conststrlit                             0x0003229c   Section       12  nrf_sdh_soc.o(.conststrlit)
    log_backends                             0x000322c8   Section       16  nrf_log_default_backends.o(log_backends)
    __tagsym$$used                           0x000322c8   Number         0  nrf_log_default_backends.o(log_backends)
    rtt_log_backend                          0x000322c8   Data          16  nrf_log_default_backends.o(log_backends)
    log_const_data                           0x000322d8   Section        8  ble_db_discovery.o(log_const_data)
    __tagsym$$used                           0x000322d8   Number         0  ble_db_discovery.o(log_const_data)
    log_const_data                           0x000322e0   Section        8  nrf_ble_gatt.o(log_const_data)
    __tagsym$$used                           0x000322e0   Number         0  nrf_ble_gatt.o(log_const_data)
    log_const_data                           0x000322e8   Section        8  nrf_ble_scan.o(log_const_data)
    __tagsym$$used                           0x000322e8   Number         0  nrf_ble_scan.o(log_const_data)
    log_const_data                           0x000322f0   Section        8  ble_nus_c.o(log_const_data)
    __tagsym$$used                           0x000322f0   Number         0  ble_nus_c.o(log_const_data)
    log_const_data                           0x000322f8   Section        8  nrf_drv_clock.o(log_const_data)
    __tagsym$$used                           0x000322f8   Number         0  nrf_drv_clock.o(log_const_data)
    log_const_data                           0x00032300   Section        8  nrfx_clock.o(log_const_data)
    __tagsym$$used                           0x00032300   Number         0  nrfx_clock.o(log_const_data)
    log_const_data                           0x00032308   Section        8  nrfx_gpiote.o(log_const_data)
    __tagsym$$used                           0x00032308   Number         0  nrfx_gpiote.o(log_const_data)
    log_const_data                           0x00032310   Section        8  nrfx_prs.o(log_const_data)
    __tagsym$$used                           0x00032310   Number         0  nrfx_prs.o(log_const_data)
    log_const_data                           0x00032318   Section        8  nrfx_uart.o(log_const_data)
    __tagsym$$used                           0x00032318   Number         0  nrfx_uart.o(log_const_data)
    log_const_data                           0x00032320   Section        8  nrfx_uarte.o(log_const_data)
    __tagsym$$used                           0x00032320   Number         0  nrfx_uarte.o(log_const_data)
    log_const_data                           0x00032328   Section        8  nrf_fstorage.o(log_const_data)
    __tagsym$$used                           0x00032328   Number         0  nrf_fstorage.o(log_const_data)
    log_const_data                           0x00032330   Section        8  nrf_pwr_mgmt.o(log_const_data)
    __tagsym$$used                           0x00032330   Number         0  nrf_pwr_mgmt.o(log_const_data)
    log_const_data                           0x00032338   Section        8  peer_manager.o(log_const_data)
    __tagsym$$used                           0x00032338   Number         0  peer_manager.o(log_const_data)
    log_const_data                           0x00032340   Section        8  peer_database.o(log_const_data)
    __tagsym$$used                           0x00032340   Number         0  peer_database.o(log_const_data)
    log_const_data                           0x00032348   Section        8  gatt_cache_manager.o(log_const_data)
    __tagsym$$used                           0x00032348   Number         0  gatt_cache_manager.o(log_const_data)
    log_const_data                           0x00032350   Section        8  gatts_cache_manager.o(log_const_data)
    __tagsym$$used                           0x00032350   Number         0  gatts_cache_manager.o(log_const_data)
    log_const_data                           0x00032358   Section        8  id_manager.o(log_const_data)
    __tagsym$$used                           0x00032358   Number         0  id_manager.o(log_const_data)
    log_const_data                           0x00032360   Section        8  peer_data_storage.o(log_const_data)
    __tagsym$$used                           0x00032360   Number         0  peer_data_storage.o(log_const_data)
    log_const_data                           0x00032368   Section        8  security_dispatcher.o(log_const_data)
    __tagsym$$used                           0x00032368   Number         0  security_dispatcher.o(log_const_data)
    log_const_data                           0x00032370   Section        8  security_manager.o(log_const_data)
    __tagsym$$used                           0x00032370   Number         0  security_manager.o(log_const_data)
    log_const_data                           0x00032378   Section        8  nrf_log_frontend.o(log_const_data)
    __tagsym$$used                           0x00032378   Number         0  nrf_log_frontend.o(log_const_data)
    log_const_data                           0x00032380   Section        8  nrf_sdh.o(log_const_data)
    __tagsym$$used                           0x00032380   Number         0  nrf_sdh.o(log_const_data)
    log_const_data                           0x00032388   Section        8  nrf_sdh_ble.o(log_const_data)
    __tagsym$$used                           0x00032388   Number         0  nrf_sdh_ble.o(log_const_data)
    log_const_data                           0x00032390   Section        8  nrf_sdh_soc.o(log_const_data)
    __tagsym$$used                           0x00032390   Number         0  nrf_sdh_soc.o(log_const_data)
    nrf_balloc                               0x00032398   Section       20  nrf_log_frontend.o(nrf_balloc)
    __tagsym$$used                           0x00032398   Number         0  nrf_log_frontend.o(nrf_balloc)
    sdh_ble_observers0                       0x000323ac   Section        8  ble_conn_state.o(sdh_ble_observers0)
    __tagsym$$used                           0x000323ac   Number         0  ble_conn_state.o(sdh_ble_observers0)
    m_ble_evt_observer                       0x000323ac   Data           8  ble_conn_state.o(sdh_ble_observers0)
    sdh_ble_observers1                       0x000323b4   Section        8  main.o(sdh_ble_observers1)
    __tagsym$$used                           0x000323b4   Number         0  main.o(sdh_ble_observers1)
    m_gatt_obs                               0x000323b4   Data           8  main.o(sdh_ble_observers1)
    sdh_ble_observers1                       0x000323bc   Section       72  communication.o(sdh_ble_observers1)
    __tagsym$$used                           0x000323bc   Number         0  communication.o(sdh_ble_observers1)
    m_db_disc_obs                            0x000323bc   Data          64  communication.o(sdh_ble_observers1)
    __tagsym$$used                           0x000323fc   Number         0  communication.o(sdh_ble_observers1)
    m_scan_ble_obs                           0x000323fc   Data           8  communication.o(sdh_ble_observers1)
    sdh_ble_observers1                       0x00032404   Section        8  bsp_btn_ble.o(sdh_ble_observers1)
    __tagsym$$used                           0x00032404   Number         0  bsp_btn_ble.o(sdh_ble_observers1)
    m_ble_observer                           0x00032404   Data           8  bsp_btn_ble.o(sdh_ble_observers1)
    sdh_ble_observers1                       0x0003240c   Section        8  peer_manager.o(sdh_ble_observers1)
    __tagsym$$used                           0x0003240c   Number         0  peer_manager.o(sdh_ble_observers1)
    m_ble_evt_observer                       0x0003240c   Data           8  peer_manager.o(sdh_ble_observers1)
    sdh_ble_observers2                       0x00032414   Section       64  communication.o(sdh_ble_observers2)
    __tagsym$$used                           0x00032414   Number         0  communication.o(sdh_ble_observers2)
    m_ble_nus_c_obs                          0x00032414   Data          64  communication.o(sdh_ble_observers2)
    sdh_ble_observers3                       0x00032454   Section        8  communication.o(sdh_ble_observers3)
    __tagsym$$used                           0x00032454   Number         0  communication.o(sdh_ble_observers3)
    m_ble_observer                           0x00032454   Data           8  communication.o(sdh_ble_observers3)
    sdh_req_observers0                       0x0003245c   Section        8  nrf_fstorage_sd.o(sdh_req_observers0)
    __tagsym$$used                           0x0003245c   Number         0  nrf_fstorage_sd.o(sdh_req_observers0)
    sdh_soc_observers0                       0x00032464   Section        8  nrf_drv_clock.o(sdh_soc_observers0)
    __tagsym$$used                           0x00032464   Number         0  nrf_drv_clock.o(sdh_soc_observers0)
    m_soc_evt_observer                       0x00032464   Data           8  nrf_drv_clock.o(sdh_soc_observers0)
    sdh_soc_observers0                       0x0003246c   Section        8  nrf_fstorage_sd.o(sdh_soc_observers0)
    __tagsym$$used                           0x0003246c   Number         0  nrf_fstorage_sd.o(sdh_soc_observers0)
    m_sys_obs                                0x0003246c   Data           8  nrf_fstorage_sd.o(sdh_soc_observers0)
    sdh_stack_observers0                     0x00032474   Section        8  nrf_sdh_ble.o(sdh_stack_observers0)
    __tagsym$$used                           0x00032474   Number         0  nrf_sdh_ble.o(sdh_stack_observers0)
    m_nrf_sdh_ble_evts_poll                  0x00032474   Data           8  nrf_sdh_ble.o(sdh_stack_observers0)
    sdh_stack_observers0                     0x0003247c   Section        8  nrf_sdh_soc.o(sdh_stack_observers0)
    __tagsym$$used                           0x0003247c   Number         0  nrf_sdh_soc.o(sdh_stack_observers0)
    m_nrf_sdh_soc_evts_poll                  0x0003247c   Data           8  nrf_sdh_soc.o(sdh_stack_observers0)
    sdh_state_observers0                     0x00032484   Section        8  nrf_drv_clock.o(sdh_state_observers0)
    __tagsym$$used                           0x00032484   Number         0  nrf_drv_clock.o(sdh_state_observers0)
    m_sd_state_observer                      0x00032484   Data           8  nrf_drv_clock.o(sdh_state_observers0)
    sdh_state_observers0                     0x0003248c   Section        8  nrf_fstorage_sd.o(sdh_state_observers0)
    __tagsym$$used                           0x0003248c   Number         0  nrf_fstorage_sd.o(sdh_state_observers0)
    m_state_obs                              0x0003248c   Data           8  nrf_fstorage_sd.o(sdh_state_observers0)
    .data                                    0x20004368   Section     5732  communication.o(.data)
    m_ble_nus_max_data_len                   0x20004368   Data           2  communication.o(.data)
    index                                    0x2000436a   Data           2  communication.o(.data)
    m_db_disc                                0x2000436c   Data        5728  communication.o(.data)
    .data                                    0x200059cc   Section       16  bsp.o(.data)
    m_stable_state                           0x200059cc   Data           1  bsp.o(.data)
    m_leds_clear                             0x200059cd   Data           1  bsp.o(.data)
    m_alert_on                               0x200059ce   Data           1  bsp.o(.data)
    current_long_push_pin_no                 0x200059cf   Data           1  bsp.o(.data)
    m_indication_type                        0x200059d0   Data           4  bsp.o(.data)
    m_registered_callback                    0x200059d4   Data           4  bsp.o(.data)
    release_event_at_push                    0x200059d8   Data           4  bsp.o(.data)
    .data                                    0x200059dc   Section        8  bsp_btn_ble.o(.data)
    m_error_handler                          0x200059dc   Data           4  bsp_btn_ble.o(.data)
    m_num_connections                        0x200059e0   Data           4  bsp_btn_ble.o(.data)
    .data                                    0x200059e4   Section       16  ble_db_discovery.o(.data)
    m_initialized                            0x200059e4   Data           1  ble_db_discovery.o(.data)
    m_evt_handler                            0x200059e8   Data           4  ble_db_discovery.o(.data)
    m_pending_usr_evt_index                  0x200059ec   Data           4  ble_db_discovery.o(.data)
    m_num_of_handlers_reg                    0x200059f0   Data           4  ble_db_discovery.o(.data)
    .data                                    0x200059f4   Section       12  nrf_drv_uart.o(.data)
    m_handlers                               0x200059f8   Data           4  nrf_drv_uart.o(.data)
    m_contexts                               0x200059fc   Data           4  nrf_drv_uart.o(.data)
    .data                                    0x20005a00   Section        8  nrfx_clock.o(.data)
    m_clock_cb                               0x20005a00   Data           8  nrfx_clock.o(.data)
    .data                                    0x20005a08   Section        8  nrfx_prs.o(.data)
    m_prs_box_4                              0x20005a08   Data           8  nrfx_prs.o(.data)
    .data                                    0x20005a10   Section       48  fds.o(.data)
    page                                     0x20005a10   Data           2  fds.o(.data)
    m_p_cur_op                               0x20005a14   Data           4  fds.o(.data)
    m_iget_ctx                               0x20005a18   Data           4  fds.o(.data)
    m_queued_op_cnt                          0x20005a1c   Data           4  fds.o(.data)
    m_users                                  0x20005a20   Data           4  fds.o(.data)
    m_latest_rec_id                          0x20005a24   Data           4  fds.o(.data)
    tok                                      0x20005a28   Data           8  fds.o(.data)
    m_flags                                  0x20005a30   Data           8  fds.o(.data)
    m_swap_page                              0x20005a38   Data           8  fds.o(.data)
    .data                                    0x20005a40   Section        8  nrf_fstorage_sd.o(.data)
    m_p_cur_op                               0x20005a40   Data           4  nrf_fstorage_sd.o(.data)
    m_iget_ctx                               0x20005a44   Data           4  nrf_fstorage_sd.o(.data)
    .data                                    0x20005a48   Section       32  app_button.o(.data)
    m_button_count                           0x20005a48   Data           1  app_button.o(.data)
    mp_buttons                               0x20005a4c   Data           4  app_button.o(.data)
    m_detection_delay                        0x20005a50   Data           4  app_button.o(.data)
    m_pin_state                              0x20005a58   Data           8  app_button.o(.data)
    m_pin_transition                         0x20005a60   Data           8  app_button.o(.data)
    .data                                    0x20005a68   Section       20  app_timer.o(.data)
    m_ticks_elapsed_q_read_ind               0x20005a68   Data           1  app_timer.o(.data)
    m_ticks_elapsed_q_write_ind              0x20005a69   Data           1  app_timer.o(.data)
    m_rtc1_running                           0x20005a6a   Data           1  app_timer.o(.data)
    m_rtc1_reset                             0x20005a6b   Data           1  app_timer.o(.data)
    mp_timer_id_head                         0x20005a6c   Data           4  app_timer.o(.data)
    m_ticks_latest                           0x20005a70   Data           4  app_timer.o(.data)
    m_ticks_elapsed                          0x20005a74   Data           8  app_timer.o(.data)
    .data                                    0x20005a7c   Section        8  nrf_pwr_mgmt.o(.data)
    m_pwr_mgmt_evt                           0x20005a7c   Data           1  nrf_pwr_mgmt.o(.data)
    m_shutdown_started                       0x20005a7d   Data           1  nrf_pwr_mgmt.o(.data)
    m_sysoff_mtx                             0x20005a80   Data           4  nrf_pwr_mgmt.o(.data)
    .data                                    0x20005a84   Section       28  app_uart_fifo.o(.data)
    tx_buffer                                0x20005a84   Data           1  app_uart_fifo.o(.data)
    rx_buffer                                0x20005a85   Data           1  app_uart_fifo.o(.data)
    m_rx_ovf                                 0x20005a86   Data           1  app_uart_fifo.o(.data)
    m_event_handler                          0x20005a88   Data           4  app_uart_fifo.o(.data)
    app_uart_inst                            0x20005a8c   Data          20  app_uart_fifo.o(.data)
    .data                                    0x20005aa0   Section       16  peer_manager.o(.data)
    m_module_initialized                     0x20005aa0   Data           1  peer_manager.o(.data)
    m_peer_rank_initialized                  0x20005aa1   Data           1  peer_manager.o(.data)
    m_deleting_all                           0x20005aa2   Data           1  peer_manager.o(.data)
    m_n_registrants                          0x20005aa3   Data           1  peer_manager.o(.data)
    m_highest_ranked_peer                    0x20005aa4   Data           2  peer_manager.o(.data)
    m_peer_rank_token                        0x20005aa8   Data           4  peer_manager.o(.data)
    m_current_highest_peer_rank              0x20005aac   Data           4  peer_manager.o(.data)
    .data                                    0x20005ab0   Section        8  peer_database.o(.data)
    m_pending_store                          0x20005ab0   Data           1  peer_database.o(.data)
    m_module_initialized                     0x20005ab1   Data           1  peer_database.o(.data)
    mutex_memory                             0x20005ab4   Data           4  peer_database.o(.data)
    .data                                    0x20005ab8   Section       16  gatt_cache_manager.o(.data)
    m_module_initialized                     0x20005ab8   Data           1  gatt_cache_manager.o(.data)
    m_flag_local_db_update_pending           0x20005ab9   Data           1  gatt_cache_manager.o(.data)
    m_flag_local_db_apply_pending            0x20005aba   Data           1  gatt_cache_manager.o(.data)
    m_flag_service_changed_pending           0x20005abb   Data           1  gatt_cache_manager.o(.data)
    m_flag_service_changed_sent              0x20005abc   Data           1  gatt_cache_manager.o(.data)
    m_flag_car_update_pending                0x20005abd   Data           1  gatt_cache_manager.o(.data)
    m_flag_car_handle_queried                0x20005abe   Data           1  gatt_cache_manager.o(.data)
    m_flag_car_value_queried                 0x20005abf   Data           1  gatt_cache_manager.o(.data)
    m_evt_handlers                           0x20005ac0   Data           4  gatt_cache_manager.o(.data)
    m_db_update_in_progress_mutex            0x20005ac4   Data           4  gatt_cache_manager.o(.data)
    .data                                    0x20005ac8   Section       12  gatts_cache_manager.o(.data)
    m_module_initialized                     0x20005ac8   Data           1  gatts_cache_manager.o(.data)
    start_handle                             0x20005aca   Data           2  gatts_cache_manager.o(.data)
    m_current_sc_store_peer_id               0x20005acc   Data           2  gatts_cache_manager.o(.data)
    m_evt_handlers                           0x20005ad0   Data           4  gatts_cache_manager.o(.data)
    .data                                    0x20005ad4   Section       12  peer_data_storage.o(.data)
    m_module_initialized                     0x20005ad4   Data           1  peer_data_storage.o(.data)
    m_peer_delete_deferred                   0x20005ad5   Data           1  peer_data_storage.o(.data)
    m_fds_ftok                               0x20005ad8   Data           8  peer_data_storage.o(.data)
    .data                                    0x20005ae0   Section        5  security_dispatcher.o(.data)
    m_flag_sec_proc                          0x20005ae0   Data           1  security_dispatcher.o(.data)
    m_flag_sec_proc_pairing                  0x20005ae1   Data           1  security_dispatcher.o(.data)
    m_flag_sec_proc_bonding                  0x20005ae2   Data           1  security_dispatcher.o(.data)
    m_flag_allow_repairing                   0x20005ae3   Data           1  security_dispatcher.o(.data)
    m_module_initialized                     0x20005ae4   Data           1  security_dispatcher.o(.data)
    .data                                    0x20005ae8   Section       21  security_manager.o(.data)
    m_sec_params_set                         0x20005ae8   Data           1  security_manager.o(.data)
    m_flag_link_secure_pending_busy          0x20005ae9   Data           1  security_manager.o(.data)
    m_flag_link_secure_force_repairing       0x20005aea   Data           1  security_manager.o(.data)
    m_flag_link_secure_null_params           0x20005aeb   Data           1  security_manager.o(.data)
    m_flag_params_reply_pending_busy         0x20005aec   Data           1  security_manager.o(.data)
    m_module_initialized                     0x20005aed   Data           1  security_manager.o(.data)
    mp_sec_params                            0x20005af0   Data           4  security_manager.o(.data)
    m_p_public_key                           0x20005af4   Data           4  security_manager.o(.data)
    m_sec_params                             0x20005af8   Data           5  security_manager.o(.data)
    .data                                    0x20005afd   Section        1  nrf_log_backend_rtt.o(.data)
    m_host_present                           0x20005afd   Data           1  nrf_log_backend_rtt.o(.data)
    .data                                    0x20005b00   Section        8  nrf_log_default_backends.o(.data)
    log_backend_cb_rtt_log_backend           0x20005b00   Data           8  nrf_log_default_backends.o(.data)
    .data                                    0x20005b08   Section        8  nrf_log_frontend.o(.data)
    log_mempool_nrf_balloc_pool_stack        0x20005b08   Data           8  nrf_log_frontend.o(.data)
    .data                                    0x20005b10   Section        8  nrf_log_frontend.o(.data)
    log_mempool_nrf_balloc_cb                0x20005b10   Data           8  nrf_log_frontend.o(.data)
    .data                                    0x20005b18   Section       64  nrf_log_str_formatter.o(.data)
    m_freq                                   0x20005b18   Data           4  nrf_log_str_formatter.o(.data)
    m_timestamp_div                          0x20005b1c   Data           4  nrf_log_str_formatter.o(.data)
    severity_names                           0x20005b20   Data          20  nrf_log_str_formatter.o(.data)
    m_colors                                 0x20005b34   Data          36  nrf_log_str_formatter.o(.data)
    .data                                    0x20005b58   Section        3  nrf_sdh.o(.data)
    m_nrf_sdh_enabled                        0x20005b58   Data           1  nrf_sdh.o(.data)
    m_nrf_sdh_suspended                      0x20005b59   Data           1  nrf_sdh.o(.data)
    m_nrf_sdh_continue                       0x20005b5a   Data           1  nrf_sdh.o(.data)
    .data                                    0x20005b5b   Section        1  nrf_sdh_ble.o(.data)
    m_stack_is_enabled                       0x20005b5b   Data           1  nrf_sdh_ble.o(.data)
    .data                                    0x20005b5c   Section        4  system_nrf52.o(.data)
    __tagsym$$used                           0x20005b5c   Number         0  system_nrf52.o(.data)
    fs_data                                  0x20005b60   Section       20  fds.o(fs_data)
    __tagsym$$used                           0x20005b60   Number         0  fds.o(fs_data)
    .bss                                     0x20005b74   Section       76  main.o(.bss)
    m_gatt                                   0x20005b74   Data          76  main.o(.bss)
    .bss                                     0x20005bc0   Section      740  communication.o(.bss)
    rx_buf                                   0x20005bc0   Data         256  communication.o(.bss)
    tx_buf                                   0x20005cc0   Data         256  communication.o(.bss)
    data_array                               0x20005dc0   Data          20  communication.o(.bss)
    m_ble_nus_c                              0x20005dd4   Data         128  communication.o(.bss)
    m_scan                                   0x20005e54   Data          80  communication.o(.bss)
    .bss                                     0x20005ea4   Section       32  bsp.o(.bss)
    m_bsp_leds_tmr_data                      0x20005ea4   Data          32  bsp.o(.bss)
    .bss                                     0x20005ec4   Section       32  bsp.o(.bss)
    m_bsp_alert_tmr_data                     0x20005ec4   Data          32  bsp.o(.bss)
    .bss                                     0x20005ee4   Section       12  bsp.o(.bss)
    m_events_list                            0x20005ee4   Data          12  bsp.o(.bss)
    .bss                                     0x20005ef0   Section       32  bsp.o(.bss)
    m_bsp_button_tmr_data                    0x20005ef0   Data          32  bsp.o(.bss)
    .bss                                     0x20005f10   Section      120  ble_conn_state.o(.bss)
    m_bcs                                    0x20005f10   Data         120  ble_conn_state.o(.bss)
    .bss                                     0x20005f88   Section      792  ble_db_discovery.o(.bss)
    m_registered_handlers                    0x20005f88   Data          24  ble_db_discovery.o(.bss)
    m_pending_user_evts                      0x20005fa0   Data         768  ble_db_discovery.o(.bss)
    .bss                                     0x200062a0   Section       20  nrf_drv_clock.o(.bss)
    m_clock_cb                               0x200062a0   Data          20  nrf_drv_clock.o(.bss)
    .bss                                     0x200062b4   Section       92  nrfx_gpiote.o(.bss)
    m_cb                                     0x200062b4   Data          92  nrfx_gpiote.o(.bss)
    .bss                                     0x20006310   Section       44  nrfx_uart.o(.bss)
    m_cb                                     0x20006310   Data          44  nrfx_uart.o(.bss)
    .bss                                     0x2000633c   Section       36  nrfx_uarte.o(.bss)
    m_cb                                     0x2000633c   Data          36  nrfx_uarte.o(.bss)
    .bss                                     0x20006360   Section       16  fds.o(.bss)
    m_queue_inst                             0x20006360   Data          16  fds.o(.bss)
    .bss                                     0x20006370   Section      224  fds.o(.bss)
    desc                                     0x20006370   Data          12  fds.o(.bss)
    m_cb_table                               0x2000637c   Data          16  fds.o(.bss)
    m_queue_data                             0x2000638c   Data         140  fds.o(.bss)
    m_pages                                  0x20006418   Data          40  fds.o(.bss)
    m_gc                                     0x20006440   Data          16  fds.o(.bss)
    .bss                                     0x20006450   Section       16  nrf_fstorage_sd.o(.bss)
    m_fifo_inst                              0x20006450   Data          16  nrf_fstorage_sd.o(.bss)
    .bss                                     0x20006460   Section      160  nrf_fstorage_sd.o(.bss)
    m_fifo_data                              0x20006460   Data         140  nrf_fstorage_sd.o(.bss)
    m_flags                                  0x200064ec   Data          20  nrf_fstorage_sd.o(.bss)
    .bss                                     0x20006500   Section       32  app_button.o(.bss)
    m_detection_delay_timer_id_data          0x20006500   Data          32  app_button.o(.bss)
    .bss                                     0x20006520   Section      268  app_timer.o(.bss)
    m_op_queue                               0x20006520   Data         268  app_timer.o(.bss)
    .bss                                     0x2000662c   Section       12  app_util_platform.o(.bss)
    .bss                                     0x20006638   Section       12  nrf_pwr_mgmt.o(.bss)
    m_handlers_iter                          0x20006638   Data          12  nrf_pwr_mgmt.o(.bss)
    .bss                                     0x20006644   Section       32  app_uart_fifo.o(.bss)
    m_rx_fifo                                0x20006644   Data          16  app_uart_fifo.o(.bss)
    m_tx_fifo                                0x20006654   Data          16  app_uart_fifo.o(.bss)
    .bss                                     0x20006664   Section       12  peer_manager.o(.bss)
    m_evt_handlers                           0x20006664   Data          12  peer_manager.o(.bss)
    .bss                                     0x20006670   Section      384  peer_database.o(.bss)
    buffer_memory                            0x20006670   Data         320  peer_database.o(.bss)
    m_write_buffer                           0x200067b0   Data          16  peer_database.o(.bss)
    m_write_buffer_records                   0x200067c0   Data          48  peer_database.o(.bss)
    .bss                                     0x200067f0   Section      216  id_manager.o(.bss)
    m_connections                            0x200067f0   Data         200  id_manager.o(.bss)
    m_wlisted_peers                          0x200068b8   Data          16  id_manager.o(.bss)
    .bss                                     0x200068c8   Section       64  security_dispatcher.o(.bss)
    m_peer_pk                                0x200068c8   Data          64  security_dispatcher.o(.bss)
    .bss                                     0x20006908   Section       64  peer_id.o(.bss)
    m_pi                                     0x20006908   Data          64  peer_id.o(.bss)
    .bss                                     0x20006948   Section       64  nrf_log_backend_rtt.o(.bss)
    m_string_buff                            0x20006948   Data          64  nrf_log_backend_rtt.o(.bss)
    .bss                                     0x20006988   Section      192  nrf_log_frontend.o(.bss)
    log_mempool_nrf_balloc_pool_mem          0x20006988   Data         192  nrf_log_frontend.o(.bss)
    .bss                                     0x20006a48   Section      128  nrf_log_frontend.o(.bss)
    m_log_push_ringbuf_buf                   0x20006a48   Data         128  nrf_log_frontend.o(.bss)
    .bss                                     0x20006ac8   Section       24  nrf_log_frontend.o(.bss)
    m_log_push_ringbuf_cb                    0x20006ac8   Data          24  nrf_log_frontend.o(.bss)
    .bss                                     0x20006ae0   Section     1060  nrf_log_frontend.o(.bss)
    m_log_data                               0x20006ae0   Data        1060  nrf_log_frontend.o(.bss)
    .bss                                     0x20006f04   Section      648  segger_rtt.o(.bss)
    _acUpBuffer                              0x20006f7c   Data         512  segger_rtt.o(.bss)
    _acDownBuffer                            0x2000717c   Data          16  segger_rtt.o(.bss)
    STACK                                    0x20007190   Section     8192  arm_startup_nrf52.o(STACK)

    Global Symbols

    Symbol Name                              Value     Ov Type        Size  Object(Section)

    BuildAttributes$$THM_ISAv4$E$P$D$K$B$S$7EM$VFPi3$EXTD16$VFPS$VFMA$PE$A:L22UL41UL21$X:L11$S22US41US21$IEEE1$IW$USESV6$~STKCKD$USESV7$~SHL$OSPACE$EBA8$MICROLIB$REQ8$EABIv2 0x00000000   Number         0  anon$$obj.o ABSOLUTE
    __ARM_use_no_argv                        0x00000000   Number         0  main.o ABSOLUTE
    __cpp_initialize__aeabi_                  - Undefined Weak Reference
    __cxa_finalize                            - Undefined Weak Reference
    _clock_init                               - Undefined Weak Reference
    _microlib_exit                            - Undefined Weak Reference
    log_dynamic_data$$Base                    - Undefined Reference
    pwr_mgmt_data0$$Base                      - Undefined Reference
    pwr_mgmt_data0$$Limit                     - Undefined Reference
    pwr_mgmt_data1$$Base                      - Undefined Reference
    pwr_mgmt_data1$$Limit                     - Undefined Reference
    pwr_mgmt_data2$$Base                      - Undefined Reference
    pwr_mgmt_data2$$Limit                     - Undefined Reference
    sdh_req_observers1$$Base                  - Undefined Reference
    sdh_req_observers1$$Limit                 - Undefined Reference
    sdh_soc_observers1$$Base                  - Undefined Reference
    sdh_soc_observers1$$Limit                 - Undefined Reference
    sdh_stack_observers1$$Base                - Undefined Reference
    sdh_stack_observers1$$Limit               - Undefined Reference
    sdh_state_observers1$$Base                - Undefined Reference
    sdh_state_observers1$$Limit               - Undefined Reference
    __Vectors_Size                           0x00000200   Number         0  arm_startup_nrf52.o ABSOLUTE
    __Vectors                                0x00026000   Data           4  arm_startup_nrf52.o(RESET)
    __Vectors_End                            0x00026200   Data           0  arm_startup_nrf52.o(RESET)
    __main                                   0x00026201   Thumb Code     0  entry.o(.ARM.Collect$$$$00000000)
    _main_stk                                0x00026201   Thumb Code     0  entry2.o(.ARM.Collect$$$$00000001)
    _main_scatterload                        0x00026205   Thumb Code     0  entry5.o(.ARM.Collect$$$$00000004)
    __main_after_scatterload                 0x00026209   Thumb Code     0  entry5.o(.ARM.Collect$$$$00000004)
    _main_clock                              0x00026209   Thumb Code     0  entry7b.o(.ARM.Collect$$$$00000008)
    _main_cpp_init                           0x00026209   Thumb Code     0  entry8b.o(.ARM.Collect$$$$0000000A)
    _main_init                               0x00026209   Thumb Code     0  entry9a.o(.ARM.Collect$$$$0000000B)
    __rt_final_cpp                           0x00026211   Thumb Code     0  entry10a.o(.ARM.Collect$$$$0000000D)
    __rt_final_exit                          0x00026211   Thumb Code     0  entry11a.o(.ARM.Collect$$$$0000000F)
    __asm___12_nrf_atomic_c_85ca2469__nrf_atomic_internal_mov 0x00026215   Thumb Code    24  nrf_atomic.o(.emb_text)
    __asm___12_nrf_atomic_c_85ca2469__nrf_atomic_internal_orr 0x0002622d   Thumb Code    26  nrf_atomic.o(.emb_text)
    __asm___12_nrf_atomic_c_85ca2469__nrf_atomic_internal_and 0x00026247   Thumb Code    26  nrf_atomic.o(.emb_text)
    __asm___12_nrf_atomic_c_85ca2469__nrf_atomic_internal_eor 0x00026261   Thumb Code    26  nrf_atomic.o(.emb_text)
    __asm___12_nrf_atomic_c_85ca2469__nrf_atomic_internal_add 0x0002627b   Thumb Code    26  nrf_atomic.o(.emb_text)
    __asm___12_nrf_atomic_c_85ca2469__nrf_atomic_internal_sub 0x00026295   Thumb Code    26  nrf_atomic.o(.emb_text)
    __asm___12_nrf_atomic_c_85ca2469__nrf_atomic_internal_cmp_exch 0x000262af   Thumb Code    42  nrf_atomic.o(.emb_text)
    __asm___12_nrf_atomic_c_85ca2469__nrf_atomic_internal_sub_hs 0x000262d9   Thumb Code    30  nrf_atomic.o(.emb_text)
    __asm___12_nrf_atfifo_c_51f461e1__nrf_atfifo_wspace_req 0x000262f9   Thumb Code    56  nrf_atfifo.o(.emb_text)
    __asm___12_nrf_atfifo_c_51f461e1__nrf_atfifo_wspace_close 0x00026331   Thumb Code    18  nrf_atfifo.o(.emb_text)
    __asm___12_nrf_atfifo_c_51f461e1__nrf_atfifo_rspace_req 0x00026343   Thumb Code    58  nrf_atfifo.o(.emb_text)
    __asm___12_nrf_atfifo_c_51f461e1__nrf_atfifo_rspace_close 0x0002637d   Thumb Code    18  nrf_atfifo.o(.emb_text)
    __asm___12_nrf_atfifo_c_51f461e1__nrf_atfifo_space_clear 0x0002638f   Thumb Code    50  nrf_atfifo.o(.emb_text)
    Reset_Handler                            0x000263c1   Thumb Code     8  arm_startup_nrf52.o(.text)
    NMI_Handler                              0x000263c9   Thumb Code     2  arm_startup_nrf52.o(.text)
    HardFault_Handler                        0x000263cb   Thumb Code     2  arm_startup_nrf52.o(.text)
    MemoryManagement_Handler                 0x000263cd   Thumb Code     2  arm_startup_nrf52.o(.text)
    BusFault_Handler                         0x000263cf   Thumb Code     2  arm_startup_nrf52.o(.text)
    UsageFault_Handler                       0x000263d1   Thumb Code     2  arm_startup_nrf52.o(.text)
    SVC_Handler                              0x000263d3   Thumb Code     2  arm_startup_nrf52.o(.text)
    DebugMon_Handler                         0x000263d5   Thumb Code     2  arm_startup_nrf52.o(.text)
    PendSV_Handler                           0x000263d7   Thumb Code     2  arm_startup_nrf52.o(.text)
    SysTick_Handler                          0x000263d9   Thumb Code     2  arm_startup_nrf52.o(.text)
    CCM_AAR_IRQHandler                       0x000263db   Thumb Code     0  arm_startup_nrf52.o(.text)
    COMP_LPCOMP_IRQHandler                   0x000263db   Thumb Code     0  arm_startup_nrf52.o(.text)
    ECB_IRQHandler                           0x000263db   Thumb Code     0  arm_startup_nrf52.o(.text)
    FPU_IRQHandler                           0x000263db   Thumb Code     0  arm_startup_nrf52.o(.text)
    I2S_IRQHandler                           0x000263db   Thumb Code     0  arm_startup_nrf52.o(.text)
    MWU_IRQHandler                           0x000263db   Thumb Code     0  arm_startup_nrf52.o(.text)
    NFCT_IRQHandler                          0x000263db   Thumb Code     0  arm_startup_nrf52.o(.text)
    PDM_IRQHandler                           0x000263db   Thumb Code     0  arm_startup_nrf52.o(.text)
    PWM0_IRQHandler                          0x000263db   Thumb Code     0  arm_startup_nrf52.o(.text)
    PWM1_IRQHandler                          0x000263db   Thumb Code     0  arm_startup_nrf52.o(.text)
    PWM2_IRQHandler                          0x000263db   Thumb Code     0  arm_startup_nrf52.o(.text)
    QDEC_IRQHandler                          0x000263db   Thumb Code     0  arm_startup_nrf52.o(.text)
    RADIO_IRQHandler                         0x000263db   Thumb Code     0  arm_startup_nrf52.o(.text)
    RNG_IRQHandler                           0x000263db   Thumb Code     0  arm_startup_nrf52.o(.text)
    RTC0_IRQHandler                          0x000263db   Thumb Code     0  arm_startup_nrf52.o(.text)
    RTC2_IRQHandler                          0x000263db   Thumb Code     0  arm_startup_nrf52.o(.text)
    SAADC_IRQHandler                         0x000263db   Thumb Code     0  arm_startup_nrf52.o(.text)
    SPIM0_SPIS0_TWIM0_TWIS0_SPI0_TWI0_IRQHandler 0x000263db   Thumb Code     0  arm_startup_nrf52.o(.text)
    SPIM1_SPIS1_TWIM1_TWIS1_SPI1_TWI1_IRQHandler 0x000263db   Thumb Code     0  arm_startup_nrf52.o(.text)
    SPIM2_SPIS2_SPI2_IRQHandler              0x000263db   Thumb Code     0  arm_startup_nrf52.o(.text)
    SWI1_EGU1_IRQHandler                     0x000263db   Thumb Code     0  arm_startup_nrf52.o(.text)
    SWI3_EGU3_IRQHandler                     0x000263db   Thumb Code     0  arm_startup_nrf52.o(.text)
    SWI4_EGU4_IRQHandler                     0x000263db   Thumb Code     0  arm_startup_nrf52.o(.text)
    SWI5_EGU5_IRQHandler                     0x000263db   Thumb Code     0  arm_startup_nrf52.o(.text)
    TEMP_IRQHandler                          0x000263db   Thumb Code     0  arm_startup_nrf52.o(.text)
    TIMER0_IRQHandler                        0x000263db   Thumb Code     0  arm_startup_nrf52.o(.text)
    TIMER1_IRQHandler                        0x000263db   Thumb Code     0  arm_startup_nrf52.o(.text)
    TIMER2_IRQHandler                        0x000263db   Thumb Code     0  arm_startup_nrf52.o(.text)
    TIMER3_IRQHandler                        0x000263db   Thumb Code     0  arm_startup_nrf52.o(.text)
    TIMER4_IRQHandler                        0x000263db   Thumb Code     0  arm_startup_nrf52.o(.text)
    WDT_IRQHandler                           0x000263db   Thumb Code     0  arm_startup_nrf52.o(.text)
    __aeabi_uldivmod                         0x000263e5   Thumb Code    98  uldiv.o(.text)
    __aeabi_llsl                             0x00026447   Thumb Code    30  llshl.o(.text)
    _ll_shift_l                              0x00026447   Thumb Code     0  llshl.o(.text)
    __rt_ctype_table                         0x00026465   Thumb Code     4  ctype_o.o(.text)
    __aeabi_memcpy                           0x0002646d   Thumb Code    36  memcpya.o(.text)
    __aeabi_memcpy4                          0x0002646d   Thumb Code     0  memcpya.o(.text)
    __aeabi_memcpy8                          0x0002646d   Thumb Code     0  memcpya.o(.text)
    __aeabi_memset                           0x00026491   Thumb Code    14  memseta.o(.text)
    __aeabi_memset4                          0x00026491   Thumb Code     0  memseta.o(.text)
    __aeabi_memset8                          0x00026491   Thumb Code     0  memseta.o(.text)
    __aeabi_memclr                           0x0002649f   Thumb Code     4  memseta.o(.text)
    __aeabi_memclr4                          0x0002649f   Thumb Code     0  memseta.o(.text)
    __aeabi_memclr8                          0x0002649f   Thumb Code     0  memseta.o(.text)
    _memset$wrapper                          0x000264a3   Thumb Code    18  memseta.o(.text)
    strlen                                   0x000264b5   Thumb Code    14  strlen.o(.text)
    memcmp                                   0x000264c3   Thumb Code    26  memcmp.o(.text)
    strcpy                                   0x000264dd   Thumb Code    18  strcpy.o(.text)
    __aeabi_llsr                             0x000264ef   Thumb Code    32  llushr.o(.text)
    _ll_ushift_r                             0x000264ef   Thumb Code     0  llushr.o(.text)
    __scatterload                            0x00026511   Thumb Code    28  init.o(.text)
    __scatterload_rt2                        0x00026511   Thumb Code     0  init.o(.text)
    __decompress                             0x00026535   Thumb Code     0  __dczerorl2.o(.text)
    __decompress1                            0x00026535   Thumb Code    86  __dczerorl2.o(.text)
    BLE_Discovery_Initialization             0x000267e9   Thumb Code    22  communication.o(i.BLE_Discovery_Initialization)
    BLE_ProtocolStack_Initialization         0x000269d5   Thumb Code    46  communication.o(i.BLE_ProtocolStack_Initialization)
    BLE_Scan_Initialization                  0x00026a05   Thumb Code    74  communication.o(i.BLE_Scan_Initialization)
    BLE_Scan_Start                           0x00026a5d   Thumb Code    34  communication.o(i.BLE_Scan_Start)
    GPIOTE_IRQHandler                        0x00026b01   Thumb Code   346  nrfx_gpiote.o(i.GPIOTE_IRQHandler)
    NUSc_Initialization                      0x00026c65   Thumb Code    36  communication.o(i.NUSc_Initialization)
    POWER_CLOCK_IRQHandler                   0x00026cf5   Thumb Code    82  nrfx_clock.o(i.POWER_CLOCK_IRQHandler)
    RTC1_IRQHandler                          0x00026d4d   Thumb Code    32  app_timer.o(i.RTC1_IRQHandler)
    SEGGER_RTT_Init                          0x00026d71   Thumb Code     4  segger_rtt.o(i.SEGGER_RTT_Init)
    SEGGER_RTT_WriteNoLock                   0x00026d75   Thumb Code    86  segger_rtt.o(i.SEGGER_RTT_WriteNoLock)
    SWI0_EGU0_IRQHandler                     0x00026dd1   Thumb Code     4  app_timer.o(i.SWI0_EGU0_IRQHandler)
    SWI2_EGU2_IRQHandler                     0x00026dd5   Thumb Code     4  nrf_sdh.o(i.SWI2_EGU2_IRQHandler)
    SystemInit                               0x00026e79   Thumb Code   726  system_nrf52.o(i.SystemInit)
    TestingFnc                               0x00027195   Thumb Code    52  communication.o(i.TestingFnc)
    UARTE0_UART0_IRQHandler                  0x000271fd   Thumb Code     6  nrfx_prs.o(i.UARTE0_UART0_IRQHandler)
    UART_Initialization                      0x0002732d   Thumb Code    54  communication.o(i.UART_Initialization)
    __scatterload_copy                       0x0002748f   Thumb Code    14  handlers.o(i.__scatterload_copy)
    __scatterload_null                       0x0002749d   Thumb Code     2  handlers.o(i.__scatterload_null)
    __scatterload_zeroinit                   0x0002749f   Thumb Code    14  handlers.o(i.__scatterload_zeroinit)
    active_flag_count                        0x000274d1   Thumb Code    28  ble_conn_state.o(i.active_flag_count)
    addr_compare                             0x000274ed   Thumb Code    38  id_manager.o(i.addr_compare)
    ah                                       0x0002756d   Thumb Code    82  id_manager.o(i.ah)
    app_button_disable                       0x000275d1   Thumb Code    38  app_button.o(i.app_button_disable)
    app_button_enable                        0x00027601   Thumb Code    32  app_button.o(i.app_button_enable)
    app_button_init                          0x00027625   Thumb Code   102  app_button.o(i.app_button_init)
    app_error_fault_handler                  0x0002769d   Thumb Code    86  app_error_weak.o(i.app_error_fault_handler)
    app_error_handler_bare                   0x00027721   Thumb Code    22  app_error.o(i.app_error_handler_bare)
    app_fifo_get                             0x00027737   Thumb Code    22  app_fifo.o(i.app_fifo_get)
    app_fifo_init                            0x0002774d   Thumb Code    32  app_fifo.o(i.app_fifo_init)
    app_fifo_put                             0x0002776d   Thumb Code    26  app_fifo.o(i.app_fifo_put)
    app_timer_create                         0x00027789   Thumb Code    36  app_timer.o(i.app_timer_create)
    app_timer_init                           0x000277b1   Thumb Code    70  app_timer.o(i.app_timer_init)
    app_timer_start                          0x00027805   Thumb Code   128  app_timer.o(i.app_timer_start)
    app_timer_stop                           0x0002788d   Thumb Code    26  app_timer.o(i.app_timer_stop)
    app_uart_get                             0x000278ad   Thumb Code    42  app_uart_fifo.o(i.app_uart_get)
    app_uart_init                            0x000278e1   Thumb Code   148  app_uart_fifo.o(i.app_uart_init)
    app_uart_put                             0x00027985   Thumb Code    70  app_uart_fifo.o(i.app_uart_put)
    app_util_critical_region_enter           0x000279d9   Thumb Code    64  app_util_platform.o(i.app_util_critical_region_enter)
    app_util_critical_region_exit            0x00027a21   Thumb Code    46  app_util_platform.o(i.app_util_critical_region_exit)
    bcs_internal_state_reset                 0x00027ce9   Thumb Code     8  ble_conn_state.o(i.bcs_internal_state_reset)
    ble_advdata_search                       0x00027cf5   Thumb Code    56  ble_advdata.o(i.ble_advdata_search)
    ble_advdata_uuid_find                    0x00027d2d   Thumb Code   182  ble_advdata.o(i.ble_advdata_uuid_find)
    ble_conn_state_central_conn_count        0x00027de5   Thumb Code    24  ble_conn_state.o(i.ble_conn_state_central_conn_count)
    ble_conn_state_encrypted                 0x00027e01   Thumb Code    26  ble_conn_state.o(i.ble_conn_state_encrypted)
    ble_conn_state_for_each_set_user_flag    0x00027e21   Thumb Code    38  ble_conn_state.o(i.ble_conn_state_for_each_set_user_flag)
    ble_conn_state_init                      0x00027e4d   Thumb Code     4  ble_conn_state.o(i.ble_conn_state_init)
    ble_conn_state_role                      0x00027e51   Thumb Code    32  ble_conn_state.o(i.ble_conn_state_role)
    ble_conn_state_user_flag_acquire         0x00027e75   Thumb Code    18  ble_conn_state.o(i.ble_conn_state_user_flag_acquire)
    ble_conn_state_user_flag_get             0x00027e8d   Thumb Code    44  ble_conn_state.o(i.ble_conn_state_user_flag_get)
    ble_conn_state_user_flag_set             0x00027ebd   Thumb Code    58  ble_conn_state.o(i.ble_conn_state_user_flag_set)
    ble_conn_state_valid                     0x00027efd   Thumb Code    16  ble_conn_state.o(i.ble_conn_state_valid)
    ble_db_discovery_evt_register            0x00027f11   Thumb Code    56  ble_db_discovery.o(i.ble_db_discovery_evt_register)
    ble_db_discovery_init                    0x00027f51   Thumb Code    24  ble_db_discovery.o(i.ble_db_discovery_init)
    ble_db_discovery_on_ble_evt              0x00027f6d   Thumb Code   138  ble_db_discovery.o(i.ble_db_discovery_on_ble_evt)
    ble_db_discovery_start                   0x00027ffd   Thumb Code    34  ble_db_discovery.o(i.ble_db_discovery_start)
    ble_nus_c_handles_assign                 0x000281c1   Thumb Code    26  ble_nus_c.o(i.ble_nus_c_handles_assign)
    ble_nus_c_init                           0x000281dd   Thumb Code    72  ble_nus_c.o(i.ble_nus_c_init)
    ble_nus_c_on_ble_evt                     0x00028229   Thumb Code   134  ble_nus_c.o(i.ble_nus_c_on_ble_evt)
    ble_nus_c_on_db_disc_evt                 0x000282d1   Thumb Code   128  ble_nus_c.o(i.ble_nus_c_on_db_disc_evt)
    ble_nus_c_string_send                    0x00028351   Thumb Code    86  ble_nus_c.o(i.ble_nus_c_string_send)
    ble_nus_c_tx_notif_enable                0x000283e5   Thumb Code    66  ble_nus_c.o(i.ble_nus_c_tx_notif_enable)
    bsp_board_button_state_get               0x0002842d   Thumb Code    28  boards.o(i.bsp_board_button_state_get)
    bsp_board_init                           0x0002844d   Thumb Code    80  boards.o(i.bsp_board_init)
    bsp_board_led_invert                     0x000284a1   Thumb Code    32  boards.o(i.bsp_board_led_invert)
    bsp_board_led_off                        0x000284c5   Thumb Code    10  boards.o(i.bsp_board_led_off)
    bsp_board_led_on                         0x000284d5   Thumb Code    10  boards.o(i.bsp_board_led_on)
    bsp_board_led_state_get                  0x000284e5   Thumb Code    28  boards.o(i.bsp_board_led_state_get)
    bsp_board_leds_off                       0x00028505   Thumb Code    18  boards.o(i.bsp_board_leds_off)
    bsp_board_leds_on                        0x00028517   Thumb Code    18  boards.o(i.bsp_board_leds_on)
    bsp_board_pin_to_button_idx              0x00028529   Thumb Code    30  boards.o(i.bsp_board_pin_to_button_idx)
    bsp_btn_ble_init                         0x0002854d   Thumb Code    52  bsp_btn_ble.o(i.bsp_btn_ble_init)
    bsp_button_is_pressed                    0x00028615   Thumb Code    12  bsp.o(i.bsp_button_is_pressed)
    bsp_event_handler                        0x00028621   Thumb Code    36  main.o(i.bsp_event_handler)
    bsp_event_to_button_action_assign        0x00028645   Thumb Code    64  bsp.o(i.bsp_event_to_button_action_assign)
    bsp_indication_set                       0x00028689   Thumb Code    20  bsp.o(i.bsp_indication_set)
    bsp_init                                 0x000286a1   Thumb Code   128  bsp.o(i.bsp_init)
    buffer_is_empty                          0x000289bd   Thumb Code    16  nrf_log_frontend.o(i.buffer_is_empty)
    conn_handle_list_get                     0x00028c25   Thumb Code    62  ble_conn_state.o(i.conn_handle_list_get)
    fds_file_delete                          0x00029485   Thumb Code    62  fds.o(i.fds_file_delete)
    fds_init                                 0x000294c9   Thumb Code   202  fds.o(i.fds_init)
    fds_record_close                         0x000295a9   Thumb Code    60  fds.o(i.fds_record_close)
    fds_record_find                          0x000295e9   Thumb Code    14  fds.o(i.fds_record_find)
    fds_record_find_by_key                   0x000295f7   Thumb Code    16  fds.o(i.fds_record_find_by_key)
    fds_record_find_in_file                  0x00029607   Thumb Code    16  fds.o(i.fds_record_find_in_file)
    fds_record_id_from_desc                  0x00029617   Thumb Code    16  fds.o(i.fds_record_id_from_desc)
    fds_record_open                          0x00029629   Thumb Code    66  fds.o(i.fds_record_open)
    fds_record_update                        0x00029671   Thumb Code    14  fds.o(i.fds_record_update)
    fds_record_write                         0x0002967f   Thumb Code     8  fds.o(i.fds_record_write)
    fds_register                             0x00029689   Thumb Code    36  fds.o(i.fds_register)
    gcm_ble_evt_handler                      0x00029965   Thumb Code   358  gatt_cache_manager.o(i.gcm_ble_evt_handler)
    gcm_im_evt_handler                       0x00029b95   Thumb Code    54  gatt_cache_manager.o(i.gcm_im_evt_handler)
    gcm_init                                 0x00029bd1   Thumb Code   130  gatt_cache_manager.o(i.gcm_init)
    gcm_pdb_evt_handler                      0x00029c65   Thumb Code   130  gatt_cache_manager.o(i.gcm_pdb_evt_handler)
    gscm_db_change_notification_done         0x00029d71   Thumb Code    22  gatts_cache_manager.o(i.gscm_db_change_notification_done)
    gscm_init                                0x00029d8d   Thumb Code    16  gatts_cache_manager.o(i.gscm_init)
    gscm_local_db_cache_apply                0x00029da1   Thumb Code   130  gatts_cache_manager.o(i.gscm_local_db_cache_apply)
    gscm_local_db_cache_update               0x00029e31   Thumb Code   158  gatts_cache_manager.o(i.gscm_local_db_cache_update)
    gscm_pdb_evt_handler                     0x00029edd   Thumb Code    18  gatts_cache_manager.o(i.gscm_pdb_evt_handler)
    gscm_service_changed_ind_needed          0x00029ef5   Thumb Code    30  gatts_cache_manager.o(i.gscm_service_changed_ind_needed)
    gscm_service_changed_ind_send            0x00029f15   Thumb Code    76  gatts_cache_manager.o(i.gscm_service_changed_ind_send)
    im_address_resolve                       0x00029fa9   Thumb Code    70  id_manager.o(i.im_address_resolve)
    im_ble_addr_get                          0x00029ff1   Thumb Code    50  id_manager.o(i.im_ble_addr_get)
    im_ble_evt_handler                       0x0002a029   Thumb Code   210  id_manager.o(i.im_ble_evt_handler)
    im_conn_handle_get                       0x0002a105   Thumb Code    58  id_manager.o(i.im_conn_handle_get)
    im_find_duplicate_bonding_data           0x0002a145   Thumb Code    56  id_manager.o(i.im_find_duplicate_bonding_data)
    im_is_duplicate_bonding_data             0x0002a17d   Thumb Code   114  id_manager.o(i.im_is_duplicate_bonding_data)
    im_master_id_is_valid                    0x0002a1ef   Thumb Code    24  id_manager.o(i.im_master_id_is_valid)
    im_master_ids_compare                    0x0002a207   Thumb Code    42  id_manager.o(i.im_master_ids_compare)
    im_new_peer_id                           0x0002a231   Thumb Code    16  id_manager.o(i.im_new_peer_id)
    im_peer_free                             0x0002a245   Thumb Code    40  id_manager.o(i.im_peer_free)
    im_peer_id_get_by_conn_handle            0x0002a271   Thumb Code    32  id_manager.o(i.im_peer_id_get_by_conn_handle)
    im_peer_id_get_by_master_id              0x0002a295   Thumb Code    60  id_manager.o(i.im_peer_id_get_by_master_id)
    is_valid_irk                             0x0002a581   Thumb Code    20  id_manager.o(i.is_valid_irk)
    is_whitelist_used                        0x0002a595   Thumb Code    22  nrf_ble_scan.o(i.is_whitelist_used)
    main                                     0x0002aba1   Thumb Code   166  main.o(i.main)
    next_id_get                              0x0002ad71   Thumb Code    48  peer_id.o(i.next_id_get)
    nrf_atfifo_clear                         0x0002ada1   Thumb Code    16  nrf_atfifo.o(i.nrf_atfifo_clear)
    nrf_atfifo_init                          0x0002adb1   Thumb Code    38  nrf_atfifo.o(i.nrf_atfifo_init)
    nrf_atfifo_item_alloc                    0x0002add7   Thumb Code    22  nrf_atfifo.o(i.nrf_atfifo_item_alloc)
    nrf_atfifo_item_free                     0x0002aded   Thumb Code    22  nrf_atfifo.o(i.nrf_atfifo_item_free)
    nrf_atfifo_item_get                      0x0002ae03   Thumb Code    22  nrf_atfifo.o(i.nrf_atfifo_item_get)
    nrf_atfifo_item_put                      0x0002ae19   Thumb Code    22  nrf_atfifo.o(i.nrf_atfifo_item_put)
    nrf_atflags_clear                        0x0002ae2f   Thumb Code    22  nrf_atflags.o(i.nrf_atflags_clear)
    nrf_atflags_fetch_set                    0x0002ae45   Thumb Code    32  nrf_atflags.o(i.nrf_atflags_fetch_set)
    nrf_atflags_find_and_set_flag            0x0002ae65   Thumb Code    74  nrf_atflags.o(i.nrf_atflags_find_and_set_flag)
    nrf_atflags_get                          0x0002aeaf   Thumb Code    22  nrf_atflags.o(i.nrf_atflags_get)
    nrf_atflags_set                          0x0002aec5   Thumb Code    20  nrf_atflags.o(i.nrf_atflags_set)
    nrf_atomic_flag_clear_fetch              0x0002aed9   Thumb Code     6  nrf_atomic.o(i.nrf_atomic_flag_clear_fetch)
    nrf_atomic_flag_set                      0x0002aedf   Thumb Code     6  nrf_atomic.o(i.nrf_atomic_flag_set)
    nrf_atomic_flag_set_fetch                0x0002aee5   Thumb Code     6  nrf_atomic.o(i.nrf_atomic_flag_set_fetch)
    nrf_atomic_u32_add                       0x0002aeeb   Thumb Code    12  nrf_atomic.o(i.nrf_atomic_u32_add)
    nrf_atomic_u32_and                       0x0002aef7   Thumb Code    12  nrf_atomic.o(i.nrf_atomic_u32_and)
    nrf_atomic_u32_fetch_add                 0x0002af03   Thumb Code    10  nrf_atomic.o(i.nrf_atomic_u32_fetch_add)
    nrf_atomic_u32_fetch_and                 0x0002af0d   Thumb Code    10  nrf_atomic.o(i.nrf_atomic_u32_fetch_and)
    nrf_atomic_u32_fetch_or                  0x0002af17   Thumb Code    10  nrf_atomic.o(i.nrf_atomic_u32_fetch_or)
    nrf_atomic_u32_fetch_store               0x0002af21   Thumb Code    10  nrf_atomic.o(i.nrf_atomic_u32_fetch_store)
    nrf_atomic_u32_or                        0x0002af2b   Thumb Code    12  nrf_atomic.o(i.nrf_atomic_u32_or)
    nrf_atomic_u32_sub                       0x0002af37   Thumb Code    12  nrf_atomic.o(i.nrf_atomic_u32_sub)
    nrf_balloc_alloc                         0x0002af43   Thumb Code    68  nrf_balloc.o(i.nrf_balloc_alloc)
    nrf_balloc_free                          0x0002af87   Thumb Code    48  nrf_balloc.o(i.nrf_balloc_free)
    nrf_balloc_init                          0x0002afb7   Thumb Code    48  nrf_balloc.o(i.nrf_balloc_init)
    nrf_ble_gatt_init                        0x0002b00b   Thumb Code    44  nrf_ble_gatt.o(i.nrf_ble_gatt_init)
    nrf_ble_gatt_on_ble_evt                  0x0002b039   Thumb Code   186  nrf_ble_gatt.o(i.nrf_ble_gatt_on_ble_evt)
    nrf_ble_scan_filter_set                  0x0002b205   Thumb Code    98  nrf_ble_scan.o(i.nrf_ble_scan_filter_set)
    nrf_ble_scan_filters_disable             0x0002b289   Thumb Code    14  nrf_ble_scan.o(i.nrf_ble_scan_filters_disable)
    nrf_ble_scan_filters_enable              0x0002b297   Thumb Code    54  nrf_ble_scan.o(i.nrf_ble_scan_filters_enable)
    nrf_ble_scan_init                        0x0002b2cd   Thumb Code   106  nrf_ble_scan.o(i.nrf_ble_scan_init)
    nrf_ble_scan_on_ble_evt                  0x0002b435   Thumb Code   192  nrf_ble_scan.o(i.nrf_ble_scan_on_ble_evt)
    nrf_ble_scan_start                       0x0002b515   Thumb Code   104  nrf_ble_scan.o(i.nrf_ble_scan_start)
    nrf_drv_clock_init                       0x0002b5d5   Thumb Code    48  nrf_drv_clock.o(i.nrf_drv_clock_init)
    nrf_drv_clock_lfclk_release              0x0002b60d   Thumb Code    42  nrf_drv_clock.o(i.nrf_drv_clock_lfclk_release)
    nrf_drv_uart_init                        0x0002b63d   Thumb Code    90  nrf_drv_uart.o(i.nrf_drv_uart_init)
    nrf_fprintf                              0x0002b6e5   Thumb Code    26  nrf_fprintf.o(i.nrf_fprintf)
    nrf_fprintf_buffer_flush                 0x0002b6ff   Thumb Code    24  nrf_fprintf.o(i.nrf_fprintf_buffer_flush)
    nrf_fprintf_fmt                          0x0002b717   Thumb Code   474  nrf_fprintf_format.o(i.nrf_fprintf_fmt)
    nrf_fstorage_erase                       0x0002b8f1   Thumb Code   188  nrf_fstorage.o(i.nrf_fstorage_erase)
    nrf_fstorage_init                        0x0002ba29   Thumb Code    74  nrf_fstorage.o(i.nrf_fstorage_init)
    nrf_fstorage_sdh_req_handler             0x0002babd   Thumb Code    18  nrf_fstorage_sd.o(i.nrf_fstorage_sdh_req_handler)
    nrf_fstorage_sdh_state_handler           0x0002bad5   Thumb Code    28  nrf_fstorage_sd.o(i.nrf_fstorage_sdh_state_handler)
    nrf_fstorage_sys_evt_handler             0x0002baf5   Thumb Code   154  nrf_fstorage_sd.o(i.nrf_fstorage_sys_evt_handler)
    nrf_fstorage_write                       0x0002bb99   Thumb Code   242  nrf_fstorage.o(i.nrf_fstorage_write)
    nrf_log_backend_add                      0x0002bed5   Thumb Code    86  nrf_log_frontend.o(i.nrf_log_backend_add)
    nrf_log_backend_rtt_init                 0x0002bf33   Thumb Code     4  nrf_log_backend_rtt.o(i.nrf_log_backend_rtt_init)
    nrf_log_backend_serial_put               0x0002bf51   Thumb Code   200  nrf_log_backend_serial.o(i.nrf_log_backend_serial_put)
    nrf_log_color_id_get                     0x0002c019   Thumb Code    42  nrf_log_frontend.o(i.nrf_log_color_id_get)
    nrf_log_default_backends_init            0x0002c049   Thumb Code    24  nrf_log_default_backends.o(i.nrf_log_default_backends_init)
    nrf_log_frontend_dequeue                 0x0002c065   Thumb Code   528  nrf_log_frontend.o(i.nrf_log_frontend_dequeue)
    nrf_log_frontend_hexdump                 0x0002c299   Thumb Code   164  nrf_log_frontend.o(i.nrf_log_frontend_hexdump)
    nrf_log_frontend_std_0                   0x0002c341   Thumb Code     8  nrf_log_frontend.o(i.nrf_log_frontend_std_0)
    nrf_log_frontend_std_1                   0x0002c349   Thumb Code    14  nrf_log_frontend.o(i.nrf_log_frontend_std_1)
    nrf_log_frontend_std_2                   0x0002c357   Thumb Code    16  nrf_log_frontend.o(i.nrf_log_frontend_std_2)
    nrf_log_frontend_std_3                   0x0002c367   Thumb Code    18  nrf_log_frontend.o(i.nrf_log_frontend_std_3)
    nrf_log_frontend_std_6                   0x0002c379   Thumb Code    28  nrf_log_frontend.o(i.nrf_log_frontend_std_6)
    nrf_log_hexdump_entry_process            0x0002c395   Thumb Code   150  nrf_log_str_formatter.o(i.nrf_log_hexdump_entry_process)
    nrf_log_init                             0x0002c445   Thumb Code    46  nrf_log_frontend.o(i.nrf_log_init)
    nrf_log_module_cnt_get                   0x0002c481   Thumb Code    10  nrf_log_frontend.o(i.nrf_log_module_cnt_get)
    nrf_log_module_name_get                  0x0002c495   Thumb Code    24  nrf_log_frontend.o(i.nrf_log_module_name_get)
    nrf_log_panic                            0x0002c4b1   Thumb Code    38  nrf_log_frontend.o(i.nrf_log_panic)
    nrf_log_std_entry_process                0x0002c4dd   Thumb Code   182  nrf_log_str_formatter.o(i.nrf_log_std_entry_process)
    nrf_memobj_alloc                         0x0002c593   Thumb Code    96  nrf_memobj.o(i.nrf_memobj_alloc)
    nrf_memobj_free                          0x0002c5f3   Thumb Code    50  nrf_memobj.o(i.nrf_memobj_free)
    nrf_memobj_get                           0x0002c625   Thumb Code     8  nrf_memobj.o(i.nrf_memobj_get)
    nrf_memobj_pool_init                     0x0002c62d   Thumb Code     4  nrf_memobj.o(i.nrf_memobj_pool_init)
    nrf_memobj_put                           0x0002c631   Thumb Code    30  nrf_memobj.o(i.nrf_memobj_put)
    nrf_memobj_read                          0x0002c64f   Thumb Code    16  nrf_memobj.o(i.nrf_memobj_read)
    nrf_memobj_write                         0x0002c65f   Thumb Code    16  nrf_memobj.o(i.nrf_memobj_write)
    nrf_pwr_mgmt_init                        0x0002c671   Thumb Code    28  nrf_pwr_mgmt.o(i.nrf_pwr_mgmt_init)
    nrf_pwr_mgmt_run                         0x0002c699   Thumb Code    64  nrf_pwr_mgmt.o(i.nrf_pwr_mgmt_run)
    nrf_ringbuf_init                         0x0002c6dd   Thumb Code    28  nrf_ringbuf.o(i.nrf_ringbuf_init)
    nrf_sdh_ble_app_ram_start_get            0x0002c6f9   Thumb Code    16  nrf_sdh_ble.o(i.nrf_sdh_ble_app_ram_start_get)
    nrf_sdh_ble_default_cfg_set              0x0002c70d   Thumb Code   232  nrf_sdh_ble.o(i.nrf_sdh_ble_default_cfg_set)
    nrf_sdh_ble_enable                       0x0002c811   Thumb Code   116  nrf_sdh_ble.o(i.nrf_sdh_ble_enable)
    nrf_sdh_disable_request                  0x0002c99d   Thumb Code    80  nrf_sdh.o(i.nrf_sdh_disable_request)
    nrf_sdh_enable_request                   0x0002c9f1   Thumb Code   102  nrf_sdh.o(i.nrf_sdh_enable_request)
    nrf_sdh_evts_poll                        0x0002ca65   Thumb Code    32  nrf_sdh.o(i.nrf_sdh_evts_poll)
    nrf_sdh_is_enabled                       0x0002ca89   Thumb Code     6  nrf_sdh.o(i.nrf_sdh_is_enabled)
    nrf_sdh_request_continue                 0x0002ca95   Thumb Code    22  nrf_sdh.o(i.nrf_sdh_request_continue)
    nrf_section_iter_init                    0x0002caed   Thumb Code    10  nrf_section_iter.o(i.nrf_section_iter_init)
    nrf_section_iter_next                    0x0002cb1b   Thumb Code    32  nrf_section_iter.o(i.nrf_section_iter_next)
    nrf_strerror_find                        0x0002cb3d   Thumb Code    52  nrf_strerror.o(i.nrf_strerror_find)
    nrf_strerror_get                         0x0002cb75   Thumb Code    14  nrf_strerror.o(i.nrf_strerror_get)
    nrfx_clock_enable                        0x0002cbc1   Thumb Code    34  nrfx_clock.o(i.nrfx_clock_enable)
    nrfx_clock_init                          0x0002cbed   Thumb Code    26  nrfx_clock.o(i.nrfx_clock_init)
    nrfx_clock_lfclk_stop                    0x0002cc0d   Thumb Code    20  nrfx_clock.o(i.nrfx_clock_lfclk_stop)
    nrfx_gpiote_in_event_disable             0x0002cc39   Thumb Code    66  nrfx_gpiote.o(i.nrfx_gpiote_in_event_disable)
    nrfx_gpiote_in_event_enable              0x0002cc81   Thumb Code   156  nrfx_gpiote.o(i.nrfx_gpiote_in_event_enable)
    nrfx_gpiote_in_init                      0x0002cd25   Thumb Code   194  nrfx_gpiote.o(i.nrfx_gpiote_in_init)
    nrfx_gpiote_in_is_set                    0x0002cdf5   Thumb Code    20  nrfx_gpiote.o(i.nrfx_gpiote_in_is_set)
    nrfx_gpiote_init                         0x0002ce09   Thumb Code    94  nrfx_gpiote.o(i.nrfx_gpiote_init)
    nrfx_gpiote_is_init                      0x0002ce75   Thumb Code    14  nrfx_gpiote.o(i.nrfx_gpiote_is_init)
    nrfx_prs_acquire                         0x0002ce99   Thumb Code    58  nrfx_prs.o(i.nrfx_prs_acquire)
    nrfx_uart_0_irq_handler                  0x0002ced5   Thumb Code     8  nrfx_uart.o(i.nrfx_uart_0_irq_handler)
    nrfx_uart_init                           0x0002cee5   Thumb Code   196  nrfx_uart.o(i.nrfx_uart_init)
    nrfx_uart_rx                             0x0002cfb5   Thumb Code   230  nrfx_uart.o(i.nrfx_uart_rx)
    nrfx_uart_tx                             0x0002d0a1   Thumb Code   160  nrfx_uart.o(i.nrfx_uart_tx)
    nrfx_uart_tx_in_progress                 0x0002d145   Thumb Code    26  nrfx_uart.o(i.nrfx_uart_tx_in_progress)
    nrfx_uarte_0_irq_handler                 0x0002d165   Thumb Code     8  nrfx_uarte.o(i.nrfx_uarte_0_irq_handler)
    nrfx_uarte_init                          0x0002d175   Thumb Code   100  nrfx_uarte.o(i.nrfx_uarte_init)
    nrfx_uarte_rx                            0x0002d1e1   Thumb Code   256  nrfx_uarte.o(i.nrfx_uarte_rx)
    nrfx_uarte_tx                            0x0002d2e5   Thumb Code   138  nrfx_uarte.o(i.nrfx_uarte_tx)
    nrfx_uarte_tx_in_progress                0x0002d375   Thumb Code    22  nrfx_uarte.o(i.nrfx_uarte_tx_in_progress)
    pdb_init                                 0x0002df0d   Thumb Code    90  peer_database.o(i.pdb_init)
    pdb_pds_evt_handler                      0x0002df9d   Thumb Code   116  peer_database.o(i.pdb_pds_evt_handler)
    pdb_peer_data_ptr_get                    0x0002e019   Thumb Code     6  peer_database.o(i.pdb_peer_data_ptr_get)
    pdb_peer_free                            0x0002e021   Thumb Code   124  peer_database.o(i.pdb_peer_free)
    pdb_write_buf_get                        0x0002e0ad   Thumb Code   204  peer_database.o(i.pdb_write_buf_get)
    pdb_write_buf_release                    0x0002e189   Thumb Code    20  peer_database.o(i.pdb_write_buf_release)
    pdb_write_buf_store                      0x0002e19d   Thumb Code    54  peer_database.o(i.pdb_write_buf_store)
    pds_init                                 0x0002e1e5   Thumb Code   136  peer_data_storage.o(i.pds_init)
    pds_next_deleted_peer_id_get             0x0002e2c1   Thumb Code     4  peer_data_storage.o(i.pds_next_deleted_peer_id_get)
    pds_next_peer_id_get                     0x0002e2c5   Thumb Code     4  peer_data_storage.o(i.pds_next_peer_id_get)
    pds_peer_data_iterate                    0x0002e2c9   Thumb Code    84  peer_data_storage.o(i.pds_peer_data_iterate)
    pds_peer_data_iterate_prepare            0x0002e321   Thumb Code    10  peer_data_storage.o(i.pds_peer_data_iterate_prepare)
    pds_peer_data_read                       0x0002e331   Thumb Code   114  peer_data_storage.o(i.pds_peer_data_read)
    pds_peer_data_store                      0x0002e3a5   Thumb Code   146  peer_data_storage.o(i.pds_peer_data_store)
    pds_peer_id_allocate                     0x0002e445   Thumb Code     8  peer_data_storage.o(i.pds_peer_id_allocate)
    pds_peer_id_free                         0x0002e44d   Thumb Code    22  peer_data_storage.o(i.pds_peer_id_free)
    pds_peer_id_is_allocated                 0x0002e463   Thumb Code     4  peer_data_storage.o(i.pds_peer_id_is_allocated)
    peer_id_allocate                         0x0002e575   Thumb Code     6  peer_id.o(i.peer_id_allocate)
    peer_id_delete                           0x0002e581   Thumb Code    32  peer_id.o(i.peer_id_delete)
    peer_id_free                             0x0002e5a5   Thumb Code    24  peer_id.o(i.peer_id_free)
    peer_id_get_next_deleted                 0x0002e5c1   Thumb Code     6  peer_id.o(i.peer_id_get_next_deleted)
    peer_id_get_next_used                    0x0002e5cd   Thumb Code    42  peer_id.o(i.peer_id_get_next_used)
    peer_id_init                             0x0002e5fd   Thumb Code     8  peer_id.o(i.peer_id_init)
    peer_id_is_allocated                     0x0002e609   Thumb Code    16  peer_id.o(i.peer_id_is_allocated)
    peer_id_is_deleted                       0x0002e61d   Thumb Code    16  peer_id.o(i.peer_id_is_deleted)
    pm_buffer_block_acquire                  0x0002e661   Thumb Code   100  pm_buffer.o(i.pm_buffer_block_acquire)
    pm_buffer_init                           0x0002e6c5   Thumb Code    36  pm_buffer.o(i.pm_buffer_init)
    pm_buffer_ptr_get                        0x0002e6e9   Thumb Code    40  pm_buffer.o(i.pm_buffer_ptr_get)
    pm_buffer_release                        0x0002e711   Thumb Code    50  pm_buffer.o(i.pm_buffer_release)
    pm_gcm_evt_handler                       0x0002e743   Thumb Code     4  peer_manager.o(i.pm_gcm_evt_handler)
    pm_gscm_evt_handler                      0x0002e747   Thumb Code     4  peer_manager.o(i.pm_gscm_evt_handler)
    pm_im_evt_handler                        0x0002e74b   Thumb Code     4  peer_manager.o(i.pm_im_evt_handler)
    pm_init                                  0x0002e751   Thumb Code   162  peer_manager.o(i.pm_init)
    pm_pdb_evt_handler                       0x0002e90d   Thumb Code   282  peer_manager.o(i.pm_pdb_evt_handler)
    pm_peer_ranks_get                        0x0002ea2d   Thumb Code   218  peer_manager.o(i.pm_peer_ranks_get)
    pm_sm_evt_handler                        0x0002eb19   Thumb Code    10  peer_manager.o(i.pm_sm_evt_handler)
    sm_ble_evt_handler                       0x0002f765   Thumb Code    32  security_manager.o(i.sm_ble_evt_handler)
    sm_init                                  0x0002f791   Thumb Code    72  security_manager.o(i.sm_init)
    sm_pdb_evt_handler                       0x0002f7e9   Thumb Code    56  security_manager.o(i.sm_pdb_evt_handler)
    sm_smd_evt_handler                       0x0002f82d   Thumb Code    92  security_manager.o(i.sm_smd_evt_handler)
    smd_ble_evt_handler                      0x0002f88d   Thumb Code   282  security_dispatcher.o(i.smd_ble_evt_handler)
    smd_init                                 0x0002f9b1   Thumb Code    88  security_dispatcher.o(i.smd_init)
    smd_link_secure                          0x0002fa19   Thumb Code    58  security_dispatcher.o(i.smd_link_secure)
    smd_params_reply                         0x0002fa55   Thumb Code   168  security_dispatcher.o(i.smd_params_reply)
    store_car_value                          0x0002fc79   Thumb Code    88  gatt_cache_manager.o(i.store_car_value)
    write_buf_store                          0x000303a9   Thumb Code   202  peer_database.o(i.write_buf_store)
    nrf_fstorage_sd                          0x00030990   Data          32  nrf_fstorage_sd.o(.constdata)
    nrf_log_backend_rtt_api                  0x00030cf4   Data          12  nrf_log_backend_rtt.o(.constdata)
    m_ram_start                              0x00030d8c   Data           4  nrf_sdh_ble.o(.constdata)
    __ctype_table                            0x00030db8   Data         129  ctype_o.o(.constdata)
    Region$$Table$$Base                      0x000322a8   Number         0  anon$$obj.o(Region$$Table)
    Region$$Table$$Limit                     0x000322c8   Number         0  anon$$obj.o(Region$$Table)
    log_const_data$$Base                     0x000322d8   Number         0  ble_db_discovery.o(log_const_data)
    m_nrf_log_ble_db_disc_logs_data_const    0x000322d8   Data           8  ble_db_discovery.o(log_const_data)
    m_nrf_log_nrf_ble_gatt_logs_data_const   0x000322e0   Data           8  nrf_ble_gatt.o(log_const_data)
    m_nrf_log_ble_scan_logs_data_const       0x000322e8   Data           8  nrf_ble_scan.o(log_const_data)
    m_nrf_log_ble_nus_c_logs_data_const      0x000322f0   Data           8  ble_nus_c.o(log_const_data)
    m_nrf_log_clock_logs_data_const          0x000322f8   Data           8  nrf_drv_clock.o(log_const_data)
    m_nrf_log_CLOCK_logs_data_const          0x00032300   Data           8  nrfx_clock.o(log_const_data)
    m_nrf_log_GPIOTE_logs_data_const         0x00032308   Data           8  nrfx_gpiote.o(log_const_data)
    m_nrf_log_PRS_logs_data_const            0x00032310   Data           8  nrfx_prs.o(log_const_data)
    m_nrf_log_UART_logs_data_const           0x00032318   Data           8  nrfx_uart.o(log_const_data)
    m_nrf_log_UARTE_logs_data_const          0x00032320   Data           8  nrfx_uarte.o(log_const_data)
    m_nrf_log_nrf_fstorage_logs_data_const   0x00032328   Data           8  nrf_fstorage.o(log_const_data)
    m_nrf_log_pwr_mgmt_logs_data_const       0x00032330   Data           8  nrf_pwr_mgmt.o(log_const_data)
    m_nrf_log_peer_manager_logs_data_const   0x00032338   Data           8  peer_manager.o(log_const_data)
    m_nrf_log_peer_manager_pdb_logs_data_const 0x00032340   Data           8  peer_database.o(log_const_data)
    m_nrf_log_peer_manager_gcm_logs_data_const 0x00032348   Data           8  gatt_cache_manager.o(log_const_data)
    m_nrf_log_peer_manager_gscm_logs_data_const 0x00032350   Data           8  gatts_cache_manager.o(log_const_data)
